:020000040800F2
:100000006008002051050008AD050008AD05000896
:10001000AD050008AD050008AD05000800000000B2
:10002000000000000000000000000000AD05000816
:10003000AD05000800000000AD050008AD05000892
:10004000AD050008AD050008AD050008AD050008C8
:10005000AD050008AD050008AD050008AD050008B8
:10006000AD050008AD050008AD050008AD050008A8
:10007000AD050008AD050008AD050008AD05000898
:10008000AD050008AD050008AD050008AD05000888
:10009000AD050008AD050008AD050008AD05000878
:1000A000AD050008AD050008AD050008AD05000868
:1000B000AD050008AD050008AD050008AD05000858
:1000C000AD050008AD050008AD050008AD05000848
:1000D000AD050008AD050008AD0500080D1B0008C2
:1000E000AD050008AD050008AD050008AD05000828
:1000F000AD050008AD050008AD050008AD05000818
:10010000AD050008AD050008AD050008AD05000807
:10011000AD050008AD050008AD050008AD050008F7
:10012000AD050008AD050008AD050008AD050008E7
:10013000AD050008AD050008AD050008AD050008D7
:10014000AD050008AD050008AD050008AD050008C7
:10015000AD050008AD050008AD050008AD050008B7
:10016000AD050008AD050008AD050008AD050008A7
:10017000AD050008AD050008AD050008AD05000897
:10018000AD050008AD05000890B484B000AF02468C
:100190000B46FA71BB710023FB60BB7903F00303CC
:1001A0009B000F2202FA03F3FB60154BBA79920809
:1001B000D2B21349B8798008C0B2023051F8200099
:1001C000F968C9430140023243F822100C4BBA7956
:1001D0009208D2B20A49B8798008C0B2023051F808
:1001E0002000FC79B97901F00301890004FA01F1DA
:1001F0000143023243F822101037BD4690BC7047CD
:100200000038014080B58AB000AF786039600023C3
:100210007B6200233B620023FB610023BB617B68A0
:100220001B8A9BB27B627B6A23F440537B623B68F0
:10023000DB887A6A13437B627B6A9AB27B681A8294
:100240007B689B899BB27B627B6A23F4B05323F06B
:100250000C037B623B689A883B681B8913439AB204
:100260003B685B8913439BB27A6A13437B627B6A68
:100270009AB27B689A817B689B8A9BB27B627B6A1D
:1002800023F440737B623B689B897A6A13437B62E9
:100290007B6A9AB27B689A8207F10803184600F0DD
:1002A00089F97A68314B9A4203D07A68304B9A4286
:1002B00002D17B693B6201E03B693B627B689B89C1
:1002C0009BB29BB21BB2002B0CDA3A6A13469B001E
:1002D00013449A001A443B681B685B00B2FBF3F3BB
:1002E000FB610BE03A6A13469B0013449A001A44E0
:1002F0003B681B689B00B2FBF3F3FB61FA691D4B83
:10030000A3FB02135B091B017B627B6A1B0964224E
:1003100002FB03F3FA69D31ABB617B689B899BB22A
:100320009BB21BB2002B0DDABB69DB0003F132027A
:10033000104BA3FB02135B0903F007037A6A134314
:100340007B620CE0BB691B0103F13202094BA3FB8A
:1003500002135B0903F00F037A6A13437B627B6A23
:100360009AB27B681A812837BD4680BD00100140D3
:10037000001401401F85EB5180B483B000AF78605A
:100380000B46FB70FB78002B08D07B689B899BB2E7
:1003900043F400539AB27B689A8107E07B689B899B
:1003A0009BB223F400539AB27B689A810C37BD4606
:1003B0005DF8047B704700BF80B483B000AF786005
:1003C0007B689B889BB2C3F308039BB218460C372B
:1003D000BD465DF8047B704780B487B000AF78609D
:1003E00013460A467A807B7000233B610023FB6042
:1003F0000023BB6000237B617B687B617B88DBB271
:100400005B09DBB23B617B8803F01F03FB60FB6889
:10041000012202FA03F3BB603B69012B03D17B6924
:100420000C337B6109E03B69022B03D17B691033FC
:100430007B6102E07B6914337B617B78002B06D003
:100440007B697A691168BA680A431A6006E07B69B9
:100450007A691168BA68D2430A401A601C37BD46EF
:100460005DF8047B704700BF80B487B000AF786050
:100470000B467B800023FB6000237B610023BB6075
:100480000023FB747B88DBB25B09DBB2BB607B883B
:1004900003F01F037B617B69012202FA03F37B6196
:1004A000BB68012B06D17B689B899BB27A6913409C
:1004B0007B610FE0BB68022B06D17B681B8A9BB275
:1004C0007A6913407B6105E07B689B8A9BB27A69FD
:1004D00013407B617B881B0A9BB2FB60FB68012297
:1004E00002FA03F3FB607B681B889BB2FA68134037
:1004F000FB607B69002B05D0FB68002B02D0012339
:10050000FB7401E00023FB74FB7C18461C37BD46DE
:100510005DF8047B704700BF80B485B000AF7860A1
:100520000B467B800023FB810023BB817B881B0A59
:10053000FB81FB89012202FA03F3BB81BB89DB4308
:100540009AB27B681A801437BD465DF8047B704709
:1005500080B582B000AF104B7B60104B3B6007E072
:100560003B681A1D3A607A68111D796012681A603A
:100570003A680B4B9A42F3D30A480B494FF00002FA
:100580008842B8BF40F8042BFFF6FAAF01F096FAA4
:100590000837BD4680BD00BF501C00080000002089
:1005A00034000020340000206000002080B400AF40
:1005B000FEE700BF80B489B000AF78600023BB6164
:1005C00000237B610023FB6102233B610023FB606E
:1005D0000223BB60484B9B6803F00C03BB61BB6903
:1005E000042B07D0082B09D0002B3FD17B68434A4E
:1005F0001A603FE07B68424A1A603BE03E4B5B6812
:1006000003F480039B0DFB603B4B5B6803F03F03EF
:10061000BB60FB68002B0DD0394ABB68B2FBF3F21C
:10062000354B596847F6C0730B409B0903FB02F337
:10063000FB610CE0314ABB68B2FBF3F22E4B596808
:1006400047F6C0730B409B0903FB02F3FB612A4B87
:100650005B6803F440331B0C01335B003B61FA69B8
:100660003B69B2FBF3F27B681A6003E07B68234AC4
:100670001A6000BF204B9B6803F0F003BB61BB69AD
:100680001B09BB611F4ABB6913441B78DBB27B614A
:100690007B681A687B69DA407B685A60164B9B68F6
:1006A00003F4E053BB61BB699B0ABB61154ABB699C
:1006B00013441B78DBB27B617B685A687B69DA4044
:1006C0007B689A600C4B9B6803F46043BB61BB6919
:1006D0005B0BBB610B4ABB6913441B78DBB27B61CC
:1006E0007B685A687B69DA407B68DA602437BD46EC
:1006F0005DF8047B704700BF003802400024F4001E
:1007000040787D010000002080B483B000AF7860A5
:100710000B46FB70FB78002B06D0094B084A116B87
:100720007A680A431A6306E0054B054A116B7A683A
:10073000D2430A401A630C37BD465DF8047B70470C
:100740000038024080B483B000AF78600B46FB7085
:10075000FB78002B06D0094B084A116C7A680A43D3
:100760001A6406E0054B054A116C7A68D2430A40C8
:100770001A640C37BD465DF8047B704700380240B0
:1007800080B483B000AF78600B46FB70FB78002B21
:1007900006D0094B084A516C7A680A435A6406E04D
:1007A000054B054A516C7A68D2430A405A640C37AB
:1007B000BD465DF8047B70470038024080B487B0C6
:1007C00000AF7860396000237B6100233B61002328
:1007D000FB6000237B6176E07B69012202FA03F370
:1007E0003B613B681A683B691340FB60FA683B69F0
:1007F0009A4265D17B681A687B695B00032101FA24
:1008000003F3DB431A407B681A607B681A683B6815
:100810001B7919467B695B0001FA03F31A437B6875
:100820001A603B681B79012B03D03B681B79022BB4
:100830002ED17B689A687B695B00032101FA03F380
:10084000DB431A407B689A607B689A683B685B79F7
:1008500019467B695B0001FA03F31A437B689A60CF
:100860007B685A687B699BB2012101FA03F3DB4381
:100870001A407B685A607B685A683B689B791946C6
:100880007B699BB201FA03F39BB21A437B685A60FF
:100890007B68DA687B699BB25B00032101FA03F392
:1008A000DB431A407B68DA607B68DA683B68DB7997
:1008B00019467B695B0001FA03F31A437B68DA602F
:1008C0007B6901337B617B690F2B85D91C37BD4662
:1008D0005DF8047B704700BF80B485B000AF7860DE
:1008E0000B467B800023FB737B681A697B8813406F
:1008F000002B02D00123FB7301E00023FB73FB7B81
:1009000018461437BD465DF8047B704780B483B049
:1009100000AF78600B467B807B687A881A830C373F
:10092000BD465DF8047B704780B483B000AF78604B
:100930000B467B807B687A885A830C37BD465DF80E
:10094000047B704780B485B000AF786013460A46D8
:100950007A807B700023FB600023BB607A787B8801
:1009600003F007039B0002FA03F3FB607B88DB08BC
:100970009BB21A467B88DB089BB219467B6808311C
:1009800053F821107B8803F007039B000F2000FA27
:1009900003F3DB4319407B68083243F822107B885D
:1009A000DB089BB21A467B68083253F82220FB68AA
:1009B0001343BB607B88DB089BB21A467B68083216
:1009C000B96843F822101437BD465DF8047B7047C0
:1009D00080B485B000AF78600023FB60324BFB60D1
:1009E0007B689B79002B4DD02F4B2F4A11687A687A
:1009F0001268D2430A401A602B4B2B4A51687A681E
:100A00001268D2430A405A607B681B79FA68134423
:100A1000FB60FB68FA6811687A6812680A431A601A
:100A2000214B214A91687A681268D2430A409A6041
:100A30001D4B1D4AD1687A681268D2430A40DA60B9
:100A40007B685B79102B0ED1174B174A91687A6837
:100A500012680A439A60144B134AD1687A68126884
:100A60000A43DA601BE0104BFB607B685B79FA6835
:100A70001344FB60FB68FA6811687A6812680A43DD
:100A80001A600CE07B681B79FA681344FB60FB6812
:100A9000FA6811687A681268D2430A401A601437FB
:100AA000BD465DF8047B7047003C014080B485B0D2
:100AB00000AF78600023FB730023BB730F237B73AD
:100AC0007B68DB78002B37D0254BDB68DB4303F4F6
:100AD000E0631B0AFB73FB7BC3F10403BB737A7BEC
:100AE000FB7B42FA03F37B737B685B781A46BB7B24
:100AF00002FA03F3FB737B689A787B7B1340DAB2CC
:100B0000FB7B1343FB73FB7B1B01FB73154A7B6869
:100B10001B781344FA7B83F80023124B7A6812780F
:100B20005209D2B27968097801F01F01012000FA58
:100B300001F143F822100EE00A4B7A68127852094C
:100B4000D2B27968097801F01F01012000FA01F1A1
:100B5000203243F822101437BD465DF8047B7047FD
:100B600000ED00E000E100E080B485B000AF786007
:100B700039600023FB817B681B88FB817A68284BE6
:100B80009A4213D07A68274B9A420FD07B68B3F110
:100B9000804F0BD07A68244B9A4207D07A68234B57
:100BA0009A4203D07A68224B9A4208D1FB8923F0FB
:100BB0007003FB813B685A88FB891343FB817A6889
:100BC0001C4B9A420CD07A681B4B9A4208D0FB8986
:100BD00023F44073FB813B681A89FB891343FB8133
:100BE0007B68FA891A803B685A687B68DA623B68DE
:100BF0001A887B681A857A68094B9A4203D07A680A
:100C0000084B9A4204D13B689B7A1A467B681A8645
:100C10007B6801229A821437BD465DF8047B7047D9
:100C200000000140000401400004004000080040B2
:100C3000000C0040001000400014004080B483B05D
:100C400000AF78600B46FB70FB78002B08D07B6808
:100C50001B889BB243F080039AB27B681A8007E03E
:100C60007B681B889BB223F080039AB27B681A8052
:100C70000C37BD465DF8047B704700BF80B483B07D
:100C800000AF78600B46FB70FB78002B08D07B68C8
:100C90001B889BB243F001039AB27B681A8007E07D
:100CA0007B681B889BB223F001039AB27B681A8091
:100CB0000C37BD465DF8047B704700BF80B485B03B
:100CC00000AF7860396000237B810023FB81002323
:100CD000BB817B681B8C9BB223F001039AB27B68BB
:100CE0001A847B681B8CFB817B689B88BB817B683B
:100CF0001B8B7B817B8923F070037B817B8923F0B5
:100D000003037B813B681A887B8913437B81FB89C2
:100D100023F00203FB813B689A89FB891343FB8123
:100D20003B685A88FB891343FB817A681E4B9A42C1
:100D300003D07A681D4B9A4223D1FB8923F0080324
:100D4000FB813B68DA89FB891343FB81FB8923F034
:100D50000403FB813B689A88FB891343FB81BB89B1
:100D600023F48073BB81BB8923F40073BB813B6890
:100D70001A8ABB891343BB813B685A8ABB891343D8
:100D8000BB817B68BA899A807B687A891A833B68C1
:100D90009A687B685A637B68FA891A841437BD465F
:100DA0005DF8047B704700BF000001400004014073
:100DB00080B485B000AF7860396000237B81002368
:100DC000FB810023BB817B681B8C9BB223F010034B
:100DD0009AB27B681A847B681B8CFB817B689B883A
:100DE000BB817B681B8B7B817B8923F4E0437B8108
:100DF0007B8923F440737B813B681B881B029AB27A
:100E00007B8913437B81FB8923F02003FB813B68B3
:100E10009B891B019AB2FB891343FB813B685B886A
:100E20001B019AB2FB891343FB817A68224B9A42D9
:100E300003D07A68214B9A422BD1FB8923F080039F
:100E4000FB813B68DB891B019AB2FB891343FB8161
:100E5000FB8923F04003FB813B689B881B019AB20E
:100E6000FB891343FB81BB8923F48063BB81BB896E
:100E700023F40063BB813B681B8A9B009AB2BB8949
:100E80001343BB813B685B8A9B009AB2BB891343C7
:100E9000BB817B68BA899A807B687A891A833B68B0
:100EA0009A687B689A637B68FA891A841437BD460E
:100EB0005DF8047B704700BF000001400004014062
:100EC00080B485B000AF7860396000237B81002357
:100ED000FB810023BB817B681B8C9BB223F4807356
:100EE0009AB27B681A847B681B8CFB817B689B8829
:100EF000BB817B689B8B7B817B8923F070037B812B
:100F00007B8923F003037B813B681A887B89134329
:100F10007B81FB8923F40073FB813B689B891B0267
:100F20009AB2FB891343FB813B685B881B029AB230
:100F3000FB891343FB817A68224B9A4203D07A687B
:100F4000214B9A422BD1FB8923F40063FB813B6840
:100F5000DB891B029AB2FB891343FB81FB8923F4D3
:100F60008063FB813B689B881B029AB2FB89134319
:100F7000FB81BB8923F48053BB81BB8923F40053DD
:100F8000BB813B681B8A1B019AB2BB891343BB819F
:100F90003B685B8A1B019AB2BB891343BB817B68A8
:100FA000BA899A807B687A899A833B689A687B6859
:100FB000DA637B68FA891A841437BD465DF8047BCE
:100FC000704700BF000001400004014080B485B0BC
:100FD00000AF786039600023BB8100237B81002350
:100FE000FB817B681B8C9BB223F480539AB27B6895
:100FF0001A847B681B8C7B817B689B88FB817B6868
:101000009B8BBB81BB8923F4E043BB81BB8923F469
:101010004073BB813B681B881B029AB2BB89134398
:10102000BB817B8923F400537B813B689B891B0335
:101030009AB27B8913437B813B685B881B039AB21E
:101040007B8913437B817A68114B9A4203D07A687B
:10105000104B9A420AD1FB8923F48043FB813B6801
:101060001B8A9B019AB2FB891343FB817B68FA8937
:101070009A807B68BA899A833B689A687B681A640D
:101080007B687A891A841437BD465DF8047B704703
:10109000000001400004014080B485B000AF7860DA
:1010A0000B467B800023FB817B681B8BFB81FB89CC
:1010B00023F00803FB81FA897B881343FB817B685B
:1010C000FA891A831437BD465DF8047B704700BF68
:1010D00080B485B000AF78600B467B800023FB8135
:1010E0007B681B8BFB81FB8923F40063FB817B887E
:1010F0001B029AB2FB891343FB817B68FA891A832E
:101100001437BD465DF8047B704700BF80B485B0DE
:1011100000AF78600B467B800023FB817B689B8B54
:10112000FB81FB8923F00803FB81FA897B88134349
:10113000FB817B68FA899A831437BD465DF8047B8E
:10114000704700BF80B485B000AF78600B467B80ED
:101150000023FB817B689B8BFB81FB8923F400636D
:10116000FB817B881B029AB2FB891343FB817B685E
:10117000FA899A831437BD465DF8047B704700BF37
:1011800080B483B000AF0346FB71094B97F9072089
:101190005209F97901F01F01012000FA01F16032D2
:1011A00043F822100C37BD465DF8047B704700BF42
:1011B00000E100E080B483B000AF78607B684FF45A
:1011C000CA6202FB03F3002B00DA7F33DB11CC335E
:1011D00018460C37BD465DF8047B704780B582B079
:1011E00000AF08200121FFF78FFA0F233B60012396
:1011F0003B710023BB7103237B710123FB713B46D1
:1012000003481946FFF7DAFA0837BD4680BD00BF2C
:10121000000C024090B583B000AF10200121FFF711
:1012200073FA3C233B6000233B710023BB71032313
:101230007B710123FB713B4611481946FFF7BEFA4B
:101240000F480421FFF748FB03465C000C480821C7
:10125000FFF742FB034623445C0009481021FFF7D7
:101260003BFB034623445C0005482021FFF734FB89
:101270000346E218034B1A600C37BD4690BD00BF11
:10128000001002405800002080B582B000AF04205A
:101290000121FFF739FA4FF400633B600023BB7173
:1012A0000023FB7102233B7103237B7106480B2152
:1012B0000722FFF747FB3B4603481946FFF77EFA34
:1012C0000837BD4680BD00BF0008024080B586B02B
:1012D00000AF4FF480200121FFF734FA4FF416439A
:1012E000BB600023BB8104237B820023BB820023DD
:1012F000FB8100233B8207F108030E481946FEF7E5
:1013000081FF0C4840F225510122FFF765F82723A1
:101310003B7100237B710023BB710123FB713B1DDB
:101320001846FFF7C3FB03480121FFF725F81837DC
:10133000BD4680BD0048004080B582B000AF10209F
:101340000121FFF7E1F903233B6001233B710023F7
:10135000BB7103237B710123FB713B460348194694
:10136000FFF72CFA0837BD4680BD00BF00100240D1
:1013700080B582B000AF02200121FFF7C5F90B2331
:101380003B6001233B710023BB7103237B7101236D
:10139000FB713B4603481946FFF710FA0837BD4674
:1013A00080BD00BF0004024080B582B000AF1020B5
:1013B0000121FFF7A9F947F683733B6001233B71D5
:1013C0000023BB7103237B710123FB713B46034860
:1013D0001946FFF7F3F90837BD4680BD00100240FB
:1013E00080B582B000AF786039607B68013B042B28
:1013F00066D801A252F823F00D1400082F1400083B
:1014000051140008771400089D1400083B68012B54
:1014100004D12D480121FFF779FA07E03B68002B42
:1014200004D129480121FFF77FFA49E048E03B68F1
:10143000012B04D125488021FFF768FA07E03B68BB
:10144000002B04D121488021FFF76EFA38E037E005
:101450003B68012B05D11D484FF40071FFF756FA88
:1014600008E03B68002B05D118484FF40071FFF7E6
:101470005BFA25E024E03B68012B05D113484FF4CB
:101480000061FFF743FA08E03B68002B05D10F48E5
:101490004FF40061FFF748FA12E011E03B68012BBE
:1014A00005D10A484FF40051FFF730FA07E03B68D6
:1014B000002B04D105484FF40051FFF735FA00BF67
:1014C0000837BD4680BD00BF000402400010024046
:1014D00080B582B000AF786039607B68013B042B37
:1014E00068D801A252F823F0FD1400081F15000867
:1014F000451500086B150008911500083B68012B85
:1015000004D12E480221FFF701FA07E03B68002BC7
:1015100004D12A480221FFF707FA4BE04AE03B6872
:10152000012B05D126484FF48071FFF7EFF908E051
:101530003B68002B05D122484FF48071FFF7F4F986
:1015400038E037E03B68012B05D11D484FF480613E
:10155000FFF7DCF908E03B68002B05D118484FF491
:101560008061FFF7E1F925E024E03B68012B05D11C
:1015700013484FF48051FFF7C9F908E03B68002B8E
:1015800005D10F484FF48051FFF7CEF912E011E07A
:101590003B68012B05D10A484FF48041FFF7B6F9AB
:1015A00007E03B68002B04D105484FF48041FFF76A
:1015B000BBF900BF0837BD4680BD00BF0004024034
:1015C0000010024080B58AB000AF04200121FFF76F
:1015D000B9F808200121FFF797F84FF470433B60FA
:1015E00002233B7103237B710023BB710123FB7139
:1015F0003B4637481946FFF7E1F835480C210222EF
:10160000FFF7A0F932480D210222FFF79BF930487D
:101610000E210222FFF796F92D480F210222FFF733
:1016200091F940F2FF733B620923BB830023BB8423
:101630000023FB8307F11C0326481946FFF794FAA1
:1016400060233B8101237B8100233B610023BB821C
:1016500007F108031F481946FFF730FB1D48082112
:10166000FFF71AFD01237B8100233B6107F108038B
:1016700018481946FFF79CFB16480821FFF728FD7C
:1016800001237B8100233B6107F1080311481946C0
:10169000FFF716FC0F480821FFF738FD01237B8177
:1016A00000233B6107F108030A481946FFF78EFC47
:1016B00008480821FFF746FD06480121FFF7BEFA5A
:1016C00004480121FFF7DAFA2837BD4680BD00BF84
:1016D000000C02400008004080B483B000AF786086
:1016E00039607B68013B032B1AD801A252F823F022
:1016F000011700080917000811170008191700083A
:101700000A4B3A685A630BE0084B3A689A6307E061
:10171000064B3A68DA6303E0044B3A681A6400BF88
:101720000C37BD465DF8047B704700BF00080040E1
:1017300080B58AB000AF01200121FFF703F8022035
:101740000121FEF7E1FF4FF480633B6002233B7110
:1017500003237B710023BB710123FB713B462348AC
:101760001946FFF72BF821480A210122FFF7EAF872
:1017700040F2FF733B620923BB830023BB84002339
:10178000FB8307F11C034FF080401946FFF7ECF98B
:1017900060233B810023BB8207F108034FF08040A8
:1017A0001946FFF78BFA4FF080400821FFF774FCD1
:1017B00001237B8100233B6107F108034FF0804048
:1017C0001946FFF77DFB4FF080400821FFF79EFC94
:1017D0004FF080400121FFF731FA4FF080400121A6
:1017E000FFF74CFA2837BD4680BD00BF0004024019
:1017F00080B483B000AF78604FF080437A68DA63DA
:101800000C37BD465DF8047B704700BF80B596B0CD
:1018100000AF4FF480400121FEF7B2FF0420012108
:10182000FEF772FF02200521FEF7AEFC0220062122
:10183000FEF7AAFC02200721FEF7A6FC02200821E1
:10184000FEF7A2FC02200921FEF79EFC002387F888
:10185000543020233B65032387F85530022387F853
:101860005730002387F8563007F150035648194681
:10187000FEF7A4FF002387F84C304023BB6403230A
:1018800087F84D30022387F84F30002387F84E3019
:1018900007F148034C481946FEF790FF002387F8EC
:1018A000443080233B64032387F84530022387F8C4
:1018B0004730002387F8463007F140034248194675
:1018C000FEF77CFF002387F83C304FF48073BB6346
:1018D000032387F83D30022387F83F30002387F841
:1018E0003E3007F1380338481946FEF767FF0023FA
:1018F00087F834304FF480733B63032387F8353027
:10190000022387F83730002387F8363007F1300399
:101910002D481946FEF752FF2023BB62012387F8AA
:101920002E30002387F82C30082387F82D3007F15C
:1019300028031846FFF74CF840233B62012387F841
:101940002630002387F82430082387F8253007F154
:1019500020031846FFF73CF88023BB610123BB77C7
:1019600000233B7708237B7707F118031846FFF71E
:101970002FF84FF480733B610123BB7500233B7547
:1019800008237B7507F110031846FFF721F84FF481
:101990000073BB600123BB7300233B7308237B737D
:1019A00007F108031846FFF713F817233B710123CB
:1019B000FB7100237B710023BB713B1D1846FFF7B1
:1019C00075F85837BD4680BD0008024080B582B02A
:1019D00000AF00237B6000237B6057E0354B7A68C3
:1019E00053F822307F2B22DC324B7A6853F82230B6
:1019F0001846FFF7DFFB01462E4B7A6843F82210AA
:101A00007B68013318460021FFF7EAFC7B6801334D
:101A100018460121FFF75CFD7B685A1C254B79684D
:101A200053F8213010461946FFF756FE2BE0214BA4
:101A30007A6853F82230C3F1FF011E4B7A6843F8ED
:101A400022101C4B7A6853F822301846FFF7B2FB7D
:101A50000146184B7A6843F822107B680133184618
:101A60000121FFF7BDFC7B68013318460021FFF719
:101A70002FFD7B685A1C0F4B796853F821301046B4
:101A80001946FFF729FE7B6801337B607B68032BD7
:101A9000A4DD094B1B681846FFF7AAFE05200121AB
:101AA000FFF79EFC05200021FFF712FD0837BD4619
:101AB00080BD00BF3C0000203000002080B500AF9A
:101AC000FFF78CFBFFF7A6FBFFF7DEFBFFF7FEFB44
:101AD000FFF74EFCFFF768FCFFF72EFCFFF772FDE7
:101AE000FFF726FEFFF792FE06480121FEF70EFFE4
:101AF00005480121FEF70AFF03480221FEF706FF11
:101B0000FEE700BF000C02400010024080B582B02A
:101B100000AF484840F22551FEF7A6FC0346002BD3
:101B20007DD045480121FEF7F1FE4248FEF744FC16
:101B300003461A46414B1A60404B1B687A2B02D170
:101B40003F4B00221A603E4B1B68062B67DC3C4B68
:101B50001B683A4A1268D1B23A4AD154384B1B68D2
:101B6000062B57D1374B5B78DBB21A46364B1A60DF
:101B7000344B9B78DBB21A46334B5A60314BDB78DF
:101B8000DBB21A46304B9A602E4B1B79DBB21A46F9
:101B90002D4BDA602B4B5B79DBB21A4613469B0068
:101BA0001A442A4B1A60274B9B79DBB2642B10D165
:101BB00021480121FEF7B8FE14237B6000BF7B683B
:101BC0005A1E7A60002BFAD11B480121FEF79EFEB7
:101BD00003E019480121FEF799FEFFF7F7FE194BC4
:101BE0001B78DBB2012B15D1164B5B78DBB2322BA5
:101BF00010D1144B9B78DBB2322B0BD1114BDB781D
:101C0000DBB2322B06D10F4B1B79DBB2322B01D169
:101C10000C4B5B790A4B1B685A1C094B1A60054830
:101C200040F22551FEF778FC2720FFF7A9FA083784
:101C3000BD4680BD00480040000C02405C00002012
:101C400010000020340000203C0000203000002064
:101C50000000000001020304010203040607080952
:101C6000060000000164646464003264326400327F
:101C70006432640032643264003264326400000012
:041C8000D007000089
:0400000508000000EF
:00000001FF
