:020000040800F2
:10000000880800203D0500089505000895050008B2
:1000100095050008950500089505000800000000FA
:10002000000000000000000000000000950500082E
:10003000950500080000000095050008990C0008CF
:100040009505000895050008950500089505000828
:100050009505000895050008950500089505000818
:100060009505000895050008950500089505000808
:1000700095050008950500089505000895050008F8
:1000800095050008950500089505000895050008E8
:1000900095050008950500089505000895050008D8
:1000A00095050008950500089505000895050008C8
:1000B00095050008950500089505000895050008B8
:1000C00095050008950500089505000895050008A8
:1000D0009505000889120008950500089505000897
:1000E0009505000895050008950500089505000888
:1000F0009505000895050008950500089505000878
:100100009505000895050008950500089505000867
:100110009505000895050008950500089505000857
:100120009505000895050008950500089505000847
:100130009505000895050008950500089505000837
:100140009505000895050008950500089505000827
:100150009505000895050008950500089505000817
:100160009505000895050008950500089505000807
:1001700095050008950500089505000895050008F7
:10018000950500089505000880B58AB000AF786035
:10019000396000237B6200233B620023FB61002364
:1001A000BB617B681B8A9BB27B627B6A23F44053F2
:1001B0007B623B68DB881A467B6A13437B627B6AFF
:1001C0009AB27B681A827B689B899BB27B627B6A4E
:1001D00023F4B05323F00C037B623B689A883B689E
:1001E0001B8913439AB23B685B8913439BB21A463F
:1001F0007B6A13437B627B6A9AB27B689A817B68D5
:100200009B8A9BB27B627B6A23F440737B623B6870
:100210009B891A467B6A13437B627B6A9AB27B682E
:100220009A8207F10803184601F072F97B68314A97
:10023000934203D07B68304A934202D17B693B6290
:1002400001E03B693B627B689B899BB29BB21BB21E
:10025000002B0CDA3A6A13469B0013449A001A44A6
:100260003B681B685B00B2FBF3F3FB610BE03A6A8F
:1002700013469B0013449A001A443B681B689B007A
:10028000B2FBF3F3FB61FB691C4AA2FB03235B098E
:100290001B017B627B6A1B09642202FB03F3FA6980
:1002A000D31ABB617B689B899BB29BB21BB2002BAC
:1002B0000CDABB69DB003233104AA2FB03235B0973
:1002C00003F007037A6A13437B620BE0BB691B01EF
:1002D00032330A4AA2FB03235B0903F00F037A6A55
:1002E00013437B627B6A9AB27B681A812837BD46CA
:1002F00080BD00BF00100140001401401F85EB517C
:1003000080B483B000AF78600B46FB70FB78002BA5
:1003100008D07B689B899BB243F400539AB27B68F8
:100320009A8107E07B689B899BB223F400539AB2C1
:100330007B689A810C37BD465DF8047B704700BF2F
:1003400080B483B000AF78600B467B807B88C3F3BA
:1003500008039AB27B689A800C37BD465DF8047B2F
:10036000704700BF80B483B000AF78607B689B8823
:100370009BB2C3F308039BB218460C37BD465DF829
:10038000047B704780B487B000AF78600B467B80F9
:1003900013467B7000233B610023FB600023BB609E
:1003A00000237B617B687B617B88DBB25B09DBB20E
:1003B0003B617B8803F01F03FB60FB68012202FAAC
:1003C00003F3BB603B69012B03D17B690C337B6179
:1003D00009E03B69022B03D17B6910337B6102E0AA
:1003E0007B6914337B617B78002B06D07B697A694B
:1003F0001168BA680A431A6006E07B697A69116875
:10040000BA68D2430A401A601C37BD465DF8047BC7
:10041000704700BF80B485B000AF78600B467B802A
:100420000023FB737B681B889AB27B8813409BB2C6
:10043000002B02D00123FB7301E00023FB73FB7B45
:1004400018461437BD465DF8047B704780B487B00A
:1004500000AF78600B467B800023FB6000237B614C
:100460000023BB600023FB747B88DBB25B09DBB23B
:10047000BB607B8803F01F037B617B69012202FA6A
:1004800003F37B61BB68012B07D17B689B899BB21F
:100490001A467B6913407B6111E0BB68022B07D1D0
:1004A0007B681B8A9BB21A467B6913407B6106E01E
:1004B0007B689B8A9BB21A467B6913407B617B8871
:1004C0001B0A9BB2FB60FB68012202FA03F3FB608C
:1004D0007B681B889BB21A46FB681340FB607B69F4
:1004E000002B05D0FB68002B02D00123FB7401E038
:1004F0000023FB74FB7C18461C37BD465DF8047B6B
:10050000704700BF80B485B000AF78600B467B8039
:100510000023FB810023BB817B881B0AFB81FB89B5
:10052000012202FA03F3BB81BB89DB439AB27B68E9
:100530001A801437BD465DF8047B704780B582B0E1
:1005400000AF0F4B7B600F4B3B6007E03B681A1D11
:100550003A607A68111D796012681A603B680A4A2D
:100560009342F3D309480A494FF000028842B8BFCA
:1005700040F8042BFADB00F013FF0837BD4680BDBE
:10058000981B0008000000205400002054000020A8
:100590008800002080B400AFFEE700BF80B483B0C5
:1005A00000AF03463960FB7197F90730002B0BDA77
:1005B0000D49FB7903F00F03043B3A68D2B21201F4
:1005C000D2B20B441A7609E0084997F907303A6825
:1005D000D2B21201D2B20B4483F800230C37BD46CD
:1005E0005DF8047B704700BF00ED00E000E100E033
:1005F00080B582B000AF78607B68B3F1807F01D3B3
:10060000012311E00A4A7B6823F07F43013B5360DA
:100610004FF0FF300F21FFF7C1FF054B00229A601A
:10062000034B07221A60002318460837BD4680BDD9
:1006300010E000E080B582B000AF0820012101F099
:1006400011F801233B710023BB710023FB710323CD
:100650007B7180233B603B460A48194601F096F8BF
:100660004FF480733B603B460648194601F08EF814
:10067000044B4FF480725A83024B80221A8308374E
:10068000BD4680BD000C024080B582B000AF03467D
:100690000A46FB711346BB71FFF7CCFF3B480121B3
:1006A00000F054FBBB79202B01D92023BB71384AC1
:1006B000FB795370364ABB791370354B03229A701D
:1006C000334B0022DA7000F0D9F9FB790520194686
:1006D00000F0DCF82E4B1B781120194600F0D6F8FC
:1006E0002B4B1B781220194600F0D0F8284B1B78B2
:1006F0001320194600F0CAF8254B1B781420194620
:1007000000F0C4F8224B1B781520194600F0BEF803
:100710001F4B1B781620194600F0B8F81C4BDA78EE
:100720001B4B9B781046194600F03AFA002008212E
:1007300000F0ACF801203F2100F0A8F802203F2192
:1007400000F0A4F804204F2100F0A0F81C200021A4
:1007500000F09CF80F4B80225A830C48E12100F0F6
:100760001FFB0C4B80221A830A4B80225A830748B6
:10077000E22100F015FB074B80221A8300F0EAF813
:10078000012318460837BD4680BD00BF003C00402D
:1007900060000020000C024080B582B000AF78609D
:1007A000074B4FF480725A830B207968052200F0C2
:1007B00093F8034B4FF480721A830837BD4680BD0F
:1007C000000C024080B582B000AF78600A207968E2
:1007D000052200F081F810207968052200F07CF8ED
:1007E0000837BD4680BD00BF80B584B000AF03466A
:1007F000FB710B46BB7113467B71FB79184600F009
:1008000023F80346FB737B79002B09D0BB790122C7
:1008100002FA03F3DAB2FB7B1343DBB2FB730AE0A9
:10082000BB79012202FA03F3DBB2DB43DAB2FB7BD2
:100830001340DBB2FB73FA79FB7B1046194600F0DC
:1008400025F81037BD4680BD80B584B000AF0346A3
:10085000FB710C4B80225A83FB7903F01F03DBB240
:100860000948194600F09CFA0748FF2100F098FA61
:100870000346FB73034B80221A83FB7B1846103719
:10088000BD4680BD000C0240003C004080B582B0F7
:1008900000AF03460A46FB711346BB710C4B802226
:1008A0005A83FB7903F01F03DBB243F02003DBB272
:1008B0000848194600F074FABB790648194600F05A
:1008C0006FFA034B80221A830837BD4680BD00BFF4
:1008D000000C0240003C004080B582B000AF0346EF
:1008E0003960FB711346BB710D4B80225A83FB7933
:1008F00003F01F03DBB243F02003DBB209481946C3
:1009000000F04EFABB799BB2064839681A4600F0EF
:1009100071FA034B80221A830837BD4680BD00BFA1
:10092000000C0240003C004080B500AF07200421CD
:100930000122FFF759FF072005210122FFF754FF8D
:10094000072006210122FFF74FFF00200A21FFF7B1
:100950009DFF80BD80B500AF124B80225A831248A4
:10096000E22100F01DFA0F4B80221A830720042198
:100970000122FFF739FF072005210122FFF734FF8D
:10098000072006210122FFF72FFF064B4FF480724C
:100990005A8300200B21FFF779FF024B4FF480723E
:1009A0001A8380BD000C0240003C004080B584B03A
:1009B00000AF7860154B1B78FB73154B4FF48072BA
:1009C0005A83FFF7B1FF124B80225A831148E1216D
:1009D00000F0E6F90E4B80221A830D4B80225A83D9
:1009E0000C48A02100F0DCF9FB7B9BB20948796838
:1009F0001A4600F0FFF9064B80221A83044B4FF48D
:100A000080721A831037BD4680BD00BF6000002091
:100A1000000C0240003C004080B582B000AF084BA3
:100A200080225A830748FF2100F0BAF90346FB7180
:100A3000034B80221A83FB7918460837BD4680BDD8
:100A4000000C0240003C004080B582B000AFFFF7D0
:100A5000E3FF0346FB71FB7903F02003002B01D079
:100A6000012307E0FB7903F01003002B01D00023E2
:100A700000E0FF2318460837BD4680BD80B582B030
:100A800000AF00200821FFF701FF01203F21FFF701
:100A9000FDFE02200321FFF7F9FE03200321FFF7EB
:100AA000F5FE04200321FFF7F1FE05200221FFF7E8
:100AB000EDFE06200E21FFF7E9FE07200E21FFF7CD
:100AC000E5FE08200021FFF7E1FE09200021FFF7E5
:100AD000DDFEE7233B70E7237B70E723BB70E72352
:100AE000FB70E7233B713B460A2019460522FFF7BE
:100AF000F3FEC2233B70C2237B70C223BB70C223B0
:100B0000FB70C2233B713B460B2019460522FFF7C1
:100B1000E3FE0C20C321FFF7B9FE0D20C421FFF72F
:100B2000B5FE0E20C521FFF7B1FE0F20C621FFF74D
:100B3000ADFEE7233B70E7237B70E723BB70E72321
:100B4000FB70E7233B713B46102019460522FFF757
:100B5000C3FE11200021FFF799FE12200021FFF7AC
:100B600095FE13200021FFF791FE14200021FFF7CE
:100B70008DFE15200021FFF789FE16200021FFF7CA
:100B800085FE17201121FFF781FE1C200021FFF7B1
:100B90007DFE1D200021FFF779FE0837BD4680BD90
:100BA00080B584B000AF03460A46FB711346BB71A3
:100BB0000023FB73194AFB79D370184ABB799370F1
:100BC000FB79002B04D1FB7B43F00803FB7306E0A9
:100BD000FB79022B03D1FB7B43F02003FB73BB7932
:100BE000032B04D1FB7B43F00603FB730EE0BB79C0
:100BF000022B04D1FB7B43F00403FB7306E0BB79BB
:100C0000012B03D1FB7B43F00203FB73FB7B06202C
:100C10001946FFF73BFE1037BD4680BD600000203F
:100C200080B582B000AF0820012100F01BFD4FF419
:100C300070433B600023BB7101233B710023FB71B8
:100C400003237B713B460348194600F09FFD08379C
:100C5000BD4680BD000C024080B582B000AF0346A7
:100C6000FB80FB880348194600F01EFE0837BD468E
:100C700080BD00BF000C024080B582B000AF0346CB
:100C8000FB80FB880348194600F01CFE0837BD4670
:100C900080BD00BF000C024080B400AF084B1B6851
:100CA0000133074A1360074B1B68002B04D0054B28
:100CB0001B68013B034A1360BD465DF8047B704727
:100CC000580000205400002080B500AF0F4B1B7867
:100CD000002B00D018E0012000F0E0FB00BF00F086
:100CE000EFFB0346002BFAD0094B1B68094AA2FB15
:100CF00003239B0C1846FFF77BFC0346002B00D018
:100D0000FEE7024B01221A7080BD00BF5C0000208C
:100D10004000002083DE1B4380B400AF034B1B6800
:100D20001846BD465DF8047B704700BF58000020A0
:100D300080B483B000AF7860034A7B6813600C37DF
:100D4000BD465DF8047B70475800002080B582B036
:100D500000AF78600B46FB707B680E4A934204D16B
:100D6000FB78184600F062F810E07B680A4A93426C
:100D700004D1FB78184600F0D7F807E07B68074AF3
:100D8000934203D1FB78184600F07CF90837BD4642
:100D900080BD00BF0030014000380040003C0040F2
:100DA00080B582B000AF78600B46FB70FB789AB2DA
:100DB0007B689A8100BF7868022100F061FE0346DB
:100DC000002BF8D000BF7868012100F059FE0346DF
:100DD000002BF8D000BF7868802100F051FE034658
:100DE000002BF8D17B689B899BB2DBB21846083791
:100DF000BD4680BD80B586B000AFF860B9601346CF
:100E0000FB800023FB820AE0FB8ABA6813441B784C
:100E1000F8681946FFF7C4FFFB8A0133FB82FA8AA0
:100E2000FB889A42F0D31837BD4680BD80B58AB0A2
:100E300000AF0346FB71002387F82630002387F8B4
:100E40002730032387F82530022387F82430FB79E5
:100E5000002B1BD10120012100F004FCE0233B62A8
:100E600007F120032D48194600F090FC2B4805217E
:100E7000052200F035FD29480621052200F030FD4D
:100E800026480721052200F02BFD1DE0FB79012BF0
:100E90001AD10220012100F0E5FB38233B6207F163
:100EA00020031F48194600F071FC1D48032105224C
:100EB00000F016FD1A480421052200F011FD184823
:100EC0000521052200F00CFD4FF48050012100F0B7
:100ED00005FC07F10C03184600F08EFD20233B8330
:100EE00000233B820023BB8100237B834FF482736A
:100EF000FB8100237B820023BB824FF40073FB82C3
:100F000007F10C030748194600F032FD054801219E
:100F100000F096FD2837BD4680BD00BF00000240AE
:100F2000000402400030014080B58AB000AF0346A3
:100F3000FB71002387F82630012387F8273003232D
:100F400087F82530022387F82430FB79002B28D13D
:100F50000220012100F086FB0420012100F082FB29
:100F60000C233B6207F120034248194600F00EFCB7
:100F70004FF480633B6207F120033F48194600F0BD
:100F800005FC3C480221052200F0AAFC3948032157
:100F9000052200F0A5FC38480A21052200F0A0FC3B
:100FA0003EE0FB79012B1CD10220012100F05AFB0D
:100FB0004FF460433B6207F120032F48194600F0CD
:100FC000E5FB2D480D21052200F08AFC2A480E2160
:100FD000052200F085FC28480F21052200F080FC46
:100FE0001EE0FB79022B1BD14FF48070012100F031
:100FF00039FB0D233B6207F120031F48194600F01F
:10100000C5FB1E480021052200F06AFC1B48022196
:10101000052200F065FC19480321052200F060FC60
:101020004FF48040012100F03BFB07F10C03184610
:1010300000F0E2FC20233B8300233B820023BB81A2
:1010400000237B834FF48273FB8100237B82002388
:10105000BB824FF40073FB8207F10C03084819466A
:1010600000F086FC0648012100F0EAFC2837BD4666
:1010700080BD00BF00080240000402400020024082
:101080000038004080B58AB000AF0346FB710023F2
:1010900087F82630002387F82730032387F8253088
:1010A000022387F82430FB79002B1BD10220012179
:1010B00000F0D8FA38233B6207F120032D48194687
:1010C00000F064FB2B480321062200F009FC2948AC
:1010D0000421062200F004FC26480521062200F027
:1010E000FFFB1EE0FB79012B1BD10420012100F046
:1010F000B9FA4FF4E0533B6207F120031E4819464A
:1011000000F044FB1C480A21062200F0E9FB1A48C3
:101110000B21062200F0E4FB17480C21062200F008
:10112000DFFB4FF40040012100F0BAFA07F10C0395
:10113000184600F061FC20233B8300233B82002300
:10114000BB8100237B834FF48273FB8100237B826E
:101150000023BB824FF40073FB8207F10C030748A6
:10116000194600F005FC0548012100F069FC28370C
:10117000BD4680BD0004024000080240003C004023
:1011800080B582B000AF0220012100F06BFA00238D
:10119000BB710123FB71C0233B6002233B7103231E
:1011A0007B713B460848194600F0F0FA06480621D4
:1011B000072200F095FB04480721072200F090FB6E
:1011C0000837BD4680BD00BF0004024080B584B032
:1011D00000AF1020012100F081FA0F480121FFF734
:1011E0008FF84FF416433B600023BB800023FB8045
:1011F00000233B810C237B810023BB813B460648B7
:101200001946FEF7C1FF044840F225510122FFF7BD
:10121000B9F81037BD4680BD0010014080B582B0DE
:1012200000AF25233B710123FB7100237B71002359
:10123000BB713B1D184600F03FFC0837BD4680BD22
:1012400080B584B000AF786039600023FB6015E0A2
:1012500000BF78688021FFF7DDF80346002BF8D047
:101260003B681B78DBB29BB278681946FFF768F8D9
:101270003B6801333B60FB680133FB60FB681F2B5D
:10128000E6DD1037BD4680BD80B582B000AF3F4877
:1012900040F22551FFF7DAF80346002B72D03B48A5
:1012A000FFF760F80346FB71394B1B781F2B0BD8F7
:1012B000374B1B781946374AFB795354344B1B780C
:1012C0000133DAB2324B1A70314B1B78202B54D1D8
:1012D0003148FFF76BFBFFF7B7FB03461A462F4B6E
:1012E0001A702E4B1B78FF2BF5D02C4B1B78012B43
:1012F00010D14FF40040FFF7AFFC4FF48050FFF7E0
:10130000BBFC4FF48040FFF7B7FC4FF40050FFF7F1
:10131000B3FC24E0214B1B78002B10D14FF480400C
:10132000FFF79AFC4FF48050FFF7A6FC4FF4004003
:10133000FFF7A2FC4FF40050FFF79EFC0FE04FF4C4
:101340000050FFF789FC4FF48050FFF795FC4FF4F5
:101350008040FFF791FC4FF40040FFF78DFC002028
:10136000FFF7E6FC00BFFFF7D7FC02464CF24F3315
:101370009A42F8D9064B00221A70044840F22551CF
:10138000FFF7C0F80837BD4680BD00BF0010014020
:101390005D00002068000020100000206400002094
:1013A00080B500AFFFF7ECFEFFF710FFFFF736FF49
:1013B00034483549FFF744FFFFF786FCFFF730FC60
:1013C00001202021FFF760F901200021FFF7E8FB51
:1013D0002E48FFF7E1F92E48FFF7F4F92D48FFF703
:1013E000E5FAFFF731FB03461A462B4B1A702A4BDE
:1013F0001B78FF2BF5D0284B1B78012B10D14FF415
:101400000040FFF729FC4FF48050FFF735FC4FF404
:101410008040FFF731FC4FF40050FFF72DFC24E033
:101420001D4B1B78002B10D14FF48040FFF714FCAC
:101430004FF48050FFF720FC4FF40040FFF71CFCF6
:101440004FF40050FFF718FC0FE04FF40050FFF787
:1014500003FC4FF48050FFF70FFC4FF48040FFF780
:101460000BFC4FF40040FFF707FC0020FFF760FC87
:1014700000BFFFF751FC02464CF24F339A42F8D9B5
:10148000ACE700BF00100140781B000808000020F6
:1014900000000020100000206400002080B483B011
:1014A00000AF0346FB71054B00221A70034AFB791B
:1014B00013700C37BD465DF8047B7047023802405C
:1014C00080B582B000AF00233B600023FB71002396
:1014D000BB71312000F020F90346BB713B6801333A
:1014E0003B603B68B3F5A06F02D0BB79002BF0D016
:1014F000312000F011F90346002B02D00123FB71CB
:1015000001E00023FB71FB7918460837BD4680BD1A
:1015100080B489B000AF78600023BB6100237B6199
:101520000023FB6102233B610023FB600223BB60BD
:10153000484B9B6803F00C03BB61BB69042B07D0CD
:10154000082B09D0002B3FD17B68434A1A603FE04B
:101550007B68424A1A603BE03E4B5B6803F48003C1
:101560009B0DFB603B4B5B6803F03F03BB60FB687C
:10157000002B0DD0394ABB68B2FBF3F2354B5968EA
:1015800047F6C0730B409B0903FB02F3FB610CE0C1
:10159000314ABB68B2FBF3F22E4B596847F6C07371
:1015A0000B409B0903FB02F3FB612A4B5B6803F4CE
:1015B00040331B0C01335B003B61FA693B69B2FBB2
:1015C000F3F27B681A6003E07B68234A1A6000BF6D
:1015D000204B9B6803F0F003BB61BB691B09BB6137
:1015E0001F4ABB6913441B78DBB27B617B681A68B6
:1015F0007B69DA407B685A60164B9B6803F4E053C2
:10160000BB61BB699B0ABB61154ABB6913441B786C
:10161000DBB27B617B685A687B69DA407B689A60E1
:101620000C4B9B6803F46043BB61BB695B0BBB6104
:101630000B4ABB6913441B78DBB27B617B685A6839
:101640007B69DA407B68DA602437BD465DF8047B4D
:10165000704700BF003802400024F40040787D014C
:101660003000002080B483B000AF78600B46FB7080
:10167000FB78002B06D00949084B1A6B7B68134393
:101680000B6306E00549054B1A6B7B68DB4313408F
:101690000B630C37BD465DF8047B70470038024091
:1016A00080B483B000AF78600B46FB70FB78002BF2
:1016B00006D00949084B1A6C7B6813430B6406E09B
:1016C0000549054B1A6C7B68DB4313400B640C37F0
:1016D000BD465DF8047B70470038024080B483B09B
:1016E00000AF78600B46FB70FB78002B06D00949F1
:1016F000084B5A6C7B6813434B6406E00549054B65
:101700005A6C7B68DB4313404B640C37BD465DF875
:10171000047B70470038024080B487B000AF0346B6
:10172000FB710023FB6000237B610023FB74FB79CA
:101730005B09DBB2FB60FB68012B03D1124B1B681A
:101740007B6109E0FB68022B03D10F4B1B6F7B61B0
:1017500002E00D4B5B6F7B61FB7903F01F03FB60C5
:10176000FB687A6922FA03F303F00103002B02D02D
:101770000123FB7401E00023FB74FB7C18461C373B
:10178000BD465DF8047B70470038024080B487B0E6
:1017900000AF7860396000237B6100233B61002348
:1017A000FB6000237B6176E07B69012202FA03F390
:1017B0003B613B681A683B691340FB60FA683B6910
:1017C0009A4265D17B681A687B695B0019460323DE
:1017D0008B40DB431A407B681A607B681A683B6861
:1017E0001B7919467B695B0001FA03F31A437B6896
:1017F0001A603B681B79012B03D03B681B79022BD5
:101800002ED17B689A687B695B00194603238B4065
:10181000DB431A407B689A607B689A683B685B7917
:1018200019467B695B0001FA03F31A437B689A60EF
:101830007B685A687B699BB2194601238B40DB4366
:101840001A407B685A607B685B683A6892791146F7
:101850007A6992B201FA02F292B21A437B685A6034
:101860007B68DA687B699BB25B00032101FA03F3B2
:10187000DB431A407B68DA607B68DA683B68DB79B7
:1018800019467B695B0001FA03F31A437B68DA604F
:101890007B6901337B617B690F2B85D91C37BD4682
:1018A0005DF8047B704700BF80B483B000AF786000
:1018B0000B467B807B687A881A830C37BD465DF8BF
:1018C000047B704780B483B000AF78600B467B80A8
:1018D0007B687A885A830C37BD465DF8047B704775
:1018E00080B485B000AF78600B467B8013467B7078
:1018F0000023FB600023BB607B787A8802F007023C
:1019000092009340FB607B88DB089BB218467B8883
:10191000DB089BB21A467B68083253F822207B888A
:1019200003F007039B0019460F238B40DB4302EAB9
:1019300003017B6800F1080243F822107B88DB0872
:101940009BB21A467B68083253F82220FB68134387
:10195000BB607B88DB089BB21A467B680832B9689B
:1019600043F822101437BD465DF8047B704700BF72
:1019700080B485B000AF786039600023FB817B685C
:101980001B88FB81FB8903F44153FB813B681A8868
:101990003B685B8813439AB23B689B8813439AB2B7
:1019A0003B68DB8813439AB23B681B8913439AB2A6
:1019B0003B685B8913439AB23B689B8913439AB295
:1019C0003B68DB8913439AB2FB891343FB817B6835
:1019D000FA891A807B689B8B9BB223F400639AB2CE
:1019E0007B689A833B681A8A7B681A821437BD46E3
:1019F0005DF8047B704700BF80B483B000AF7860AF
:101A00007B6800221A807B6800225A807B68002253
:101A10009A807B680022DA807B6800221A817B68CA
:101A200000225A817B6800229A817B680022DA8139
:101A30007B6807221A820C37BD465DF8047B70472D
:101A400080B483B000AF78600B46FB70FB78002B4E
:101A500008D07B681B889BB243F040039AB27B6836
:101A60001A8007E07B681B889BB223F040039AB280
:101A70007B681A800C37BD465DF8047B704700BF59
:101A800080B485B000AF78600B467B800023FB7389
:101A90007B681B899AB27B8813409BB2002B02D0D3
:101AA0000123FB7301E00023FB73FB7B1846143713
:101AB000BD465DF8047B704780B485B000AF7860A8
:101AC0000023FB730023BB730F237B737B68DB78DE
:101AD000002B38D0264BDB68DB4303F4E0631B0AA2
:101AE000FB73FB7BC3F10403BB737A7BFB7B42FA82
:101AF00003F37B737B685B781A46BB7B02FA03F3C4
:101B0000FB737B689A787B7B1340DAB2FB7B1343D1
:101B1000FB73FB7B1B01FB73164A7B681B7813442A
:101B2000FA7B83F80023134A7B681B785B09DBB2DE
:101B300018467B681B7803F01F03012101FA03F3A9
:101B400042F820300FE00B497B681B785B09DBB261
:101B500018467B681B7803F01F0301229A4000F1AE
:101B6000200341F823201437BD465DF8047B7047FD
:101B700000ED00E000E100E0496E697420636F6DE4
:101B8000706C657465212048656C6C6F20576F72AE
:081B90006C64210D0A00000045
:101B9800C2C2C2C2C2000000E7E7E7E7E7000000F0
:101BA8000164646464003264326400326432640044
:101BB80032643264003264326400000000000000C5
:101BC80000000000010203040102030406070809DB
:101BD800007A030A0000000000000000010203046C
:041BE80006070809DB
:0400000508000000EF
:00000001FF
