:020000040800F2
:10000000580800200502000861020008610200088B
:10001000610200086102000861020008000000009F
:100020000000000000000000000000006102000865
:100030006102000800000000610200084108000899
:100040006102000861020008610200086102000804
:1000500061020008610200086102000861020008F4
:1000600061020008610200086102000861020008E4
:1000700061020008610200086102000861020008D4
:1000800061020008610200086102000861020008C4
:1000900061020008610200086102000861020008B4
:1000A00061020008610200086102000861020008A4
:1000B0006102000861020008610200086102000894
:1000C0006102000861020008610200086102000884
:1000D0006102000861020008610200086102000874
:1000E000CD0D0008610200086102000861020008ED
:1000F0006102000861020008610200086102000854
:100100006102000861020008610200086102000843
:100110006102000861020008610200086102000833
:100120006102000861020008610200086102000823
:100130006102000861020008610200086102000813
:100140006102000861020008610200086102000803
:1001500061020008610200086102000861020008F3
:1001600061020008610200086102000861020008E3
:1001700061020008610200086102000861020008D3
:10018000610200086102000890B484B000AF02462A
:100190000B46FA71BB710023FB60BB7903F00303CC
:1001A0009B000F2202FA03F3FB60154BBA79920809
:1001B000D2B21349B8798008C0B2023051F8200099
:1001C000F968C9430140023243F822100C4BBA7956
:1001D0009208D2B20A49B8798008C0B2023051F808
:1001E0002000FC79B97901F00301890004FA01F1DA
:1001F0000143023243F822101037BD4690BC7047CD
:100200000038014080B582B000AF104B7B60104BCE
:100210003B6007E03B681A1D3A607A68111D7960FF
:1002200012681A603A680B4B9A42F3D30A480B499A
:100230004FF000028842B8BF40F8042BFFF6FAAF37
:1002400000F00CFE0837BD4680BD00BF78150008E1
:10025000000000204400002044000020580000203E
:1002600080B400AFFEE700BF80B483B000AF0346A8
:10027000FB71094B97F907205209F97901F01F0129
:10028000012000FA01F1603243F822100C37BD461C
:100290005DF8047B704700BF00E100E080B582B0EC
:1002A00000AF0820012100F0F9FD01233B7100237C
:1002B000BB710023FB7103237B7180233B603B46B2
:1002C0000A48194600F044FE4FF480733B603B46F9
:1002D0000648194600F03CFE044B4FF480725A83E6
:1002E000024B80221A830837BD4680BD000C0240B5
:1002F00080B582B000AF02460B46FA71BB71FFF7C2
:10030000CDFF3B48012100F0B3FABB79202B01D986
:100310002023BB71374BFA795A70364BBA791A7071
:10032000344B03229A70334B0022DA7000F07AF9D2
:10033000FB790520194600F0DBF82E4B1B781120C5
:10034000194600F0D5F82B4B1B781220194600F007
:10035000CFF8284B1B781320194600F0C9F8254B1D
:100360001B781420194600F0C3F8224B1B78152087
:10037000194600F0BDF81F4B1B781620194600F0F7
:10038000B7F81C4BDA781B4B9B781046194600F0E7
:10039000DBF90020082100F0ABF801203F2100F03C
:1003A000A7F802203F2100F0A3F804204F2100F01D
:1003B0009FF81C20002100F09BF80F4B80225A83ED
:1003C0000B48E12100F07EFA0B4B80221A830A4B86
:1003D00080225A830648E22100F074FA064B8022FC
:1003E0001A8300F0D1F8012318460837BD4680BDB6
:1003F000003C004054000020000C024080B582B058
:1004000000AF7860074B4FF480725A830B207968F5
:10041000052200F091F8034B4FF480721A830837DD
:10042000BD4680BD000C024080B582B000AF786050
:100430000A207968052200F07FF8102079680522EB
:1004400000F07AF80837BD4680BD00BF80B584B0A3
:1004500000AF13460246FA710A46BA717B71FB7906
:10046000184600F023F80346FB737B79002B09D074
:10047000BB79012202FA03F3DAB2FB7B1343DBB24E
:10048000FB730AE0BB79012202FA03F3DBB2DB4320
:10049000DAB2FB7B1340DBB2FB73FA79FB7B1046CD
:1004A000194600F025F81037BD4680BD80B584B0F0
:1004B00000AF0346FB710C4B80225A83FB7903F09B
:1004C0001F03DBB20948194600F0FCF90748FF2179
:1004D00000F0F8F90346FB73034B80221A83FB7B81
:1004E00018461037BD4680BD000C0240003C00405D
:1004F00080B582B000AF02460B46FA71BB710C4B5F
:1005000080225A83FB7903F01F03DBB243F0200300
:10051000DBB20848194600F0D5F9BB790548194601
:1005200000F0D0F9024B80221A830837BD4680BD07
:10053000000C0240003C004080B582B000AF396042
:1005400013460246FA71BB710D4B80225A83FB7928
:1005500003F01F03DBB243F02003DBB20948194666
:1005600000F0B0F9BB799BB2064839681A4600F032
:10057000F5F9034B80221A830837BD4680BD00BFC2
:10058000000C0240003C004080B500AF124B8022BE
:100590005A831248E22100F095F90F4B80221A830A
:1005A000072004210122FFF751FF07200521012226
:1005B000FFF74CFF072006210122FFF747FF064BFC
:1005C0004FF480725A8300200B21FFF791FF024BFA
:1005D0004FF480721A8380BD000C0240003C004042
:1005E00080B582B000AF78600B4B80225A830B48F5
:1005F000612100F067F90A4B1B78084879687A682E
:1006000000F08AF9044B80221A8307204021FFF76B
:100610006FFF0837BD4680BD000C0240003C004023
:100620005400002080B582B000AF00200821FFF701
:100630005FFF01203F21FFF75BFF02200321FFF74F
:1006400057FF03200321FFF753FF04200321FFF787
:100650004FFF05200221FFF74BFF06200E21FFF779
:1006600047FF07200E21FFF743FF08200021FFF777
:100670003FFF09200021FFF73BFFE7233B70E72303
:100680007B70E723BB70E723FB70E7233B713B469E
:100690000A2019460522FFF74FFFC2233B70C223F1
:1006A0007B70C223BB70C223FB70C2233B713B46ED
:1006B0000B2019460522FFF73FFF0C20C321FFF74F
:1006C00017FF0D20C421FFF713FF0E20C521FFF7F0
:1006D0000FFF0F20C621FFF70BFFE7233B70E72337
:1006E0007B70E723BB70E723FB70E7233B713B463E
:1006F000102019460522FFF71FFF11200021FFF7E8
:10070000F7FE12200021FFF7F3FE13200021FFF770
:10071000EFFE14200021FFF7EBFE15200021FFF76C
:10072000E7FE16200021FFF7E3FE17201121FFF757
:10073000DFFE1C200021FFF7DBFE1D200021FFF75C
:10074000D7FE0837BD4680BD80B584B000AF0246F5
:100750000B46FA71BB710023FB731A4BFA79DA70FE
:10076000184BBA799A70FB79002B04D1FB7B43F0CC
:100770000803FB7306E0FB79022B03D1FB7B43F0FC
:100780002003FB73BB79032B04D1FB7B43F00603EF
:10079000FB730EE0BB79022B04D1FB7B43F0040317
:1007A000FB7306E0BB79012B03D1FB7B43F0020313
:1007B000FB73FB7B06201946FFF79AFE1037BD46F8
:1007C00080BD00BF5400002080B582B000AF08207B
:1007D000012100F063FB4FF470433B600023BB71C9
:1007E00001233B710023FB7103237B713B460348CC
:1007F000194600F0ADFB0837BD4680BD000C024035
:1008000080B582B000AF0346FB80FB8803481946E1
:1008100000F02CFC0837BD4680BD00BF000C024034
:1008200080B582B000AF0346FB80FB8803481946C1
:1008300000F02AFC0837BD4680BD00BF000C024016
:1008400080B400AF084B1B685A1C074B1A60074B5B
:100850001B68002B04D0054B1B685A1E034B1A6003
:10086000BD465DF8047B704748000020440000202E
:1008700080B582B000AF78600B46FB707A680E4B93
:100880009A4204D1FB78184600F084F810E07A68A8
:100890000A4B9A4204D1FB78184600F0F9F807E0B9
:1008A0007A68074B9A4203D1FB78184600F09EF90C
:1008B0000837BD4680BD00BF003001400038004011
:1008C000003C004080B582B000AF78600B46FB7002
:1008D000FB789AB27B689A8100BF7868022100F0A9
:1008E00055FD0346002BF8D000BF7868012100F0C9
:1008F0004DFD0346002BF8D000BF7868802100F042
:1009000045FD0346002BF8D17B689B899BB2DBB287
:1009100018460837BD4680BD90B587B000AFF86077
:10092000B9607A607B800023FB820FE0FB8A7A68E3
:10093000D418FB8ABA6813441B78F8681946FFF785
:10094000C1FF03462370FB8A0133FB82FA8A7B884E
:100950009A42EBD31C37BD4690BD00BF80B586B030
:1009600000AFF860B9601346FB800023FB820AE009
:10097000FB8ABA6813441B78F8681946FFF7A2FF90
:10098000FB8A0133FB82FA8AFB889A42F0D318373C
:10099000BD4680BD80B58AB000AF0346FB71002321
:1009A00087F82630002387F82730032387F825307F
:1009B000022387F82430FB79002B1BD10120012171
:1009C00000F06CFAE0233B6207F120032D48194642
:1009D00000F0BEFA2B480521052200F063FB2948F0
:1009E0000621052200F05EFB26480721052200F0C3
:1009F00059FB1DE0FB79012B1AD10220012100F0E7
:100A00004DFA38233B6207F120031F48194600F0D6
:100A10009FFA1D480321052200F044FB1A480421D7
:100A2000052200F03FFB18480521052200F03AFBA3
:100A30004FF48050012100F06DFA07F10C031846C5
:100A400000F060FC20233B8300233B820023BB811A
:100A500000237B834FF48273FB8100237B8200237E
:100A6000BB824FF40073FB8207F10C030748194661
:100A700000F004FC0548012100F068FC2837BD4661
:100A800080BD00BF00000240000402400030014071
:100A900080B58AB000AF0346FB71002387F826308B
:100AA000012387F82730032387F82530022387F8AE
:100AB0002430FB79002B28D10220012100F0EEF92F
:100AC0000420012100F0EAF90C233B6207F1200326
:100AD0004248194600F03CFA4FF480633B6207F14C
:100AE00020033F48194600F033FA3C480221052212
:100AF00000F0D8FA39480321052200F0D3FA38482B
:100B00000A21052200F0CEFA3EE0FB79012B1CD130
:100B10000220012100F0C2F94FF460433B6207F16B
:100B200020032F48194600F013FA2D480D21052205
:100B300000F0B8FA2A480E21052200F0B3FA28483E
:100B40000F21052200F0AEFA1EE0FB79022B1BD12B
:100B50004FF48070012100F0A1F90D233B6207F1F1
:100B600020031F48194600F0F3F91E480021052212
:100B700000F098FA1B480221052200F093FA194868
:100B80000321052200F08EFA4FF48040012100F08D
:100B9000A3F907F10C03184600F0B4FB20233B83B4
:100BA00000233B820023BB8100237B834FF48273AD
:100BB000FB8100237B820023BB824FF40073FB8206
:100BC00007F10C030848194600F058FB06480121BC
:100BD00000F0BCFB2837BD4680BD00BF00080240C6
:100BE00000040240002002400038004080B58AB076
:100BF00000AF0346FB71002387F82630002387F8F7
:100C00002730032387F82530022387F82430FB7927
:100C1000002B1BD10220012100F040F938233B6258
:100C200007F120032D48194600F092F92B480321C3
:100C3000062200F037FA29480421062200F032FA91
:100C400026480521062200F02DFA1EE0FB79012B33
:100C50001BD10420012100F021F94FF4E0533B6245
:100C600007F120031E48194600F072F91C480A21BA
:100C7000062200F017FA1A480B21062200F012FA99
:100C800017480C21062200F00DFA4FF40040012114
:100C900000F022F907F10C03184600F033FB202383
:100CA0003B8300233B820023BB8100237B834FF4E3
:100CB0008273FB8100237B820023BB824FF400738D
:100CC000FB8207F10C030748194600F0D7FA0548E4
:100CD000012100F03BFB2837BD4680BD00040240E7
:100CE00000080240003C004080B485B000AF78604E
:100CF0000123BB600023FB6011E0FB680D4AD35C5D
:100D0000DAB2FB6879680B441B789A4202D0002360
:100D1000BB6007E00123BB60FB680133FB60FB683D
:100D20001F2BEADDBB6818461437BD465DF8047B0F
:100D3000704700BF5000002080B582B000AF042093
:100D4000012100F0ABF800233B710023BB714FF48D
:100D500000533B600123FB7101237B713B46034839
:100D6000194600F0F5F80837BD4680BD000802407E
:100D700080B582B000AF28233B7100237B71002334
:100D8000BB710123FB713B1D184600F097FB083730
:100D9000BD4680BD80B582B000AF4FF480400121D8
:100DA00000F0B8F802200D21FFF7EEF94FF40053E0
:100DB0003B6000233B710C237B710123BB713B46DD
:100DC000184600F0FFFA0837BD4680BD80B500AF79
:100DD0001F4B1B6803F40053002B38D01C4B5B697E
:100DE00003F40053002B32D01A48FFF7F9FBFFF74A
:100DF000CBFB1948FFF778FF0346002B10D04FF4C8
:100E00008050FFF7FDFC4FF40040FFF709FD4FF461
:100E10000050FFF705FD4FF48040FFF701FD0FE0A4
:100E20004FF40050FFF7ECFC4FF48040FFF7E8FC74
:100E30004FF48050FFF7E4FC4FF40040FFF7E0FC74
:100E40004FF4005000F02CFB2820FFF70DFA80BD76
:100E5000003C0140500000201000002080B500AF91
:100E600000F066F9FFF7B0FCFFF766FFFFF792FFAF
:100E7000FFF77EFF01202021FFF73AFA022003212D
:100E8000FFF762FC0348FFF7B9FA0348FFF7CCFA13
:100E9000FEE700BF000000200800002080B483B0FF
:100EA00000AF78600B46FB70FB78002B06D0094B37
:100EB000084A116B7A680A431A6306E0054B054A33
:100EC000116B7A68D2430A401A630C37BD465DF84D
:100ED000047B70470038024080B483B000AF786074
:100EE0000B46FB70FB78002B06D0094B084A116CAF
:100EF0007A680A431A6406E0054B054A116C7A6861
:100F0000D2430A401A640C37BD465DF8047B704733
:100F10000038024080B483B000AF78600B46FB70AD
:100F2000FB78002B06D0094B084A516C7A680A43BB
:100F30005A6406E0054B054A516C7A68D2430A4070
:100F40005A640C37BD465DF8047B70470038024098
:100F500080B487B000AF7860396000237B610023E4
:100F60003B610023FB6000237B6176E07B6901220B
:100F700002FA03F33B613B681A683B691340FB606C
:100F8000FA683B699A4265D17B681A687B695B00A5
:100F9000032101FA03F3DB431A407B681A607B6884
:100FA0001A683B681B7919467B695B0001FA03F3F9
:100FB0001A437B681A603B681B79012B03D03B689E
:100FC0001B79022B2ED17B689A687B695B00032119
:100FD00001FA03F3DB431A407B689A607B689A68E6
:100FE0003B685B7919467B695B0001FA03F31A439E
:100FF0007B689A607B685A687B699BB2012101FA21
:1010000003F3DB431A407B685A607B685A683B688D
:101010009B7919467B699BB201FA03F39BB21A4391
:101020007B685A607B68DA687B699BB25B0003214E
:1010300001FA03F3DB431A407B68DA607B68DA6805
:101040003B68DB7919467B695B0001FA03F31A43BD
:101050007B68DA607B6901337B617B690F2B85D903
:101060001C37BD465DF8047B704700BF80B483B079
:1010700000AF78600B467B807B687A881A830C37D8
:10108000BD465DF8047B704780B483B000AF7860E4
:101090000B467B807B687A885A830C37BD465DF8A7
:1010A000047B704780B485B000AF786013460A4671
:1010B0007A807B700023FB600023BB607A787B889A
:1010C00003F007039B0002FA03F3FB607B88DB0855
:1010D0009BB21A467B88DB089BB219467B680831B5
:1010E00053F821107B8803F007039B000F2000FAC0
:1010F00003F3DB4319407B68083243F822107B88F6
:10110000DB089BB21A467B68083253F82220FB6842
:101110001343BB607B88DB089BB21A467B680832AE
:10112000B96843F822101437BD465DF8047B704758
:1011300080B500AF114B114A126842F001021A60EB
:101140000E4B00229A600D4A0C4B1B6823F08473EF
:1011500023F480331360094B094A5A60074B074A4E
:10116000126822F480221A60044B0022DA6000F038
:101170000BF8044B4FF000629A6080BD00380240CB
:101180001030002400ED00E080B483B000AF0023F5
:101190007B6000233B60354B344A126842F4803256
:1011A0001A60324B1B6803F400333B607B680133E9
:1011B0007B603B68002B03D17B68B3F5A06FF0D157
:1011C0002A4B1B6803F40033002B02D001233B6041
:1011D00001E000233B603B68012B42D1234B234AB3
:1011E000126C42F080521A64214B214A126842F478
:1011F00080421A601D4B1D4A92689A601B4B1B4A25
:10120000926842F400429A60184B184A926842F47D
:10121000A0529A60154B174A5A60144B134A126831
:1012200042F080721A6000BF104B1B6803F000731D
:10123000002BF9D0104B40F205621A600B4B0B4AA1
:10124000926822F003029A60084B084A926842F0C2
:1012500002029A6000BF054B9B6803F00C03082B49
:10126000F9D10C37BD465DF8047B70470038024069
:101270000070004019544007003C024080B485B023
:1012800000AF786039600023FB817B681B88FB819D
:10129000FB8903F44153FB813B681A883B685B88F8
:1012A00013439AB23B689B8813439AB23B68DB882E
:1012B00013439AB23B681B8913439AB23B685B891C
:1012C00013439AB23B689B8913439AB23B68DB890C
:1012D00013439AB2FB891343FB817B68FA891A8016
:1012E0007B689B8B9BB223F400639AB27B689A83E2
:1012F0003B681A8A7B681A821437BD465DF8047B06
:10130000704700BF80B483B000AF78607B68002274
:101310001A807B6800225A807B6800229A807B6852
:101320000022DA807B6800221A817B6800225A81C1
:101330007B6800229A817B680022DA817B68072221
:101340001A820C37BD465DF8047B704780B483B0C9
:1013500000AF78600B46FB70FB78002B08D07B68F1
:101360001B889BB243F040039AB27B681A8007E067
:101370007B681B889BB223F040039AB27B681A807B
:101380000C37BD465DF8047B704700BF80B485B064
:1013900000AF78600B467B800023FB737B681B8962
:1013A0009AB27B8813409BB2002B02D00123FB73BF
:1013B00001E00023FB73FB7B18461437BD465DF844
:1013C000047B704780B485B000AF78600023FB6079
:1013D000324BFB607B689B79002B4DD02F4B2F4A03
:1013E00011687A681268D2430A401A602B4B2B4A64
:1013F00051687A681268D2430A405A607B681B7948
:10140000FA681344FB60FB68FA6811687A6812682E
:101410000A431A60214B214A91687A681268D243C4
:101420000A409A601D4B1D4AD1687A681268D243FF
:101430000A40DA607B685B79102B0ED1174B174A94
:1014400091687A6812680A439A60144B134AD1680B
:101450007A6812680A43DA601BE0104BFB607B6815
:101460005B79FA681344FB60FB68FA6811687A6874
:1014700012680A431A600CE07B681B79FA6813440F
:10148000FB60FB68FA6811687A681268D2430A4008
:101490001A601437BD465DF8047B7047003C01407C
:1014A00080B483B000AF7860034B7A685A610C3720
:1014B000BD465DF8047B7047003C014080B485B0B8
:1014C00000AF78600023FB730023BB730F237B7393
:1014D0007B68DB78002B37D0254BDB68DB4303F4DC
:1014E000E0631B0AFB73FB7BC3F10403BB737A7BD2
:1014F000FB7B42FA03F37B737B685B781A46BB7B0A
:1015000002FA03F3FB737B689A787B7B1340DAB2B1
:10151000FB7B1343FB73FB7B1B01FB73154A7B684F
:101520001B781344FA7B83F80023124B7A681278F5
:101530005209D2B27968097801F01F01012000FA3E
:1015400001F143F822100EE00A4B7A681278520932
:10155000D2B27968097801F01F01012000FA01F187
:10156000203243F822101437BD465DF8047B7047E3
:0815700000ED00E000E100E0E5
:10157800C2C2C2C2C2000000E7E7E7E7E700000016
:10158800616263646162636461626364616263642B
:10159800616263646162636461626364616263641B
:1015A800616263646162636461626364616263640B
:0415B80061626364A5
:0400000508000000EF
:00000001FF
