:020000040800F2
:10000000480C0020ED0100085902000833090008DF
:1000100059020008590200085902000800000000B7
:10002000000000000000000000000000590200086D
:100030005902000800000000590200085902000897
:100040005902000859020008590200085902000824
:100050005902000859020008590200085902000814
:100060005902000859020008590200085902000804
:1000700059020008590200085902000859020008F4
:1000800059020008590200085902000859020008E4
:1000900059020008590200085902000859020008D4
:1000A00059020008590200085902000859020008C4
:1000B00059020008590200085902000859020008B4
:1000C00059020008590200085902000859020008A4
:1000D0005902000859020008590200085902000894
:1000E0005902000859020008590200085902000884
:1000F0005902000859020008590200085902000874
:100100005902000859020008590200085902000863
:100110005902000859020008590200085902000853
:100120005902000859020008590200085902000843
:100130005902000859020008590200085902000833
:100140005902000859020008590200085902000823
:100150005902000859020008590200085902000813
:100160005902000859020008590200085902000803
:1001700059020008590200085902000859020008F3
:10018000590200085902000880B582B000AF7860BB
:10019000144B1B785A1CD1B2124A11707A68D1B232
:1001A000114AD1540F4B1B780F4A0021D1540D4BEB
:1001B0001B7801330F2B05D87B680A2B02D07B6894
:1001C000002B0CD1074B00221A70074B0420194654
:1001D000002200F0A3FB0346002B00D000BF08372D
:1001E000BD4680BD400400203004002080B582B0B0
:1001F00000AF134B7B60134B3B6007E03B681A1D5D
:100200003A607A68111D796012681A603A680E4B7C
:100210009A42F3D30D480E494FF000028842B8BF0E
:1002200040F8042BFFF6FAAFDFF82800016841F42C
:100230007001016000F014F80837BD4680BD00BFB2
:100240007409000800000020300400203004002061
:100250004404002088ED00E080B400AFFEE700BF5A
:1002600080B582B000AF38237B600448796800F025
:10027000FDFA0A20FFF788FFF7E700BF4C090008E6
:1002800080B582B000AF0346FB71FB791846FFF7DB
:100290007BFF0837BD4680BD80B483B000AF786077
:1002A0000B46FB707B68FA781A70012318460C37EE
:1002B000BD465DF8047B704780B485B000AF7860C0
:1002C00039600023FB600AE07B685A1C7A603A6858
:1002D000511C396012781A70FB680133FB603B686F
:1002E0001B78002BF0D1FB6818461437BD465DF82B
:1002F000047B704780B586B000AFF8607A603B60E1
:100300000B46FB7200237B617B68013B7B603B6893
:10031000092B10D93A681E4BA3FB0213DB08FA7AAB
:10032000F86811467A68FFF7E5FF78617B69FA683B
:100330001344FB6011E00DE0FB7AF8681946FFF703
:10034000ABFFFB680133FB607B6901337B617B683A
:10035000013B7B607B68002BEEDC39680C4BA3FB18
:100360000123DA0813469B0013445B00CA1AD3B278
:100370003033DBB2F8681946FFF78EFF03467A691F
:1003800013447B617B6918461837BD4680BD00BFAA
:10039000CDCCCCCC80B586B000AFF8607A603B6045
:1003A0000B46FB7200237B613B68002B03DA3B6842
:1003B0005B423B6101E03B683B617B68013B7B60EA
:1003C0003B69092B21D93B68002B0DDA3A692F4B89
:1003D000A3FB0213DB085B42FA7AF86811467A68DD
:1003E000FFF7D8FF78610BE03A69284BA3FB0213B3
:1003F000DB08FA7AF86811467A68FFF7CBFF786174
:100400007B69FA681344FB6026E03B68002B03DA43
:100410007B68013B7B600EE00DE0FB7AF8681946D3
:10042000FFF73AFFFB680133FB607B6901337B61B7
:100430007B68013B7B607B68002BEEDC3B68002B1C
:100440000ADAF8682D21FFF727FF03467A6913447B
:100450007B61FB680133FB6039690C4BA3FB012313
:10046000DA0813469B0013445B00CA1AD3B2303338
:10047000DBB2F8681946FFF70FFF03467A691344A9
:100480007B617B6918461837BD4680BDCDCCCCCC8E
:1004900080B588B002AFF8607A600A46FA72BB7223
:1004A00000237B617B68013B7B603B6A1B09002B5F
:1004B00012D03B6A1909FA7ABB7A0091F8681146A2
:1004C0007A68FFF7E5FF03467A6913447B617B692D
:1004D000FA681344FB6011E00DE0FB7AF8681946F6
:1004E000FFF7DAFEFB680133FB607B6901337B6158
:1004F0007B68013B7B607B68002BEEDC3B6A03F092
:100500000F03092B0BD83B6ADBB203F00F03DBB2FE
:100510003033DBB2F8681946FFF7BEFE19E0BB7A4C
:10052000002B0BD03B6ADBB203F00F03DBB2373397
:10053000DBB2F8681946FFF7AFFE0AE03B6ADBB2B0
:1005400003F00F03DBB25733DBB2F8681946FFF74D
:10055000A3FE7B6901337B617B6918461837BD4672
:1005600080BD00BF80B58AB002AFF860B9607A6024
:100570003B600023BB6100237B61FB68002B03D041
:10058000FB6800221A70F8E0F7E07B681B78252BE7
:100590000BD0FB685A1CFA607A68511C796012789B
:1005A0001A707B6901337B61E7E07B6801331B785C
:1005B000252B0BD1FB685A1CFA6025221A707B6828
:1005C00002337B607B6901337B61D6E02023FB77BC
:1005D0000023BB777B6801337B607B681B78302B03
:1005E00005D13023FB777B6801337B600FE00EE0A1
:1005F000BB7F1A46920013445B00DAB27B681B781B
:100600001344DBB2303BBB777B6801337B607B6894
:100610001B782F2B03D97B681B78392BE8D9BA7F3D
:100620007B6913441A46BB689A4205D9BB68DAB2A3
:100630007B69DBB2D31ABB777B681B78583B202BD6
:1006400000F28D8001A252F823F000BF19070008C4
:100650005F0700085F0700085F0700085F070008E2
:100660005F0700085F0700085F0700085F070008D2
:100670005F0700085F07000849070008D106000867
:100680005F0700085F0700085F0700085F070008B2
:10069000D10600085F0700085F0700085F07000831
:1006A0005F0700085F0700085F0700085F07000892
:1006B0005F0700085F070008350700085F070008AC
:1006C000E70600085F0700085F070008FD0600084E
:1006D000BA7F3B68191D39601B68F97FF868FFF71E
:1006E00059FEB8613EE0BA7F3B68191D39601B684E
:1006F000F97FF868FFF7FEFDB86133E0BA7F3B6829
:10070000191D39601968FB7F0091F86819460023AC
:10071000FFF7BEFEB86125E0BA7F3B68191D39605E
:100720001968FB7F0091F86819460123FFF7B0FEB6
:10073000B86117E03B681A1D3A601B68F8681946F3
:10074000FFF7BAFDB8610DE03B681A1D3A601B68FF
:10075000DBB2F8681946FFF79FFDB86102E04FF081
:10076000FF3325E07B6801337B60BB69FA68134483
:10077000FB607A69BB6913447B617B681B78002B43
:1007800004D07A69BB689A42FFF4FFAE7A69BB680D
:100790009A4203D2FB6800221A7008E0FB68013B12
:1007A000FB60FB6800221A707B69013B7B617B69FF
:1007B00018462037BD4680BD80B584B000AFF860D4
:1007C000B9607A60F8686421BA687B68FFF7CAFE8E
:1007D000034618461037BD4680BD00BFB0B5A6B071
:1007E00000AFF860B9607A60144B07F110041D4641
:1007F0000FCD0FC40FCD0FC42B68236007F1340356
:100800001846B9687A68FFF7D7FF0346632B09DDFE
:100810000B4B1B68DB6807F110021046194600F00D
:1008200059F8FEE707F134031846F96800F052F86A
:10083000034618469837BD46B0BD00BF50090008B2
:100840002804002080B582B000AF78603960064B84
:100850001B689B68184679683A68FFF7BFFF034634
:1008600018460837BD4680BD280400200FB480B567
:1008700082B000AF07F114033B6038693968FFF7B5
:10088000E1FF78607B6818460837BD46BDE88040C8
:1008900004B0704780B582B000AF786039600C4B0F
:1008A0001B689A683B689A4205D0094B1B68DA6856
:1008B0003B689A4206D17B68DBB21846FFF7E0FC42
:1008C0007B6801E04FF0FF3318460837BD4680BD16
:1008D0002804002080B584B000AF78603960002320
:1008E000FB6012E07B681B7818463968FFF7D2FF7F
:1008F0000346B3F1FF3F02D14FF0FF330AE0FB683C
:100900000133FB607B6801337B607B681B78002BC5
:10091000E8D1FB6818461037BD4680BDABBE00F07D
:1009200002B800207047002A00F00180106001200A
:10093000704706980188044A914240F003800430D1
:1009400006907047FEE70000ABBE00002564000083
:10095000737464696F2E633A20696E6372656173A4
:1009600065204D41585F535452494E475F53495A91
:04097000450A0D0027
:100974000000000000000000010000000000000072
:100984000000000000000000000000000000000063
:100994000000000000000000000000000000000053
:1009A4000000000000000000000000000000000043
:1009B4000000000000000000000000000000000033
:100D9400000000000000000000000020000000002F
:0400000508000000EF
:00000001FF
