:020000040800F2
:1000000018080020050200086102000861020008CB
:10001000610200086102000861020008000000009F
:100020000000000000000000000000006102000865
:10003000610200080000000061020008610200087F
:100040006102000861020008610200086102000804
:1000500061020008610200086102000861020008F4
:1000600061020008610200086102000861020008E4
:1000700061020008610200086102000861020008D4
:1000800061020008610200086102000861020008C4
:100090006102000861020008610200087908000896
:1000A00061020008610200086102000861020008A4
:1000B0006102000861020008610200086102000894
:1000C0006102000861020008610200086102000884
:1000D0006102000861020008610200086102000874
:1000E0006102000861020008610200086102000864
:1000F0006102000861020008610200086102000854
:100100006102000861020008610200086102000843
:100110006102000861020008610200086102000833
:100120006102000861020008610200086102000823
:100130006102000861020008610200086102000813
:100140006102000861020008610200086102000803
:1001500061020008610200086102000861020008F3
:1001600061020008610200086102000861020008E3
:1001700061020008610200086102000861020008D3
:10018000610200086102000890B484B000AF02462A
:100190000B46FA71BB710023FB60BB7903F00303CC
:1001A0009B000F2202FA03F3FB60154BBA79920809
:1001B000D2B21349B8798008C0B2023051F8200099
:1001C000F968C9430140023243F822100C4BBA7956
:1001D0009208D2B20A49B8798008C0B2023051F808
:1001E0002000FC79B97901F00301890004FA01F1DA
:1001F0000143023243F822101037BD4690BC7047CD
:100200000038014080B582B000AF104B7B60104BCE
:100210003B6007E03B681A1D3A607A68111D7960FF
:1002200012681A603A680B4B9A42F3D30A480B499A
:100230004FF000028842B8BF40F8042BFFF6FAAF37
:1002400000F040FA0837BD4680BD00BF84140008A6
:1002500000000020080000200800002014000020FA
:1002600080B400AFFEE700BF80B483B000AF0346A8
:10027000FB71094B97F907205209F97901F01F0129
:10028000012000FA01F1603243F822100C37BD461C
:100290005DF8047B704700BF00E100E080B58AB0E4
:1002A00000AF0120012100F0B9FB0220012100F084
:1002B00097FB4FF440633B6002233B7103237B7148
:1002C0000023BB710123FB713B462548194600F012
:1002D000E1FB23480A21012200F084FC20480B2185
:1002E000012200F07FFC64233B622923BB830023AF
:1002F000BB840023FB8307F11C034FF080401946A9
:1003000000F0B4FD60233B810023BB8201237B818D
:1003100000233B6107F108034FF08040194600F0CD
:1003200051FF4FF08040082101F072F807F10803F7
:100330004FF08040194600F0CBFF4FF0804008217D
:1003400001F082F84FF08040012100F0F9FD4FF0FC
:100350008040012100F014FE2837BD4680BD00BF5B
:100360000004024080B58AB000AF0420012100F0F3
:1003700055FB0820012100F033FB4FF470433B6034
:1003800002233B7103237B710023BB710123FB71AB
:100390003B463048194600F07DFB2E480C210222D6
:1003A00000F020FC2B480D21022200F01BFC294804
:1003B0000E21022200F016FC26480F21022200F036
:1003C00011FC64233B622923BB830023BB840023ED
:1003D000FB8307F11C032048194600F047FD60230A
:1003E0003B810023BB8201237B8100233B6107F11A
:1003F00008031948194600F0E3FD1748082100F0EA
:10040000CDFF07F108031448194600F053FE1248C7
:10041000082100F0DFFF07F108030F48194600F03C
:10042000D1FE0D48082100F0F3FF07F108030A4848
:10043000194600F04DFF0848082101F005F806486C
:10044000012100F07DFD0448012100F099FD2837CD
:10045000BD4680BD000C02400008004080B483B05F
:1004600000AF7860034B7A685A630C37BD465DF87D
:10047000047B70470008004080B483B000AF786010
:10048000034B7A689A630C37BD465DF8047B70476E
:100490000008004080B483B000AF7860034B7A68F6
:1004A000DA630C37BD465DF8047B704700080040F6
:1004B00080B483B000AF7860034B7A681A640C375D
:1004C000BD465DF8047B70470008004080B483B0EF
:1004D00000AF78604FF080437A68DA630C37BD462E
:1004E0005DF8047B704700BF80B483B000AF7860D4
:1004F0004FF080437A681A640C37BD465DF8047B80
:10050000704700BF80B596B000AF4FF48040012126
:1005100000F0A2FA0420012100F062FA0220052175
:10052000FFF732FE02200621FFF72EFE02200721F0
:10053000FFF72AFE02200821FFF726FE02200921EC
:10054000FFF722FE002387F8543020233B65032366
:1005500087F85530022387F85730002387F8563044
:1005600007F150035648194600F094FA002387F823
:100570004C304023BB64032387F84D30022387F8B7
:100580004F30002387F84E3007F148034C48194696
:1005900000F080FA002387F8443080233B64032373
:1005A00087F84530022387F84730002387F8463024
:1005B00007F140034248194600F06CFA002387F81F
:1005C0003C304FF48073BB63032387F83D30022334
:1005D00087F83F30002387F83E3007F1380338486A
:1005E000194600F057FA002387F834304FF480732F
:1005F0003B63032387F83530022387F83730002325
:1006000087F8363007F130032D48194600F042FADA
:100610002023BB62012387F82E30002387F82C307B
:10062000102387F82D3007F12803184600F020FB2F
:1006300040233B62012387F82630002387F82430CB
:10064000102387F8253007F12003184600F010FB2F
:100650008023BB610123BB7700233B7710237B778B
:1006600007F11803184600F003FB4FF480733B6159
:100670000123BB7500233B7510237B7507F1100325
:10068000184600F0F5FA4FF40073BB600123BB730A
:1006900000233B7310237B7307F10803184600F017
:1006A000E7FA17233B710123FB7100237B710023C1
:1006B000BB713B1D184600F07BFB5837BD4680BD23
:1006C0000008024080B500AFFFF74CFEFFF7E6FDE3
:1006D000FFF718FF634B1B68012B19D1624B1B6896
:1006E000002B15D1614B1B68012B11D16420FFF742
:1006F000B5FE0020FFF7C0FE0020FFF7CBFE642010
:10070000FFF7D6FE6420FFF7E1FE0020FFF7ECFEC6
:10071000544B1B68012B19D1534B1B68002B15D16F
:10072000524B1B68002B11D16420FFF797FE00206D
:10073000FFF7A2FE0020FFF7ADFE6420FFF7B8FE32
:100740000020FFF7C3FE6420FFF7CEFE454B1B6879
:10075000012B19D1444B1B68012B15D1434B1B684E
:10076000002B11D10020FFF779FE6420FFF784FEF3
:100770000020FFF78FFE0020FFF79AFE6420FFF7AE
:10078000A5FE6420FFF7B0FE364B1B68002B19D185
:10079000354B1B68012B15D1344B1B68002B11D135
:1007A0000020FFF75BFE6420FFF766FE0020FFF7E6
:1007B00071FE6420FFF77CFE6420FFF787FE0020B7
:1007C000FFF792FE274B1B68002B19D1264B1B68A5
:1007D000012B15D1254B1B68012B11D10020FFF7F0
:1007E0003DFE0020FFF748FE6420FFF753FE642023
:1007F000FFF75EFE0020FFF769FE6420FFF774FE3E
:10080000184B1B68002B19D1174B1B68002B15D1F7
:10081000164B1B68012B11D10020FFF71FFE002093
:10082000FFF72AFE6420FFF735FE0020FFF740FEA9
:100830006420FFF74BFE6420FFF756FE0C4B1B684D
:10084000002B01D10B4B1B68094B1B68002B01D1FE
:10085000084B1B68064B1B68012B01D1054B1B681D
:1008600038E700BF080000200C0000201000002026
:10087000000000200400002080B500AF202000F020
:1008800065FA0346002B13D04F48202100F090F961
:100890000346012B02D14D4B01221A604A48202108
:1008A00000F086F90346002B02D1484B00221A6063
:1008B000202000F06FFA1720FFF7D6FC402000F050
:1008C00045FA0346002B13D03F48402100F070F951
:1008D0000346012B02D13E4B01221A603A484021C7
:1008E00000F066F90346002B02D1394B00221A6052
:1008F000402000F04FFA1720FFF7B6FC802000F0F0
:1009000025FA0346002B13D02F48802100F050F920
:100910000346012B02D12F4B01221A602A48802165
:1009200000F046F90346002B02D12A4B00221A6040
:10093000802000F02FFA1720FFF796FC4FF480700C
:1009400000F004FA0346002B13D01F48802100F06A
:100950002FF90346012B02D11F4B01221A601A48BE
:10096000802100F025F90346002B02D11A4B00220A
:100970001A604FF4807000F00DFA1720FFF774FC36
:100980004FF4007000F0E2F90346002B13D00E483C
:10099000802100F00DF90346012B02D10F4B0122FB
:1009A0001A600948802100F003F90346002B02D1A8
:1009B0000A4B00221A604FF4007000F0EBF9172088
:1009C000FFF752FC80BD00BF000802400800002075
:1009D0000C00002010000020000000200400002077
:1009E00080B483B000AF78600B46FB70FB78002BBF
:1009F00006D0094B084A116B7A680A431A6306E06D
:100A0000054B054A116B7A68D2430A401A630C37CA
:100A1000BD465DF8047B70470038024080B483B067
:100A200000AF78600B46FB70FB78002B06D0094BBB
:100A3000084A116C7A680A431A6406E0054B054AB5
:100A4000116C7A68D2430A401A640C37BD465DF8CF
:100A5000047B70470038024080B483B000AF7860F8
:100A60000B46FB70FB78002B06D0094B084A516CF3
:100A70007A680A435A6406E0054B054A516C7A6865
:100A8000D2430A405A640C37BD465DF8047B704778
:100A90000038024080B487B000AF7860396000232E
:100AA0007B6100233B610023FB6000237B6176E0D8
:100AB0007B69012202FA03F33B613B681A683B69D8
:100AC0001340FB60FA683B699A4265D17B681A68FB
:100AD0007B695B00032101FA03F3DB431A407B6867
:100AE0001A607B681A683B681B7919467B695B0052
:100AF00001FA03F31A437B681A603B681B79012BE8
:100B000003D03B681B79022B2ED17B689A687B69E6
:100B10005B00032101FA03F3DB431A407B689A6010
:100B20007B689A683B685B7919467B695B0001FAD0
:100B300003F31A437B689A607B685A687B699BB2AF
:100B4000012101FA03F3DB431A407B685A607B689A
:100B50005A683B689B7919467B699BB201FA03F39B
:100B60009BB21A437B685A607B68DA687B699BB2E8
:100B70005B00032101FA03F3DB431A407B68DA6070
:100B80007B68DA683B68DB7919467B695B0001FAB0
:100B900003F31A437B68DA607B6901337B617B690D
:100BA0000F2B85D91C37BD465DF8047B704700BF0D
:100BB00080B485B000AF78600B467B800023FB7368
:100BC0007B681A697B881340002B02D00123FB73DA
:100BD00001E00023FB73FB7B18461437BD465DF82C
:100BE000047B704780B485B000AF786013460A4636
:100BF0007A807B700023FB600023BB607A787B885F
:100C000003F007039B0002FA03F3FB607B88DB0819
:100C10009BB21A467B88DB089BB219467B68083179
:100C200053F821107B8803F007039B000F2000FA84
:100C300003F3DB4319407B68083243F822107B88BA
:100C4000DB089BB21A467B68083253F82220FB6807
:100C50001343BB607B88DB089BB21A467B68083273
:100C6000B96843F822101437BD465DF8047B70471D
:100C700080B485B000AF78600023FB60324BFB602E
:100C80007B689B79002B4DD02F4B2F4A11687A68D7
:100C90001268D2430A401A602B4B2B4A51687A687B
:100CA0001268D2430A405A607B681B79FA68134481
:100CB000FB60FB68FA6811687A6812680A431A6078
:100CC000214B214A91687A681268D2430A409A609F
:100CD0001D4B1D4AD1687A681268D2430A40DA6017
:100CE0007B685B79102B0ED1174B174A91687A6895
:100CF00012680A439A60144B134AD1687A681268E2
:100D00000A43DA601BE0104BFB607B685B79FA6892
:100D10001344FB60FB68FA6811687A6812680A433A
:100D20001A600CE07B681B79FA681344FB60FB686F
:100D3000FA6811687A681268D2430A401A60143758
:100D4000BD465DF8047B7047003C014080B485B02F
:100D500000AF78600023FB730023BB600C4B1A6864
:100D60007B681340BB600A4B5A697B681340002BB9
:100D700005D0BB68002B02D00123FB7301E00023E8
:100D8000FB73FB7B18461437BD465DF8047B704748
:100D9000003C014080B483B000AF7860034B7A68B8
:100DA0005A610C37BD465DF8047B7047003C01403A
:100DB00080B485B000AF78600023FB730023BB7361
:100DC0000F237B737B68DB78002B37D0254BDB68E8
:100DD000DB4303F4E0631B0AFB73FB7BC3F10403F7
:100DE000BB737A7BFB7B42FA03F37B737B685B7894
:100DF0001A46BB7B02FA03F3FB737B689A787B7B12
:100E00001340DAB2FB7B1343FB73FB7B1B01FB73C9
:100E1000154A7B681B781344FA7B83F80023124B36
:100E20007A6812785209D2B27968097801F01F0104
:100E3000012000FA01F143F822100EE00A4B7A6813
:100E400012785209D2B27968097801F01F010120A5
:100E500000FA01F1203243F822101437BD465DF844
:100E6000047B704700ED00E000E100E080B485B055
:100E700000AF786039600023FB817B681B88FB81B1
:100E80007A68284B9A4213D07A68274B9A420FD03F
:100E90007B68B3F1804F0BD07A68244B9A4207D01D
:100EA0007A68234B9A4203D07A68224B9A4208D13F
:100EB000FB8923F07003FB813B685A88FB8913434D
:100EC000FB817A681C4B9A420CD07A681B4B9A4281
:100ED00008D0FB8923F44073FB813B681A89FB89A6
:100EE0001343FB817B68FA891A803B685A687B68E8
:100EF000DA623B681A887B681A857A68094B9A42DD
:100F000003D07A68084B9A4204D13B689B7A1A4610
:100F10007B681A867B6801229A821437BD465DF889
:100F2000047B7047000001400004014000040040C1
:100F300000080040000C0040001000400014004079
:100F400080B483B000AF78600B46FB70FB78002B59
:100F500008D07B681B889BB243F080039AB27B6801
:100F60001A8007E07B681B889BB223F080039AB24B
:100F70007B681A800C37BD465DF8047B704700BF64
:100F800080B483B000AF78600B46FB70FB78002B19
:100F900008D07B681B889BB243F001039AB27B6840
:100FA0001A8007E07B681B889BB223F001039AB28A
:100FB0007B681A800C37BD465DF8047B704700BF24
:100FC00080B485B000AF7860396000237B81002356
:100FD000FB810023BB817B681B8C9BB223F0010348
:100FE0009AB27B681A847B681B8CFB817B689B8828
:100FF000BB817B681B8B7B817B8923F070037B81AA
:101000007B8923F003037B813B681A887B89134328
:101010007B81FB8923F00203FB813B689A89FB8972
:101020001343FB813B685A88FB891343FB817A6831
:101030001E4B9A4203D07A681D4B9A4223D1FB89FA
:1010400023F00803FB813B68DA89FB891343FB81AA
:10105000FB8923F00403FB813B689A88FB891343D7
:10106000FB81BB8923F48073BB81BB8923F40073AC
:10107000BB813B681A8ABB891343BB813B685A8A90
:10108000BB891343BB817B68BA899A807B687A8964
:101090001A833B689A687B685A637B68FA891A846A
:1010A0001437BD465DF8047B704700BF0000014067
:1010B0000004014080B485B000AF7860396000233F
:1010C0007B810023FB810023BB817B681B8C9BB24F
:1010D00023F010039AB27B681A847B681B8CFB8117
:1010E0007B689B88BB817B681B8B7B817B8923F41E
:1010F000E0437B817B8923F440737B813B681B88C1
:101100001B029AB27B8913437B81FB8923F0200366
:10111000FB813B689B891B019AB2FB891343FB81CE
:101120003B685B881B019AB2FB891343FB817A6899
:10113000224B9A4203D07A68214B9A422BD1FB89E9
:1011400023F08003FB813B68DB891B019AB2FB899A
:101150001343FB81FB8923F04003FB813B689B88A1
:101160001B019AB2FB891343FB81BB8923F4806383
:10117000BB81BB8923F40063BB813B681B8A9B0056
:101180009AB2BB891343BB813B685B8A9B009AB2CE
:10119000BB891343BB817B68BA899A807B687A8953
:1011A0001A833B689A687B689A637B68FA891A8419
:1011B0001437BD465DF8047B704700BF0000014056
:1011C0000004014080B485B000AF7860396000232E
:1011D0007B810023FB810023BB817B681B8C9BB23E
:1011E00023F480739AB27B681A847B681B8CFB8122
:1011F0007B689B88BB817B689B8B7B817B8923F091
:1012000070037B817B8923F003037B813B681A8811
:101210007B8913437B81FB8923F40073FB813B684B
:101220009B891B029AB2FB891343FB813B685B8855
:101230001B029AB2FB891343FB817A68224B9A42C4
:1012400003D07A68214B9A422BD1FB8923F40063A7
:10125000FB813B68DB891B029AB2FB891343FB814C
:10126000FB8923F48063FB813B689B881B029AB255
:10127000FB891343FB81BB8923F48053BB81BB896A
:1012800023F40053BB813B681B8A1B019AB2BB89C4
:101290001343BB813B685B8A1B019AB2BB89134332
:1012A000BB817B68BA899A807B687A899A833B681C
:1012B0009A687B68DA637B68FA891A841437BD46BA
:1012C0005DF8047B704700BF00000140000401404E
:1012D00080B485B000AF786039600023BB81002303
:1012E0007B810023FB817B681B8C9BB223F48053A2
:1012F0009AB27B681A847B681B8C7B817B689B8895
:10130000FB817B689B8BBB81BB8923F4E043BB8162
:10131000BB8923F44073BB813B681B881B029AB2D4
:10132000BB891343BB817B8923F400537B813B68DA
:101330009B891B039AB27B8913437B813B685B8843
:101340001B039AB27B8913437B817A68114B9A42C3
:1013500003D07A68104B9A420AD1FB8923F4804368
:10136000FB813B681B8A9B019AB2FB891343FB817B
:101370007B68FA899A807B68BA899A833B689A6805
:101380007B681A647B687A891A841437BD465DF8D5
:10139000047B7047000001400004014080B485B028
:1013A00000AF78600B467B800023FB817B681B8B42
:1013B000FB81FB8923F00803FB81FA897B881343B7
:1013C000FB817B68FA891A831437BD465DF8047B7C
:1013D000704700BF80B485B000AF78600B467B805B
:1013E0000023FB817B681B8BFB81FB8923F400635B
:1013F000FB817B881B029AB2FB891343FB817B68CC
:10140000FA891A831437BD465DF8047B704700BF24
:1014100080B485B000AF78600B467B800023FB81F1
:101420007B689B8BFB81FB8923F00803FB81FA8996
:101430007B881343FB817B68FA899A831437BD4606
:101440005DF8047B704700BF80B485B000AF786062
:101450000B467B800023FB817B689B8BFB81FB8998
:1014600023F40063FB817B881B029AB2FB89134340
:10147000FB817B68FA899A831437BD465DF8047B4B
:04148000704700BFF2
:0814840001000000010000005E
:0400000508000000EF
:00000001FF
