:020000040800F2
:100000005808002089010008E5010008E501000802
:10001000E5010008E5010008E50100080000000016
:10002000000000000000000000000000E5010008E2
:10003000E501000800000000E5010008DD080008F7
:10004000E5010008E5010008E5010008E5010008F8
:10005000E5010008E5010008E5010008E5010008E8
:10006000E5010008E5010008E5010008E5010008D8
:10007000E5010008E5010008E5010008E5010008C8
:10008000E5010008E5010008E5010008E5010008B8
:10009000E5010008E5010008E5010008E5010008A8
:1000A000E5010008E5010008E5010008E501000898
:1000B000E5010008E50100086D0E0008E5010008F3
:1000C000E5010008E5010008E5010008E501000878
:1000D000E5010008E5010008E5010008E501000868
:1000E000E5010008E5010008E5010008E501000858
:1000F000E5010008E5010008E5010008E501000848
:10010000E5010008E5010008E5010008E501000837
:10011000E5010008E5010008E5010008E501000827
:10012000E5010008E5010008E5010008E501000817
:10013000E5010008E5010008E5010008E501000807
:10014000E5010008E5010008E5010008E5010008F7
:10015000E5010008E5010008E5010008E5010008E7
:10016000E5010008E5010008E5010008E5010008D7
:10017000E5010008E5010008E5010008E5010008C7
:10018000E5010008E501000880B582B000AF104B22
:100190007B60104B3B6007E03B681A1D3A607A6851
:1001A000111D796012681A603A680B4B9A42F3D3BA
:1001B0000A480B494FF000028842B8BF40F8042BB0
:1001C000FFF6FAAF00F06AFE0837BD4680BD00BFFB
:1001D000F016000800000020400000204000002031
:1001E0005800002080B400AFFEE700BF80B483B0A9
:1001F00000AF03463960FB7197F90730002B0BDA2B
:100200000D49FB7903F00F03043B3A68D2B21201A7
:10021000D2B20B441A7609E0084997F907303A68D8
:10022000D2B21201D2B20B4483F800230C37BD4680
:100230005DF8047B704700BF00ED00E000E100E0E6
:1002400080B582B000AF78607B68B3F1807F01D366
:10025000012311E00A4B7A6822F07F42013A5A608A
:100260004FF0FF300F21FFF7C1FF054B00229A60CE
:10027000034B07221A60002318460837BD4680BD8D
:1002800010E000E080B582B000AF0820012100F04E
:10029000AFFE01233B710023BB710023FB710323DD
:1002A0007B7180233B603B460A48194600F034FFCF
:1002B0004FF480733B603B460648194600F02CFF24
:1002C000044B4FF480725A83024B80221A83083702
:1002D000BD4680BD000C024080B582B000AF024632
:1002E0000B46FA71BB71FFF7CDFF3B48012100F0CF
:1002F0004FFBBB79202B01D92023BB71374BFA79F7
:100300005A70364BBA791A70344B03229A70334BB9
:100310000022DA7000F0D4F9FB790520194600F0CC
:10032000DBF82E4B1B781120194600F0D5F82B4B2B
:100330001B781220194600F0CFF8284B1B781320A9
:10034000194600F0C9F8254B1B781420194600F017
:10035000C3F8224B1B781520194600F0BDF81F4B3F
:100360001B781620194600F0B7F81C4BDA781B4BA7
:100370009B781046194600F035FA0020082100F05D
:10038000ABF801203F2100F0A7F802203F2100F048
:10039000A3F804204F2100F09FF81C20002100F05A
:1003A0009BF80F4B80225A830B48E12100F01AFB87
:1003B0000B4B80221A830A4B80225A830648E22183
:1003C00000F010FB064B80221A8300F0E7F80123AF
:1003D00018460837BD4680BD003C00405000002054
:1003E000000C024080B582B000AF7860074B4FF43C
:1003F00080725A830B207968052200F091F8034B34
:100400004FF480721A830837BD4680BD000C02404D
:1004100080B582B000AF78600A207968052200F0CC
:100420007FF810207968052200F07AF80837BD4679
:1004300080BD00BF80B584B000AF13460246FA719C
:100440000A46BA717B71FB79184600F023F803461F
:10045000FB737B79002B09D0BB79012202FA03F3ED
:10046000DAB2FB7B1343DBB2FB730AE0BB790122F8
:1004700002FA03F3DBB2DB43DAB2FB7B1340DBB2FD
:10048000FB73FA79FB7B1046194600F025F810370C
:10049000BD4680BD80B584B000AF0346FB710C4BF8
:1004A00080225A83FB7903F01F03DBB20948194607
:1004B00000F098FA0748FF2100F094FA0346FB7316
:1004C000034B80221A83FB7B18461037BD4680BD44
:1004D000000C0240003C004080B582B000AF0246F4
:1004E0000B46FA71BB710C4B80225A83FB7903F0E7
:1004F0001F03DBB243F02003DBB20848194600F0CB
:1005000071FABB790548194600F06CFA024B80225B
:100510001A830837BD4680BD000C0240003C0040F5
:1005200080B582B000AF396013460246FA71BB71E4
:100530000D4B80225A83FB7903F01F03DBB243F09B
:100540002003DBB20948194600F04CFABB799BB294
:10055000064839681A4600F06FFA034B80221A8366
:100560000837BD4680BD00BF000C0240003C004083
:1005700080B500AF072004210122FFF75BFF0720B1
:1005800005210122FFF756FF072006210122FFF770
:1005900051FF00200A21FFF79FFF80BD80B500AF0B
:1005A000124B80225A831248E22100F01BFA0F4BB3
:1005B00080221A83072004210122FFF73BFF072036
:1005C00005210122FFF736FF072006210122FFF750
:1005D00031FF064B4FF480725A8300200B21FFF746
:1005E0007BFF024B4FF480721A8380BD000C0240E7
:1005F000003C004080B584B000AF7860144B1B789D
:10060000FB73144B4FF480725A83124B80225A832F
:100610001148E12100F0E6F90E4B80221A830D4BC0
:1006200080225A830C48A02100F0DCF9FB7B9BB2AE
:10063000094879681A4600F0FFF9064B80221A83B0
:10064000044B4FF480721A831037BD4680BD00BF43
:1006500050000020000C0240003C004080B582B0F9
:1006600000AF084B80225A830748FF2100F0BAF9F7
:100670000346FB71034B80221A83FB791846083727
:10068000BD4680BD000C0240003C004080B582B0F9
:1006900000AFFFF7E3FF0346FB71FB7903F0200394
:1006A000002B01D0012307E0FB7903F01003002B9E
:1006B00001D0002300E0FF2318460837BD4680BD67
:1006C00080B582B000AF00200821FFF705FF0120B0
:1006D0003F21FFF701FF02200321FFF7FDFE03206A
:1006E0000321FFF7F9FE04200321FFF7F5FE0520A3
:1006F0000221FFF7F1FE06200E21FFF7EDFE072095
:100700000E21FFF7E9FE08200021FFF7E5FE092092
:100710000021FFF7E1FEE7233B70E7237B70E7232F
:10072000BB70E723FB70E7233B713B460A20194669
:100730000522FFF7F5FEC2233B70C2237B70C22364
:10074000BB70C223FB70C2233B713B460B20194692
:100750000522FFF7E5FE0C20C321FFF7BDFE0D20AB
:10076000C421FFF7B9FE0E20C521FFF7B5FE0F200B
:10077000C621FFF7B1FEE7233B70E7237B70E72339
:10078000BB70E723FB70E7233B713B461020194603
:100790000522FFF7C5FE11200021FFF79DFE122064
:1007A0000021FFF799FE13200021FFF795FE14208A
:1007B0000021FFF791FE15200021FFF78DFE162086
:1007C0000021FFF789FE17201121FFF785FE1C206D
:1007D0000021FFF781FE1D200021FFF77DFE083775
:1007E000BD4680BD80B584B000AF02460B46FA71AD
:1007F000BB710023FB731A4BFA79DA70184BBA7984
:100800009A70FB79002B04D1FB7B43F00803FB7348
:1008100006E0FB79022B03D1FB7B43F02003FB7343
:10082000BB79032B04D1FB7B43F00603FB730EE083
:10083000BB79022B04D1FB7B43F00403FB7306E07E
:10084000BB79012B03D1FB7B43F00203FB73FB7BE2
:1008500006201946FFF740FE1037BD4680BD00BF99
:100860005000002080B582B000AF0820012100F0C8
:10087000BFFB4FF470433B600023BB7101233B710E
:100880000023FB7103237B713B460348194600F0AC
:1008900043FC0837BD4680BD000C024080B582B0E5
:1008A00000AF0346FB80FB880348194600F0C2FCFA
:1008B0000837BD4680BD00BF000C024080B582B045
:1008C00000AF0346FB80FB880348194600F0C0FCDC
:1008D0000837BD4680BD00BF000C024080B400AFA9
:1008E000084B1B685A1C074B1A60074B1B68002BF0
:1008F00004D0054B1B685A1E034B1A60BD465DF8B9
:10090000047B7047440000204000002080B500AF09
:100910000F4B1B78002B00D018E0012000F02EFBBD
:1009200000BF00F03DFB0346002BFAD0094B1A68CC
:10093000094BA3FB02139B0C1846FFF781FC0346EF
:10094000002B00D0FEE7024B01221A7080BD00BFD1
:10095000480000202C00002083DE1B4380B400AF41
:10096000034B1B681846BD465DF8047B704700BF0B
:100970004400002080B483B000AF7860034B7A68F5
:100980001A600C37BD465DF8047B704744000020B8
:1009900080B582B000AF78600B46FB707A680E4B72
:1009A0009A4204D1FB78184600F062F810E07A68A9
:1009B0000A4B9A4204D1FB78184600F0D7F807E0BA
:1009C0007A68074B9A4203D1FB78184600F07CF90D
:1009D0000837BD4680BD00BF0030014000380040F0
:1009E000003C004080B582B000AF78600B46FB70E1
:1009F000FB789AB27B689A8100BF7868022100F088
:100A000015FD0346002BF8D000BF7868012100F0E7
:100A10000DFD0346002BF8D000BF7868802100F060
:100A200005FD0346002BF8D17B689B899BB2DBB2A6
:100A300018460837BD4680BD80B586B000AFF86067
:100A4000B9601346FB800023FB820AE0FB8ABA6888
:100A500013441B78F8681946FFF7C4FFFB8A01337B
:100A6000FB82FA8AFB889A42F0D31837BD4680BDD4
:100A700080B58AB000AF0346FB71002387F82630AB
:100A8000002387F82730032387F82530022387F8CF
:100A90002430FB79002B1BD10120012100F0A8FAA2
:100AA000E0233B6207F120032D48194600F034FB98
:100AB0002B480521052200F0EBFB294806210522E1
:100AC00000F0E6FB26480721052200F0E1FB1DE0CF
:100AD000FB79012B1AD10220012100F089FA382379
:100AE0003B6207F120031F48194600F015FB1D4823
:100AF0000321052200F0CCFB1A480421052200F056
:100B0000C7FB18480521052200F0C2FB4FF48050B6
:100B1000012100F0A9FA07F10C03184600F042FC8D
:100B200020233B8300233B820023BB8100237B8364
:100B30004FF48273FB8100237B820023BB824FF43E
:100B40000073FB8207F10C030748194600F0E6FB2F
:100B50000548012100F04AFC2837BD4680BD00BF92
:100B600000000240000402400030014080B58AB01D
:100B700000AF0346FB71002387F82630012387F876
:100B80002730032387F82530022387F82430FB79A8
:100B9000002B28D10220012100F02AFA0420012193
:100BA00000F026FA0C233B6207F120034248194665
:100BB00000F0B2FA4FF480633B6207F120033F4834
:100BC000194600F0A9FA3C480221052200F060FB1A
:100BD00039480321052200F05BFB38480A21052231
:100BE00000F056FB3EE0FB79012B1CD102200121D5
:100BF00000F0FEF94FF460433B6207F120032F48F9
:100C0000194600F089FA2D480D21052200F040FB1D
:100C10002A480E21052200F03BFB28480F2105221F
:100C200000F036FB1EE0FB79022B1BD14FF48070E5
:100C3000012100F0DDF90D233B6207F120031F487D
:100C4000194600F069FA1E480021052200F020FB39
:100C50001B480221052200F01BFB19480321052235
:100C600000F016FB4FF48040012100F0DFF907F19E
:100C70000C03184600F096FB20233B8300233B82A5
:100C80000023BB8100237B834FF48273FB8100230D
:100C90007B820023BB824FF40073FB8207F10C03BD
:100CA0000848194600F03AFB0648012100F09EFB77
:100CB0002837BD4680BD00BF000802400004024046
:100CC000002002400038004080B58AB000AF0346E3
:100CD000FB71002387F82630002387F82730032391
:100CE00087F82530022387F82430FB79002B1BD1AD
:100CF0000220012100F07CF938233B6207F1200338
:100D00002D48194600F008FA2B480321062200F06E
:100D1000BFFA29480421062200F0BAFA2648052124
:100D2000062200F0B5FA1EE0FB79012B1BD104204E
:100D3000012100F05DF94FF4E0533B6207F120031D
:100D40001E48194600F0E8F91C480A21062200F066
:100D50009FFA1A480B21062200F09AFA17480C2134
:100D6000062200F095FA4FF40040012100F05EF9F0
:100D700007F10C03184600F015FB20233B830023EA
:100D80003B820023BB8100237B834FF48273FB8172
:100D900000237B820023BB824FF40073FB8207F1A8
:100DA0000C030748194600F0B9FA0548012100F084
:100DB0001DFB2837BD4680BD0004024000080240EC
:100DC000003C004080B582B000AF1020012100F04F
:100DD0000FF904233B6001233B710023BB71032304
:100DE0007B710123FB713B460348194600F094F9DF
:100DF0000837BD4680BD00BF0010024080B584B0FA
:100E000000AF0420012100F011F94FF4FA73BB6028
:100E10004FF4FA43BB800023BB810023FB800023F7
:100E2000BB733B1D0748194600F07AFB05480121BA
:100E300000F0E0FB03480121012200F0FBFB10372A
:100E4000BD4680BD0008004080B582B000AF1E23C3
:100E50003B7100237B710123BB710123FB713B1D9F
:100E6000184600F0FFFA0837BD4680BD80B500AFD8
:100E70000848012100F002FC0346002B08D0054879
:100E8000012100F025FC04484FF4005100F0EEF978
:100E900080BD00BF00080040000C024080B582B059
:100EA00000AFFFF7ABFFFFF7CFFFFFF72FFDFFF717
:100EB000D9FC05201A21FFF70FFA02200321FFF7C2
:100EC00091FC2948FFF78EFA2848FFF7A1FAFFF7AF
:100ED00079FF274B7B60FFF74BFB2648FFF78AFB28
:100EE000FFF7D4FB03461A46234B1A70224B1B789C
:100EF000FF2BF5D0204B1B78012B0CD14FF4004079
:100F0000FFF7CCFC4FF48050FFF7D8FC4FF4804043
:100F1000FFF7D4FC1CE0184B1B78002B0CD14FF4CE
:100F20008040FFF7BBFC4FF48050FFF7C7FC4FF445
:100F30000040FFF7C3FC0BE04FF48050FFF7AEFC1E
:100F40004FF48040FFF7BAFC4FF40040FFF7B6FCC7
:100F50000020FFF70FFD00BFFFF700FD02464CF237
:100F60004F339A42F8D9B6E708000020000000206D
:100F7000A0860100100000205400002080B483B03F
:100F800000AF0346FB71054B00221A70034BFA7940
:100F90001A700C37BD465DF8047B7047023802407A
:100FA00080B582B000AF00233B600023FB710023BB
:100FB000BB71312000F076F80346BB713B6801330A
:100FC0003B603B68B3F5A06F02D0BB79002BF0D03B
:100FD000312000F067F80346002B02D00123FB719B
:100FE00001E00023FB71FB7918460837BD4680BD40
:100FF00080B483B000AF78600B46FB70FB78002BA9
:1010000006D0094B084A116B7A680A431A6306E056
:10101000054B054A116B7A68D2430A401A630C37B4
:10102000BD465DF8047B70470038024080B483B051
:1010300000AF78600B46FB70FB78002B06D0094BA5
:10104000084A116C7A680A431A6406E0054B054A9F
:10105000116C7A68D2430A401A640C37BD465DF8B9
:10106000047B70470038024080B483B000AF7860E2
:101070000B46FB70FB78002B06D0094B084A516CDD
:101080007A680A435A6406E0054B054A516C7A684F
:10109000D2430A405A640C37BD465DF8047B704762
:1010A0000038024080B487B000AF0346FB710023D4
:1010B000FB6000237B610023FB74FB795B09DBB2DF
:1010C000FB60FB68012B03D1124B1B687B6109E0BD
:1010D000FB68022B03D10F4B1B6F7B6102E00D4BB2
:1010E0005B6F7B61FB7903F01F03FB60FB687A6930
:1010F00022FA03F303F00103002B02D00123FB7457
:1011000001E00023FB74FB7C18461C37BD465DF8EC
:10111000047B70470038024080B487B000AF78602D
:10112000396000237B6100233B610023FB600023C7
:101130007B6176E07B69012202FA03F33B613B6845
:101140001A683B691340FB60FA683B699A4265D1B3
:101150007B681A687B695B00032101FA03F3DB43B8
:101160001A407B681A607B681A683B681B791946CD
:101170007B695B0001FA03F31A437B681A603B68E2
:101180001B79012B03D03B681B79022B2ED17B6886
:101190009A687B695B00032101FA03F3DB431A4081
:1011A0007B689A607B689A683B685B7919467B69C3
:1011B0005B0001FA03F31A437B689A607B685A6804
:1011C0007B699BB2012101FA03F3DB431A407B6880
:1011D0005A607B685A683B689B7919467B699BB269
:1011E00001FA03F39BB21A437B685A607B68DA68A2
:1011F0007B699BB25B00032101FA03F3DB431A40D6
:101200007B68DA607B68DA683B68DB7919467B6962
:101210005B0001FA03F31A437B68DA607B690133F0
:101220007B617B690F2B85D91C37BD465DF8047B3C
:10123000704700BF80B483B000AF78600B467B80FE
:101240007B687A881A830C37BD465DF8047B70474B
:1012500080B483B000AF78600B467B807B687A886F
:101260005A830C37BD465DF8047B704780B483B069
:1012700000AF78600B467B807B685A697B885A4058
:101280007B685A610C37BD465DF8047B704700BF30
:1012900080B485B000AF786013460A467A807B70D0
:1012A0000023FB600023BB607A787B8803F0070390
:1012B0009B0002FA03F3FB607B88DB089BB21A46B3
:1012C0007B88DB089BB219467B68083153F82110F4
:1012D0007B8803F007039B000F2000FA03F3DB4336
:1012E00019407B68083243F822107B88DB089BB2E8
:1012F0001A467B68083253F82220FB681343BB6010
:101300007B88DB089BB21A467B680832B96843F8D1
:1013100022101437BD465DF8047B704780B485B059
:1013200000AF786039600023FB817B681B88FB81FC
:10133000FB8903F44153FB813B681A883B685B8857
:1013400013439AB23B689B8813439AB23B68DB888D
:1013500013439AB23B681B8913439AB23B685B897B
:1013600013439AB23B689B8913439AB23B68DB896B
:1013700013439AB2FB891343FB817B68FA891A8075
:101380007B689B8B9BB223F400639AB27B689A8341
:101390003B681A8A7B681A821437BD465DF8047B65
:1013A000704700BF80B483B000AF78607B680022D4
:1013B0001A807B6800225A807B6800229A807B68B2
:1013C0000022DA807B6800221A817B6800225A8121
:1013D0007B6800229A817B680022DA817B68072281
:1013E0001A820C37BD465DF8047B704780B483B029
:1013F00000AF78600B46FB70FB78002B08D07B6851
:101400001B889BB243F040039AB27B681A8007E0C6
:101410007B681B889BB223F040039AB27B681A80DA
:101420000C37BD465DF8047B704700BF80B485B0C3
:1014300000AF78600B467B800023FB737B681B89C1
:101440009AB27B8813409BB2002B02D00123FB731E
:1014500001E00023FB73FB7B18461437BD465DF8A3
:10146000047B704780B485B000AF78600023FB73C5
:101470000023BB730F237B737B68DB78002B37D093
:10148000254BDB68DB4303F4E0631B0AFB73FB7B48
:10149000C3F10403BB737A7BFB7B42FA03F37B73D8
:1014A0007B685B781A46BB7B02FA03F3FB737B68AD
:1014B0009A787B7B1340DAB2FB7B1343FB73FB7B95
:1014C0001B01FB73154A7B681B781344FA7B83F876
:1014D0000023124B7A6812785209D2B279680978DF
:1014E00001F01F01012000FA01F143F822100EE083
:1014F0000A4B7A6812785209D2B27968097801F0F9
:101500001F01012000FA01F1203243F822101437A4
:10151000BD465DF8047B704700ED00E000E100E0AF
:1015200080B485B000AF786039600023FB817B68B0
:101530001B88FB817A68284B9A4213D07A68274B24
:101540009A420FD07B68B3F1804F0BD07A68244B5E
:101550009A4207D07A68234B9A4203D07A68224B8A
:101560009A4208D1FB8923F07003FB813B685A88BB
:10157000FB891343FB817A681C4B9A420CD07A6832
:101580001B4B9A4208D0FB8923F44073FB813B68D4
:101590001A89FB891343FB817B68FA891A803B68AF
:1015A0005A687B68DA623B681A887B681A857A68B1
:1015B000094B9A4203D07A68084B9A4204D13B689F
:1015C0009B7A1A467B681A867B6801229A821437B6
:1015D000BD465DF8047B70470000014000040140F7
:1015E0000004004000080040000C004000100040D3
:1015F0000014004080B483B000AF78600B46FB70ED
:10160000FB78002B08D07B681B889BB243F001035A
:101610009AB27B681A8007E07B681B889BB223F034
:1016200001039AB27B681A800C37BD465DF8047BD3
:10163000704700BF80B483B000AF786013460A469D
:101640007A807B707B78002B08D07B689B899AB26C
:101650007B8813439AB27B689A8109E07B689B89F7
:101660009AB27B88DB439BB213409AB27B689A8123
:101670000C37BD465DF8047B704700BF80B485B071
:1016800000AF78600B467B800023FB730023BB8197
:1016900000237B817B681B8A9AB27B881340BB81C5
:1016A0007B689B899AB27B8813407B81BB89002B26
:1016B00005D07B89002B02D00123FB7301E00023BE
:1016C000FB73FB7B18461437BD465DF8047B7047FF
:1016D00080B483B000AF78600B467B807B88DB43AF
:1016E0009AB27B681A820C37BD465DF8047B70475E
:1016F000C2C2C2C2C2000000E7E7E7E7E70000009D
:10170000013C3C3C3C643C46505A643264326400C8
:10171000326432640032643264000000007A030AEA
:101720000000000000000000010203040607080991
:0400000508000000EF
:00000001FF
