:020000040800F2
:10000000680800200502000861020008610200087B
:10001000610200086102000861020008000000009F
:100020000000000000000000000000006102000865
:10003000610200080000000061020008C907000812
:100040006102000861020008610200086102000804
:1000500061020008610200086102000861020008F4
:1000600061020008610200086102000861020008E4
:1000700061020008610200086102000861020008D4
:1000800061020008610200086102000861020008C4
:1000900061020008610200086102000861020008B4
:1000A00061020008610200086102000861020008A4
:1000B0006102000861020008610200086102000894
:1000C0006102000861020008610200086102000884
:1000D0006102000861020008610200086102000874
:1000E000C5150008610200086102000861020008ED
:1000F0006102000861020008610200086102000854
:100100006102000861020008610200086102000843
:100110006102000861020008610200086102000833
:100120006102000861020008610200086102000823
:100130006102000861020008610200086102000813
:100140006102000861020008610200086102000803
:1001500061020008610200086102000861020008F3
:1001600061020008610200086102000861020008E3
:1001700061020008610200086102000861020008D3
:10018000610200086102000890B484B000AF02462A
:100190000B46FA71BB710023FB60BB7903F00303CC
:1001A0009B000F2202FA03F3FB60154BBA79920809
:1001B000D2B21349B8798008C0B2023051F8200099
:1001C000F968C9430140023243F822100C4BBA7956
:1001D0009208D2B20A49B8798008C0B2023051F808
:1001E0002000FC79B97901F00301890004FA01F1DA
:1001F0000143023243F822101037BD4690BC7047CD
:100200000038014080B582B000AF104B7B60104BCE
:100210003B6007E03B681A1D3A607A68111D7960FF
:1002200012681A603A680B4B9A42F3D30A480B499A
:100230004FF000028842B8BF40F8042BFFF6FAAF37
:1002400001F094F90837BD4680BD00BFB422000814
:10025000000000203000002030000020640000205A
:1002600080B400AFFEE700BF80B483B000AF0346A8
:10027000FB71094B97F907205209F97901F01F0129
:10028000012000FA01F1603243F822100C37BD461C
:100290005DF8047B704700BF00E100E080B582B0EC
:1002A00000AF0820012101F017FA01233B71002360
:1002B000BB710023FB7103237B7180233B603B46B2
:1002C0000A48194601F062FA4FF480733B603B46DE
:1002D0000648194601F05AFA044B4FF480725A83CB
:1002E000024B80221A830837BD4680BD000C0240B5
:1002F00080B582B000AF02460B46FA71BB71FFF7C2
:10030000CDFF3B48012100F077FABB79202B01D9C2
:100310002023BB71374BFA795A70364BBA791A7071
:10032000344B03229A70334B0022DA7000F07AF9D2
:10033000FB790520194600F0DBF82E4B1B781120C5
:10034000194600F0D5F82B4B1B781220194600F007
:10035000CFF8284B1B781320194600F0C9F8254B1D
:100360001B781420194600F0C3F8224B1B78152087
:10037000194600F0BDF81F4B1B781620194600F0F7
:10038000B7F81C4BDA781B4B9B781046194600F0E7
:10039000DBF90020082100F0ABF801203F2100F03C
:1003A000A7F802203F2100F0A3F804204F2100F01D
:1003B0009FF81C20002100F09BF80F4B80225A83ED
:1003C0000B48E12100F042FA0B4B80221A830A4BC2
:1003D00080225A830648E22100F038FA064B802238
:1003E0001A8300F0D1F8012318460837BD4680BDB6
:1003F000003C00405C000020000C024080B582B050
:1004000000AF7860074B4FF480725A830B207968F5
:10041000052200F091F8034B4FF480721A830837DD
:10042000BD4680BD000C024080B582B000AF786050
:100430000A207968052200F07FF8102079680522EB
:1004400000F07AF80837BD4680BD00BF80B584B0A3
:1004500000AF13460246FA710A46BA717B71FB7906
:10046000184600F023F80346FB737B79002B09D074
:10047000BB79012202FA03F3DAB2FB7B1343DBB24E
:10048000FB730AE0BB79012202FA03F3DBB2DB4320
:10049000DAB2FB7B1340DBB2FB73FA79FB7B1046CD
:1004A000194600F025F81037BD4680BD80B584B0F0
:1004B00000AF0346FB710C4B80225A83FB7903F09B
:1004C0001F03DBB20948194600F0C0F90748FF21B5
:1004D00000F0BCF90346FB73034B80221A83FB7BBD
:1004E00018461037BD4680BD000C0240003C00405D
:1004F00080B582B000AF02460B46FA71BB710C4B5F
:1005000080225A83FB7903F01F03DBB243F0200300
:10051000DBB20848194600F099F9BB79054819463D
:1005200000F094F9024B80221A830837BD4680BD43
:10053000000C0240003C004080B582B000AF396042
:1005400013460246FA71BB710D4B80225A83FB7928
:1005500003F01F03DBB243F02003DBB20948194666
:1005600000F074F9BB799BB2064839681A4600F06E
:10057000B9F9034B80221A830837BD4680BD00BFFE
:10058000000C0240003C004080B500AF124B8022BE
:100590005A831248E22100F059F90F4B80221A8346
:1005A000072004210122FFF751FF07200521012226
:1005B000FFF74CFF072006210122FFF747FF064BFC
:1005C0004FF480725A8300200B21FFF791FF024BFA
:1005D0004FF480721A8380BD000C0240003C004042
:1005E00080B582B000AF78600B4B80225A830B48F5
:1005F000612100F02BF90A4B1B78084879687A686A
:1006000000F04EF9044B80221A8307204021FFF7A7
:100610006FFF0837BD4680BD000C0240003C004023
:100620005C00002080B582B000AF00200821FFF7F9
:100630005FFF01203F21FFF75BFF02200321FFF74F
:1006400057FF03200321FFF753FF04200321FFF787
:100650004FFF05200221FFF74BFF06200E21FFF779
:1006600047FF07200E21FFF743FF08200021FFF777
:100670003FFF09200021FFF73BFFE7233B70E72303
:100680007B70E723BB70E723FB70E7233B713B469E
:100690000A2019460522FFF74FFFC2233B70C223F1
:1006A0007B70C223BB70C223FB70C2233B713B46ED
:1006B0000B2019460522FFF73FFF0C20C321FFF74F
:1006C00017FF0D20C421FFF713FF0E20C521FFF7F0
:1006D0000FFF0F20C621FFF70BFFE7233B70E72337
:1006E0007B70E723BB70E723FB70E7233B713B463E
:1006F000102019460522FFF71FFF11200021FFF7E8
:10070000F7FE12200021FFF7F3FE13200021FFF770
:10071000EFFE14200021FFF7EBFE15200021FFF76C
:10072000E7FE16200021FFF7E3FE17201121FFF757
:10073000DFFE1C200021FFF7DBFE1D200021FFF75C
:10074000D7FE0837BD4680BD80B584B000AF0246F5
:100750000B46FA71BB710023FB731A4BFA79DA70FE
:10076000184BBA799A70FB79002B04D1FB7B43F0CC
:100770000803FB7306E0FB79022B03D1FB7B43F0FC
:100780002003FB73BB79032B04D1FB7B43F00603EF
:10079000FB730EE0BB79022B04D1FB7B43F0040317
:1007A000FB7306E0BB79012B03D1FB7B43F0020313
:1007B000FB73FB7B06201946FFF79AFE1037BD46F8
:1007C00080BD00BF5C00002080B400AF084B1B68F8
:1007D0005A1C074B1A60074B1B68002B04D0054BB3
:1007E0001B685A1E034B1A60BD465DF8047B7047B8
:1007F000340000203000002080B582B000AF786067
:100800000B46FB707A680E4B9A4204D1FB7818466F
:1008100000F084F810E07A680A4B9A4204D1FB7821
:10082000184600F0F9F807E07A68074B9A4203D1BE
:10083000FB78184600F09EF90837BD4680BD00BF22
:100840000030014000380040003C004080B582B0DC
:1008500000AF78600B46FB70FB789AB27B689A8198
:1008600000BF7868022101F023F90346002BF8D07D
:1008700000BF7868012101F01BF90346002BF8D076
:1008800000BF7868802101F013F90346002BF8D1EE
:100890007B689B899BB2DBB218460837BD4680BD9A
:1008A00090B587B000AFF860B9607A607B800023B4
:1008B000FB820FE0FB8A7A68D418FB8ABA6813447B
:1008C0001B78F8681946FFF7C1FF03462370FB8ABF
:1008D0000133FB82FA8A7B889A42EBD31C37BD46F0
:1008E00090BD00BF80B586B000AFF860B960134618
:1008F000FB800023FB820AE0FB8ABA6813441B7862
:10090000F8681946FFF7A2FFFB8A0133FB82FA8AD7
:10091000FB889A42F0D31837BD4680BD80B58AB0B7
:1009200000AF0346FB71002387F82630002387F8C9
:100930002730032387F82530022387F82430FB79FA
:10094000002B1BD10120012100F0C6FEE0233B62F9
:1009500007F120032D48194600F018FF2B48052108
:10096000052200F0D7FF29480621052200F0D2FF1A
:1009700026480721052200F0CDFF1DE0FB79012B61
:100980001AD10220012100F0A7FE38233B6207F1B3
:1009900020031F48194600F0F9FE1D4803210522D7
:1009A00000F0B8FF1A480421052200F0B3FF1848F0
:1009B0000521052200F0AEFF4FF48050012100F028
:1009C000C7FE07F10C03184601F02EF820233B83E5
:1009D00000233B820023BB8100237B834FF482737F
:1009E000FB8100237B820023BB824FF40073FB82D8
:1009F00007F10C030748194600F0D2FF0548012112
:100A000001F036F82837BD4680BD00BF0000024027
:100A1000000402400030014080B58AB000AF0346B8
:100A2000FB71002387F82630012387F82730032342
:100A300087F82530022387F82430FB79002B28D152
:100A40000220012100F048FE0420012100F044FEB4
:100A50000C233B6207F120034248194600F096FE42
:100A60004FF480633B6207F120033F48194600F0D2
:100A70008DFE3C480221052200F04CFF394803213D
:100A8000052200F047FF38480A21052200F042FF06
:100A90003EE0FB79012B1CD10220012100F01CFE5D
:100AA0004FF460433B6207F120032F48194600F0E2
:100AB0006DFE2D480D21052200F02CFF2A480E2145
:100AC000052200F027FF28480F21052200F022FF11
:100AD0001EE0FB79022B1BD14FF48070012100F046
:100AE000FBFD0D233B6207F120031F48194600F070
:100AF0004DFE1E480021052200F00CFF1B4802217C
:100B0000052200F007FF19480321052200F002FF2B
:100B10004FF48040012100F0FDFD07F10C03184661
:100B200000F082FF20233B8300233B820023BB8114
:100B300000237B834FF48273FB8100237B8200239D
:100B4000BB824FF40073FB8207F10C03084819467F
:100B500000F026FF0648012100F08AFF2837BD4635
:100B600080BD00BF00080240000402400020024097
:100B70000038004080B58AB000AF0346FB71002307
:100B800087F82630002387F82730032387F825309D
:100B9000022387F82430FB79002B1BD1022001218E
:100BA00000F09AFD38233B6207F120032D481946D7
:100BB00000F0ECFD2B480321062200F0ABFE294893
:100BC0000421062200F0A6FE26480521062200F098
:100BD000A1FE1EE0FB79012B1BD10420012100F0B6
:100BE0007BFD4FF4E0533B6207F120031E4819469A
:100BF00000F0CCFD1C480A21062200F08BFE1A48AA
:100C00000B21062200F086FE17480C21062200F078
:100C100081FE4FF40040012100F07CFD07F10C0340
:100C2000184600F001FF20233B8300233B82002372
:100C3000BB8100237B834FF48273FB8100237B8283
:100C40000023BB824FF40073FB8207F10C030748BB
:100C5000194600F0A5FE0548012100F009FF2837DC
:100C6000BD4680BD0004024000080240003C004038
:100C700080B483B000AF78607B684FF4CA6202FB37
:100C800003F3002B00DA7F33DB11CC3318460C372B
:100C9000BD465DF8047B704780B582B000AF082088
:100CA000012100F019FD0F233B6001233B7100235C
:100CB000BB7103237B710123FB713B46034819463B
:100CC00000F064FD0837BD4680BD00BF000C024047
:100CD00090B583B000AF1020012100F0FDFC3C2353
:100CE0003B6000233B710023BB7103237B71012315
:100CF000FB713B461148194600F048FD0F4804219E
:100D000000F0D2FD03465C000C48082100F0CCFD49
:100D1000034623445C000948102100F0C5FD03464A
:100D200023445C000548202100F0BEFD0346E21884
:100D3000034B1A600C37BD4690BD00BF0010024047
:100D40006000002080B582B000AF0420012100F0D7
:100D5000C3FC00233B710023BB714FF400533B6085
:100D60000123FB7101237B713B460348194600F0C8
:100D70000DFD0837BD4680BD0008024080B582B039
:100D800000AF28233B7100237B710023BB7101233B
:100D9000FB713B1D184600F023FF0837BD4680BDA0
:100DA00080B582B000AF4FF48040012100F0D0FC4C
:100DB00002200D21FFF7E8F94FF400533B600023B8
:100DC0003B710C237B710123BB713B46184600F03D
:100DD0008BFE0837BD4680BD80B582B000AF1020C5
:100DE000012100F079FC03233B6001233B710023C8
:100DF000BB7103237B710123FB713B4603481946FA
:100E000000F0C4FC0837BD4680BD00BF00100240A2
:100E100080B582B000AF0220012100F05DFC0B2301
:100E20003B6001233B710023BB7103237B710123D2
:100E3000FB713B460348194600F0A8FC0837BD4645
:100E400080BD00BF0004024080B582B000AF10201A
:100E5000012100F041FC47F683733B6001233B71A5
:100E60000023BB7103237B710123FB713B460348C5
:100E7000194600F08BFC0837BD4680BD00100240CB
:100E800080B582B000AF786039607B68013B042B8D
:100E900066D801A252F823F0AD0E0008CF0E00086C
:100EA000F10E0008170F00083D0F00083B68012BEA
:100EB00004D12D48012100F011FD07E03B68002B13
:100EC00004D12948012100F017FD49E048E03B68C2
:100ED000012B04D12548802100F000FD07E03B688C
:100EE000002B04D12148802100F006FD38E037E0D6
:100EF0003B68012B05D11D484FF4007100F0EEFC5A
:100F000008E03B68002B05D118484FF4007100F051
:100F1000F3FC25E024E03B68012B05D113484FF496
:100F2000006100F0DBFC08E03B68002B05D10F48B6
:100F30004FF4006100F0E0FC12E011E03B68012B8F
:100F400005D10A484FF4005100F0C8FC07E03B68A7
:100F5000002B04D105484FF4005100F0CDFC00BF38
:100F60000837BD4680BD00BF0004024000100240AB
:100F700080B582B000AF786039607B68013B042B9C
:100F800068D801A252F823F09D0F0008BF0F000897
:100F9000E50F00080B100008311000083B68012B1A
:100FA00004D12E48022100F099FC07E03B68002B99
:100FB00004D12A48022100F09FFC4BE04AE03B6844
:100FC000012B05D126484FF4807100F087FC08E022
:100FD0003B68002B05D122484FF4807100F08CFC57
:100FE00038E037E03B68012B05D11D484FF48061A4
:100FF00000F074FC08E03B68002B05D118484FF462
:10100000806100F079FC25E024E03B68012B05D1EC
:1010100013484FF4805100F061FC08E03B68002B5E
:1010200005D10F484FF4805100F066FC12E011E04A
:101030003B68012B05D10A484FF4804100F04EFC7B
:1010400007E03B68002B04D105484FF4804100F0D5
:1010500053FC00BF0837BD4680BD00BF00040240FE
:101060000010024080B58AB000AF0420012100F0DA
:1010700051FB0820012100F02FFB4FF470433B602F
:1010800002233B7103237B710023BB710123FB719E
:101090003B463748194600F079FB35480C210222BF
:1010A00000F038FC32480D21022200F033FC3048B9
:1010B0000E21022200F02EFC2D480F21022200F00A
:1010C00029FC40F2FF733B620923BB830023BB84EE
:1010D0000023FB8307F11C032648194600F0DEFDC0
:1010E00060233B8101237B8100233B610023BB8282
:1010F00007F108031F48194600F07AFE1D48082131
:1011000001F064F801237B8100233B6107F10803B0
:101110001848194600F0E6FE1648082101F072F85A
:1011200001237B8100233B6107F108031148194625
:1011300000F060FF0F48082101F082F801237B8155
:1011400000233B6107F108030A48194600F0D8FF65
:101150000848082101F090F80648012100F008FE37
:101160000448012100F024FE2837BD4680BD00BFA1
:10117000000C02400008004080B483B000AF7860EB
:1011800039607B68013B032B1AD801A252F823F087
:10119000A1110008A9110008B1110008B911000837
:1011A0000A4B3A685A630BE0084B3A689A6307E0C7
:1011B000064B3A68DA6303E0044B3A681A6400BFEE
:1011C0000C37BD465DF8047B704700BF0008004047
:1011D00080B58AB000AF0120012100F09BFA022007
:1011E000012100F079FA4FF480633B6002233B71E8
:1011F00003237B710023BB710123FB713B46234812
:10120000194600F0C3FA21480A21012200F082FBAE
:1012100040F2FF733B620923BB830023BB8400239E
:10122000FB8307F11C034FF08040194600F036FDA8
:1012300060233B810023BB8207F108034FF080400D
:10124000194600F0D5FD4FF08040082100F0BEFFA8
:1012500001237B8100233B6107F108034FF08040AD
:10126000194600F0C7FE4FF08040082100F0E8FF6B
:101270004FF08040012100F07BFD4FF080400121C4
:1012800000F096FD2837BD4680BD00BF0004024037
:1012900080B483B000AF78604FF080437A68DA633F
:1012A0000C37BD465DF8047B704700BF80B596B033
:1012B00000AF4FF48040012100F04AFA04200121E0
:1012C00000F00AFA02200521FEF75EFF0220062147
:1012D000FEF75AFF02200721FEF756FF02200821E1
:1012E000FEF752FF02200921FEF74EFF002387F888
:1012F000543020233B65032387F85530022387F8B9
:101300005730002387F8563007F1500356481946E6
:1013100000F03CFA002387F84C304023BB640323E1
:1013200087F84D30022387F84F30002387F84E307E
:1013300007F148034C48194600F028FA002387F8C3
:10134000443080233B64032387F84530022387F829
:101350004730002387F8463007F1400342481946DA
:1013600000F014FA002387F83C304FF48073BB631D
:10137000032387F83D30022387F83F30002387F8A6
:101380003E3007F138033848194600F0FFF90023D2
:1013900087F834304FF480733B63032387F835308C
:1013A000022387F83730002387F8363007F13003FF
:1013B0002D48194600F0EAF92023BB62012387F883
:1013C0002E30002387F82C30082387F82D3007F1C2
:1013D0002803184600F088FB40233B62012387F86E
:1013E0002630002387F82430082387F8253007F1BA
:1013F0002003184600F078FB8023BB610123BB77F4
:1014000000233B7708237B7707F11803184600F089
:101410006BFB4FF480733B610123BB7500233B756D
:1014200008237B7507F11003184600F05DFB4FF4AD
:101430000073BB600123BB7300233B7308237B73E2
:1014400007F10803184600F04FFB17233B710123F7
:10145000FB7100237B710023BB713B1D184600F01C
:10146000BFFB5837BD4680BD0008024098B500AFAD
:101470003B4B00221A6068E0394B1A68394B53F82D
:1014800022307F2B28DC364B1C68354B1A68354BD5
:1014900053F822301846FFF7EBFB0246314B43F876
:1014A00024202F4B1B68013318460021FFF7E8FC6E
:1014B0002B4B1B68013318460121FFF759FD284BC0
:1014C0001B685A1C264B1968264B53F821301046CE
:1014D0001946FFF751FE33E0214B1A68204B19687B
:1014E000204B53F82130C3F1FF011E4B43F822106B
:1014F0001B4B1C681A4B1A681A4B53F822301846BB
:10150000FFF7B6FB0246174B43F82420144B1B6829
:10151000013318460121FFF7B3FC114B1B6801335F
:1015200018460021FFF724FD0D4B1B685A1C0C4B7D
:1015300019680C4B53F8213010461946FFF71CFE72
:10154000074B1B685A1C064B1A60054B1B68032B84
:1015500092DD054B1B681846FFF79AFE98BD00BF49
:1015600054000020400000205000002080B500AF53
:10157000FFF792FBFFF7ACFBFFF74AFCFFF764FCB9
:10158000FFF72AFCFFF76EFDFFF722FEFFF78EFE46
:10159000FFF7D8FBFFF704FCFFF7F0FB0120202149
:1015A000FEF7A6FE02200321FFF7CEF80348FEF760
:1015B00025FF0348FEF738FFFEE700BF00000020CC
:1015C0000800002080B500AF3B4B1B6803F40053BC
:1015D000002B6FD0384B5B6903F40053002B69D0AC
:1015E0003648FEF7FDFFFEF7CFFF354B5B79DBB2E8
:1015F000142B08D13348012100F070F93148022141
:1016000000F07AF907E02F48012100F075F92D4824
:10161000022100F063F9294B1B78DBB2012B42D188
:10162000294B00221A6038E0274B1B685A1C274BB5
:101630001B689A422CD1244B1B6801331F4AD35C90
:10164000DBB21A46224B1A601F4B1B6802331B4A3F
:10165000D35CDBB21A461E4B5A601B4B1B6803332C
:10166000164AD35CDBB21A46194B9A60164B1B68BC
:101670000433124AD35CDBB21A46154BDA60124BC4
:101680001B6805330D4AD35CDBB21A46114B1A6056
:101690000D4B1B685A1C0C4B1A600B4B1B68042B20
:1016A000C2DDFFF7E3FE4FF4005000F08BFA282074
:1016B000FEF7DAFD80BD00BF003C01403C00002089
:1016C00010000020001002405400002060000020A4
:1016D000400000205000002080B483B000AF78604C
:1016E0000B46FB70FB78002B06D0094B084A116BA8
:1016F0007A680A431A6306E0054B054A116B7A685B
:10170000D2430A401A630C37BD465DF8047B70472C
:101710000038024080B483B000AF78600B46FB70A5
:10172000FB78002B06D0094B084A116C7A680A43F3
:101730001A6406E0054B054A116C7A68D2430A40E8
:101740001A640C37BD465DF8047B704700380240D0
:1017500080B483B000AF78600B46FB70FB78002B41
:1017600006D0094B084A516C7A680A435A6406E06D
:10177000054B054A516C7A68D2430A405A640C37CB
:10178000BD465DF8047B70470038024080B487B0E6
:1017900000AF7860396000237B6100233B61002348
:1017A000FB6000237B6176E07B69012202FA03F390
:1017B0003B613B681A683B691340FB60FA683B6910
:1017C0009A4265D17B681A687B695B00032101FA44
:1017D00003F3DB431A407B681A607B681A683B6836
:1017E0001B7919467B695B0001FA03F31A437B6896
:1017F0001A603B681B79012B03D03B681B79022BD5
:101800002ED17B689A687B695B00032101FA03F3A0
:10181000DB431A407B689A607B689A683B685B7917
:1018200019467B695B0001FA03F31A437B689A60EF
:101830007B685A687B699BB2012101FA03F3DB43A1
:101840001A407B685A607B685A683B689B791946E6
:101850007B699BB201FA03F39BB21A437B685A601F
:101860007B68DA687B699BB25B00032101FA03F3B2
:10187000DB431A407B68DA607B68DA683B68DB79B7
:1018800019467B695B0001FA03F31A437B68DA604F
:101890007B6901337B617B690F2B85D91C37BD4682
:1018A0005DF8047B704700BF80B485B000AF7860FE
:1018B0000B467B800023FB737B681A697B8813408F
:1018C000002B02D00123FB7301E00023FB73FB7BA1
:1018D00018461437BD465DF8047B704780B483B06A
:1018E00000AF78600B467B807B687A881A830C3760
:1018F000BD465DF8047B704780B483B000AF78606C
:101900000B467B807B687A885A830C37BD465DF82E
:10191000047B704780B485B000AF786013460A46F8
:101920007A807B700023FB600023BB607A787B8821
:1019300003F007039B0002FA03F3FB607B88DB08DC
:101940009BB21A467B88DB089BB219467B6808313C
:1019500053F821107B8803F007039B000F2000FA47
:1019600003F3DB4319407B68083243F822107B887D
:10197000DB089BB21A467B68083253F82220FB68CA
:101980001343BB607B88DB089BB21A467B68083236
:10199000B96843F822101437BD465DF8047B7047E0
:1019A00080B485B000AF786039600023FB817B682C
:1019B0001B88FB81FB8903F44153FB813B681A8838
:1019C0003B685B8813439AB23B689B8813439AB287
:1019D0003B68DB8813439AB23B681B8913439AB276
:1019E0003B685B8913439AB23B689B8913439AB265
:1019F0003B68DB8913439AB2FB891343FB817B6805
:101A0000FA891A807B689B8B9BB223F400639AB29D
:101A10007B689A833B681A8A7B681A821437BD46B2
:101A20005DF8047B704700BF80B483B000AF78607E
:101A30007B6800221A807B6800225A807B68002223
:101A40009A807B680022DA807B6800221A817B689A
:101A500000225A817B6800229A817B680022DA8109
:101A60007B6807221A820C37BD465DF8047B7047FD
:101A700080B483B000AF78600B46FB70FB78002B1E
:101A800008D07B681B889BB243F040039AB27B6806
:101A90001A8007E07B681B889BB223F040039AB250
:101AA0007B681A800C37BD465DF8047B704700BF29
:101AB00080B485B000AF78600B467B800023FB7359
:101AC0007B681B899AB27B8813409BB2002B02D0A3
:101AD0000123FB7301E00023FB73FB7B18461437E3
:101AE000BD465DF8047B704780B485B000AF786078
:101AF0000023FB60324BFB607B689B79002B4DD051
:101B00002F4B2F4A11687A681268D2430A401A6034
:101B10002B4B2B4A51687A681268D2430A405A60AC
:101B20007B681B79FA681344FB60FB68FA681168EC
:101B30007A6812680A431A60214B214A91687A68D0
:101B40001268D2430A409A601D4B1D4AD1687A68D8
:101B50001268D2430A40DA607B685B79102B0ED1A1
:101B6000174B174A91687A6812680A439A60144BB7
:101B7000134AD1687A6812680A43DA601BE0104B96
:101B8000FB607B685B79FA681344FB60FB68FA686A
:101B900011687A6812680A431A600CE07B681B7946
:101BA000FA681344FB60FB68FA6811687A68126887
:101BB000D2430A401A601437BD465DF8047B704773
:101BC000003C014080B483B000AF7860034B7A687A
:101BD0005A610C37BD465DF8047B7047003C0140FC
:101BE00080B485B000AF78600023FB730023BB7323
:101BF0000F237B737B68DB78002B37D0254BDB68AA
:101C0000DB4303F4E0631B0AFB73FB7BC3F10403B8
:101C1000BB737A7BFB7B42FA03F37B737B685B7855
:101C20001A46BB7B02FA03F3FB737B689A787B7BD3
:101C30001340DAB2FB7B1343FB73FB7B1B01FB738B
:101C4000154A7B681B781344FA7B83F80023124BF8
:101C50007A6812785209D2B27968097801F01F01C6
:101C6000012000FA01F143F822100EE00A4B7A68D5
:101C700012785209D2B27968097801F01F01012067
:101C800000FA01F1203243F822101437BD465DF806
:101C9000047B704700ED00E000E100E080B485B017
:101CA00000AF786039600023FB817B681B88FB8173
:101CB0007A68284B9A4213D07A68274B9A420FD001
:101CC0007B68B3F1804F0BD07A68244B9A4207D0DF
:101CD0007A68234B9A4203D07A68224B9A4208D101
:101CE000FB8923F07003FB813B685A88FB8913430F
:101CF000FB817A681C4B9A420CD07A681B4B9A4243
:101D000008D0FB8923F44073FB813B681A89FB8967
:101D10001343FB817B68FA891A803B685A687B68A9
:101D2000DA623B681A887B681A857A68094B9A429E
:101D300003D07A68084B9A4204D13B689B7A1A46D2
:101D40007B681A867B6801229A821437BD465DF84B
:101D5000047B704700000140000401400004004083
:101D600000080040000C004000100040001400403B
:101D700080B483B000AF78600B46FB70FB78002B1B
:101D800008D07B681B889BB243F080039AB27B68C3
:101D90001A8007E07B681B889BB223F080039AB20D
:101DA0007B681A800C37BD465DF8047B704700BF26
:101DB00080B483B000AF78600B46FB70FB78002BDB
:101DC00008D07B681B889BB243F001039AB27B6802
:101DD0001A8007E07B681B889BB223F001039AB24C
:101DE0007B681A800C37BD465DF8047B704700BFE6
:101DF00080B485B000AF7860396000237B81002318
:101E0000FB810023BB817B681B8C9BB223F0010309
:101E10009AB27B681A847B681B8CFB817B689B88E9
:101E2000BB817B681B8B7B817B8923F070037B816B
:101E30007B8923F003037B813B681A887B891343EA
:101E40007B81FB8923F00203FB813B689A89FB8934
:101E50001343FB813B685A88FB891343FB817A68F3
:101E60001E4B9A4203D07A681D4B9A4223D1FB89BC
:101E700023F00803FB813B68DA89FB891343FB816C
:101E8000FB8923F00403FB813B689A88FB89134399
:101E9000FB81BB8923F48073BB81BB8923F400736E
:101EA000BB813B681A8ABB891343BB813B685A8A52
:101EB000BB891343BB817B68BA899A807B687A8926
:101EC0001A833B689A687B685A637B68FA891A842C
:101ED0001437BD465DF8047B704700BF0000014029
:101EE0000004014080B485B000AF78603960002301
:101EF0007B810023FB810023BB817B681B8C9BB211
:101F000023F010039AB27B681A847B681B8CFB81D8
:101F10007B689B88BB817B681B8B7B817B8923F4DF
:101F2000E0437B817B8923F440737B813B681B8882
:101F30001B029AB27B8913437B81FB8923F0200328
:101F4000FB813B689B891B019AB2FB891343FB8190
:101F50003B685B881B019AB2FB891343FB817A685B
:101F6000224B9A4203D07A68214B9A422BD1FB89AB
:101F700023F08003FB813B68DB891B019AB2FB895C
:101F80001343FB81FB8923F04003FB813B689B8863
:101F90001B019AB2FB891343FB81BB8923F4806345
:101FA000BB81BB8923F40063BB813B681B8A9B0018
:101FB0009AB2BB891343BB813B685B8A9B009AB290
:101FC000BB891343BB817B68BA899A807B687A8915
:101FD0001A833B689A687B689A637B68FA891A84DB
:101FE0001437BD465DF8047B704700BF0000014018
:101FF0000004014080B485B000AF786039600023F0
:102000007B810023FB810023BB817B681B8C9BB2FF
:1020100023F480739AB27B681A847B681B8CFB81E3
:102020007B689B88BB817B689B8B7B817B8923F052
:1020300070037B817B8923F003037B813B681A88D3
:102040007B8913437B81FB8923F40073FB813B680D
:102050009B891B029AB2FB891343FB813B685B8817
:102060001B029AB2FB891343FB817A68224B9A4286
:1020700003D07A68214B9A422BD1FB8923F4006369
:10208000FB813B68DB891B029AB2FB891343FB810E
:10209000FB8923F48063FB813B689B881B029AB217
:1020A000FB891343FB81BB8923F48053BB81BB892C
:1020B00023F40053BB813B681B8A1B019AB2BB8986
:1020C0001343BB813B685B8A1B019AB2BB891343F4
:1020D000BB817B68BA899A807B687A899A833B68DE
:1020E0009A687B68DA637B68FA891A841437BD467C
:1020F0005DF8047B704700BF000001400004014010
:1021000080B485B000AF786039600023BB810023C4
:102110007B810023FB817B681B8C9BB223F4805363
:102120009AB27B681A847B681B8C7B817B689B8856
:10213000FB817B689B8BBB81BB8923F4E043BB8124
:10214000BB8923F44073BB813B681B881B029AB296
:10215000BB891343BB817B8923F400537B813B689C
:102160009B891B039AB27B8913437B813B685B8805
:102170001B039AB27B8913437B817A68114B9A4285
:1021800003D07A68104B9A420AD1FB8923F480432A
:10219000FB813B681B8A9B019AB2FB891343FB813D
:1021A0007B68FA899A807B68BA899A833B689A68C7
:1021B0007B681A647B687A891A841437BD465DF897
:1021C000047B7047000001400004014080B485B0EA
:1021D00000AF78600B467B800023FB817B681B8B04
:1021E000FB81FB8923F00803FB81FA897B88134379
:1021F000FB817B68FA891A831437BD465DF8047B3E
:10220000704700BF80B485B000AF78600B467B801C
:102210000023FB817B681B8BFB81FB8923F400631C
:10222000FB817B881B029AB2FB891343FB817B688D
:10223000FA891A831437BD465DF8047B704700BFE6
:1022400080B485B000AF78600B467B800023FB81B3
:102250007B689B8BFB81FB8923F00803FB81FA8958
:102260007B881343FB817B68FA899A831437BD46C8
:102270005DF8047B704700BF80B485B000AF786024
:102280000B467B800023FB817B689B8BFB81FB895A
:1022900023F40063FB817B881B029AB2FB89134302
:1022A000FB817B68FA899A831437BD465DF8047B0D
:0422B000704700BFB4
:1022B400C2C2C2C2C2000000E7E7E7E7E7000000CD
:1022C4000164646464003264326400326432640021
:1022D40032643264003264326400000000000000A2
:0400000508000000EF
:00000001FF
