:020000040800F2
:100000005808002089010008E5010008E501000802
:10001000E5010008E5010008E50100080000000016
:10002000000000000000000000000000E5010008E2
:10003000E501000800000000E5010008E1080008F3
:10004000E5010008E5010008E5010008E5010008F8
:10005000E5010008E5010008E5010008E5010008E8
:10006000E5010008E5010008E5010008E5010008D8
:10007000E5010008E5010008E5010008E5010008C8
:10008000E5010008E5010008E5010008E5010008B8
:10009000E5010008E5010008E5010008E5010008A8
:1000A000E5010008E5010008E5010008E501000898
:1000B000E5010008E5010008E5010008E501000888
:1000C000E5010008E5010008E5010008E501000878
:1000D000E5010008E5010008E5010008E501000868
:1000E000E5010008E5010008E5010008E501000858
:1000F000E5010008E5010008E5010008E501000848
:10010000E5010008E5010008E5010008E501000837
:10011000E5010008E5010008E5010008E501000827
:10012000E5010008E5010008E5010008E501000817
:10013000E5010008E5010008E5010008E501000807
:10014000E5010008E5010008E5010008E5010008F7
:10015000E5010008E5010008E5010008E5010008E7
:10016000E5010008E5010008E5010008E5010008D7
:10017000E5010008E5010008E5010008E5010008C7
:10018000E5010008E501000880B582B000AF104B22
:100190007B60104B3B6007E03B681A1D3A607A6851
:1001A000111D796012681A603A680B4B9A42F3D3BA
:1001B0000A480B494FF000028842B8BF40F8042BB0
:1001C000FFF6FAAF00F000FE0837BD4680BD00BF65
:1001D000B01400080000002044000020440000206B
:1001E0005400002080B400AFFEE700BF80B483B0AD
:1001F00000AF03463960FB7197F90730002B0BDA2B
:100200000D49FB7903F00F03043B3A68D2B21201A7
:10021000D2B20B441A7609E0084997F907303A68D8
:10022000D2B21201D2B20B4483F800230C37BD4680
:100230005DF8047B704700BF00ED00E000E100E0E6
:1002400080B582B000AF78607B68B3F1807F01D366
:10025000012311E00A4B7A6822F07F42013A5A608A
:100260004FF0FF300F21FFF7C1FF054B00229A60CE
:10027000034B07221A60002318460837BD4680BD8D
:1002800010E000E080B582B000AF0820012100F04E
:1002900041FE01233B710023BB710023FB7103234B
:1002A0007B7180233B603B460A48194600F0C6FE3E
:1002B0004FF480733B603B460648194600F0BEFE93
:1002C000044B4FF480725A83024B80221A83083702
:1002D000BD4680BD000C024080B582B000AF024632
:1002E0000B46FA71BB71FFF7CDFF3B48012100F0CF
:1002F00051FBBB79202B01D92023BB71374BFA79F5
:100300005A70364BBA791A70344B03229A70334BB9
:100310000022DA7000F0D6F9FB790520194600F0CA
:10032000DBF82E4B1B781120194600F0D5F82B4B2B
:100330001B781220194600F0CFF8284B1B781320A9
:10034000194600F0C9F8254B1B781420194600F017
:10035000C3F8224B1B781520194600F0BDF81F4B3F
:100360001B781620194600F0B7F81C4BDA781B4BA7
:100370009B781046194600F037FA0020082100F05B
:10038000ABF801203F2100F0A7F802203F2100F048
:10039000A3F804204F2100F09FF81C20002100F05A
:1003A0009BF80F4B80225A830B48E12100F01CFB85
:1003B0000B4B80221A830A4B80225A830648E22183
:1003C00000F012FB064B80221A8300F0E7F80123AD
:1003D00018460837BD4680BD003C00405000002054
:1003E000000C024080B582B000AF7860074B4FF43C
:1003F00080725A830B207968052200F091F8034B34
:100400004FF480721A830837BD4680BD000C02404D
:1004100080B582B000AF78600A207968052200F0CC
:100420007FF810207968052200F07AF80837BD4679
:1004300080BD00BF80B584B000AF13460246FA719C
:100440000A46BA717B71FB79184600F023F803461F
:10045000FB737B79002B09D0BB79012202FA03F3ED
:10046000DAB2FB7B1343DBB2FB730AE0BB790122F8
:1004700002FA03F3DBB2DB43DAB2FB7B1340DBB2FD
:10048000FB73FA79FB7B1046194600F025F810370C
:10049000BD4680BD80B584B000AF0346FB710C4BF8
:1004A00080225A83FB7903F01F03DBB20948194607
:1004B00000F09AFA0748FF2100F096FA0346FB7312
:1004C000034B80221A83FB7B18461037BD4680BD44
:1004D000000C0240003C004080B582B000AF0246F4
:1004E0000B46FA71BB710C4B80225A83FB7903F0E7
:1004F0001F03DBB243F02003DBB20848194600F0CB
:1005000073FABB790548194600F06EFA024B802257
:100510001A830837BD4680BD000C0240003C0040F5
:1005200080B582B000AF396013460246FA71BB71E4
:100530000D4B80225A83FB7903F01F03DBB243F09B
:100540002003DBB20948194600F04EFABB799BB292
:10055000064839681A4600F071FA034B80221A8364
:100560000837BD4680BD00BF000C0240003C004083
:1005700080B500AF072004210122FFF75BFF0720B1
:1005800005210122FFF756FF072006210122FFF770
:1005900051FF00200A21FFF79FFF80BD80B500AF0B
:1005A000124B80225A831248E22100F01DFA0F4BB1
:1005B00080221A83072004210122FFF73BFF072036
:1005C00005210122FFF736FF072006210122FFF750
:1005D00031FF064B4FF480725A8300200B21FFF746
:1005E0007BFF024B4FF480721A8380BD000C0240E7
:1005F000003C004080B584B000AF7860154B1B789C
:10060000FB73154B4FF480725A83FFF7B1FF124B07
:1006100080225A831148E12100F0E6F90E4B802236
:100620001A830D4B80225A830C48A02100F0DCF97C
:10063000FB7B9BB2094879681A4600F0FFF9064B2C
:1006400080221A83044B4FF480721A831037BD4600
:1006500080BD00BF50000020000C0240003C004064
:1006600080B582B000AF084B80225A830748FF2133
:1006700000F0BAF90346FB71034B80221A83FB7921
:1006800018460837BD4680BD000C0240003C0040C3
:1006900080B582B000AFFFF7E3FF0346FB71FB7943
:1006A00003F02003002B01D0012307E0FB7903F0C6
:1006B0001003002B01D0002300E0FF231846083769
:1006C000BD4680BD80B582B000AF00200821FFF795
:1006D00003FF01203F21FFF7FFFE02200321FFF768
:1006E000FBFE03200321FFF7F7FE04200321FFF7A1
:1006F000F3FE05200221FFF7EFFE06200E21FFF793
:10070000EBFE07200E21FFF7E7FE08200021FFF790
:10071000E3FE09200021FFF7DFFEE7233B70E7231C
:100720007B70E723BB70E723FB70E7233B713B46FD
:100730000A2019460522FFF7F3FEC2233B70C223AD
:100740007B70C223BB70C223FB70C2233B713B464C
:100750000B2019460522FFF7E3FE0C20C321FFF70B
:10076000BBFE0D20C421FFF7B7FE0E20C521FFF709
:10077000B3FE0F20C621FFF7AFFEE7233B70E72350
:100780007B70E723BB70E723FB70E7233B713B469D
:10079000102019460522FFF7C3FE11200021FFF7A4
:1007A0009BFE12200021FFF797FE13200021FFF788
:1007B00093FE14200021FFF78FFE15200021FFF784
:1007C0008BFE16200021FFF787FE17201121FFF76F
:1007D00083FE1C200021FFF77FFE1D200021FFF774
:1007E0007BFE0837BD4680BD80B584B000AF0246B1
:1007F0000B46FA71BB710023FB731A4BFA79DA705E
:10080000184BBA799A70FB79002B04D1FB7B43F02B
:100810000803FB7306E0FB79022B03D1FB7B43F05B
:100820002003FB73BB79032B04D1FB7B43F006034E
:10083000FB730EE0BB79022B04D1FB7B43F0040376
:10084000FB7306E0BB79012B03D1FB7B43F0020372
:10085000FB73FB7B06201946FFF73EFE1037BD46B3
:1008600080BD00BF5000002080B582B000AF0820DE
:10087000012100F04FFB4FF470433B600023BB713C
:1008800001233B710023FB7103237B713B4603482B
:10089000194600F0D3FB0837BD4680BD000C02406E
:1008A00080B582B000AF0346FB80FB880348194641
:1008B00000F052FC0837BD4680BD00BF000C02406E
:1008C00080B582B000AF0346FB80FB880348194621
:1008D00000F050FC0837BD4680BD00BF000C024050
:1008E00080B400AF084B1B685A1C074B1A60074BBB
:1008F0001B68002B04D0054B1B685A1E034B1A6063
:10090000BD465DF8047B704748000020440000208D
:1009100080B500AF0F4B1B78002B00D018E00120F2
:1009200000F0BEFA00BF00F0CDFA0346002BFAD06B
:10093000094B1A68094BA3FB02139B0C1846FFF7DF
:100940007FFC0346002B00D0FEE7024B01221A7009
:1009500080BD00BF4C0000203000002083DE1B4320
:1009600080B400AF034B1B681846BD465DF8047B9E
:10097000704700BF4800002080B483B000AF7860AB
:10098000034B7A681A600C37BD465DF8047B7047EC
:100990004800002080B582B000AF78600B46FB7045
:1009A0007A680E4B9A4204D1FB78184600F062F840
:1009B00010E07A680A4B9A4204D1FB78184600F09E
:1009C000D7F807E07A68074B9A4203D1FB781846BC
:1009D00000F07CF90837BD4680BD00BF0030014003
:1009E00000380040003C004080B582B000AF786025
:1009F0000B46FB70FB789AB27B689A8100BF7868DF
:100A0000022100F039FD0346002BF8D000BF7868C2
:100A1000012100F031FD0346002BF8D000BF7868BB
:100A2000802100F029FD0346002BF8D17B689B89CB
:100A30009BB2DBB218460837BD4680BD80B586B094
:100A400000AFF860B9601346FB800023FB820AE028
:100A5000FB8ABA6813441B78F8681946FFF7C4FF8D
:100A6000FB8A0133FB82FA8AFB889A42F0D318375B
:100A7000BD4680BD80B58AB000AF0346FB71002340
:100A800087F82630002387F82730032387F825309E
:100A9000022387F82430FB79002B1BD10120012190
:100AA00000F038FAE0233B6207F120032D48194695
:100AB00000F0C4FA2B480521052200F069FB294803
:100AC0000621052200F064FB26480721052200F0DC
:100AD0005FFB1DE0FB79012B1AD10220012100F000
:100AE00019FA38233B6207F120031F48194600F02A
:100AF000A5FA1D480321052200F04AFB1A480421EB
:100B0000052200F045FB18480521052200F040FBB6
:100B10004FF48050012100F039FA07F10C03184618
:100B200000F066FC20233B8300233B820023BB8133
:100B300000237B834FF48273FB8100237B8200239D
:100B4000BB824FF40073FB8207F10C030748194680
:100B500000F00AFC0548012100F06EFC2837BD4674
:100B600080BD00BF00000240000402400030014090
:100B700080B58AB000AF0346FB71002387F82630AA
:100B8000012387F82730032387F82530022387F8CD
:100B90002430FB79002B28D10220012100F0BAF982
:100BA0000420012100F0B6F90C233B6207F1200379
:100BB0004248194600F042FA4FF480633B6207F165
:100BC00020033F48194600F039FA3C48022105222B
:100BD00000F0DEFA39480321052200F0D9FA38483E
:100BE0000A21052200F0D4FA3EE0FB79012B1CD14A
:100BF0000220012100F08EF94FF460433B6207F1BF
:100C000020032F48194600F019FA2D480D2105221E
:100C100000F0BEFA2A480E21052200F0B9FA284851
:100C20000F21052200F0B4FA1EE0FB79022B1BD144
:100C30004FF48070012100F06DF90D233B6207F144
:100C400020031F48194600F0F9F91E48002105222B
:100C500000F09EFA1B480221052200F099FA19487B
:100C60000321052200F094FA4FF48040012100F0A6
:100C70006FF907F10C03184600F0BAFB20233B8301
:100C800000233B820023BB8100237B834FF48273CC
:100C9000FB8100237B820023BB824FF40073FB8225
:100CA00007F10C030848194600F05EFB06480121D5
:100CB00000F0C2FB2837BD4680BD00BF00080240DF
:100CC00000040240002002400038004080B58AB095
:100CD00000AF0346FB71002387F82630002387F816
:100CE0002730032387F82530022387F82430FB7947
:100CF000002B1BD10220012100F00CF938233B62AC
:100D000007F120032D48194600F098F92B480321DC
:100D1000062200F03DFA29480421062200F038FAA4
:100D200026480521062200F033FA1EE0FB79012B4C
:100D30001BD10420012100F0EDF84FF4E0533B6299
:100D400007F120031E48194600F078F91C480A21D3
:100D5000062200F01DFA1A480B21062200F018FAAC
:100D600017480C21062200F013FA4FF4004001212D
:100D700000F0EEF807F10C03184600F039FB2023D1
:100D80003B8300233B820023BB8100237B834FF402
:100D90008273FB8100237B820023BB824FF40073AC
:100DA000FB8207F10C030748194600F0DDFA0548FD
:100DB000012100F041FB2837BD4680BD0004024000
:100DC00000080240003C004080B582B000AF00F057
:100DD00025FAFFF79DFDFFF747FD01202021FFF7D2
:100DE0007BFA01200021FFF7FFFC2A48FFF7FAFAFF
:100DF0002948FFF70DFB2948FFF7FCFBFFF748FCEC
:100E00000346FB71FB79FF2BF8D0FB79012B10D146
:100E10004FF40040FFF744FD4FF48050FFF750FDC2
:100E20004FF48040FFF74CFD4FF40050FFF748FDB2
:100E300023E0FB79002B10D14FF48040FFF730FD09
:100E40004FF48050FFF73CFD4FF40040FFF738FDB2
:100E50004FF40050FFF734FD0FE04FF40050FFF760
:100E60001FFD4FF48050FFF72BFD4FF48040FFF73C
:100E700027FD4FF40040FFF723FD0020FFF77CFD26
:100E800000BFFFF76DFD02464CF24F339A42F8D98E
:100E9000B1E700BF08000020000000201000002083
:100EA00080B483B000AF0346FB71054B00221A707B
:100EB000034BFA791A700C37BD465DF8047B704716
:100EC0000238024080B582B000AF00233B600023AF
:100ED000FB710023BB71312000F076F80346BB7133
:100EE0003B6801333B603B68B3F5A06F02D0BB7930
:100EF000002BF0D0312000F067F80346002B02D021
:100F00000123FB7101E00023FB71FB7918460837D0
:100F1000BD4680BD80B483B000AF78600B46FB70E7
:100F2000FB78002B06D0094B084A116B7A680A43FC
:100F30001A6306E0054B054A116B7A68D2430A40F2
:100F40001A630C37BD465DF8047B704700380240D9
:100F500080B483B000AF78600B46FB70FB78002B49
:100F600006D0094B084A116C7A680A431A6406E0F5
:100F7000054B054A116C7A68D2430A401A640C3753
:100F8000BD465DF8047B70470038024080B483B0F2
:100F900000AF78600B46FB70FB78002B06D0094B46
:100FA000084A516C7A680A435A6406E0054B054AC0
:100FB000516C7A68D2430A405A640C37BD465DF8DA
:100FC000047B70470038024080B487B000AF03460E
:100FD000FB710023FB6000237B610023FB74FB7922
:100FE0005B09DBB2FB60FB68012B03D1124B1B6872
:100FF0007B6109E0FB68022B03D10F4B1B6F7B6108
:1010000002E00D4B5B6F7B61FB7903F01F03FB601C
:10101000FB687A6922FA03F303F00103002B02D084
:101020000123FB7401E00023FB74FB7C18461C3792
:10103000BD465DF8047B70470038024080B487B03D
:1010400000AF7860396000237B6100233B6100239F
:10105000FB6000237B6176E07B69012202FA03F3E7
:101060003B613B681A683B691340FB60FA683B6967
:101070009A4265D17B681A687B695B00032101FA9B
:1010800003F3DB431A407B681A607B681A683B688D
:101090001B7919467B695B0001FA03F31A437B68ED
:1010A0001A603B681B79012B03D03B681B79022B2C
:1010B0002ED17B689A687B695B00032101FA03F3F8
:1010C000DB431A407B689A607B689A683B685B796F
:1010D00019467B695B0001FA03F31A437B689A6047
:1010E0007B685A687B699BB2012101FA03F3DB43F9
:1010F0001A407B685A607B685A683B689B7919463E
:101100007B699BB201FA03F39BB21A437B685A6076
:101110007B68DA687B699BB25B00032101FA03F309
:10112000DB431A407B68DA607B68DA683B68DB790E
:1011300019467B695B0001FA03F31A437B68DA60A6
:101140007B6901337B617B690F2B85D91C37BD46D9
:101150005DF8047B704700BF80B483B000AF786057
:101160000B467B807B687A881A830C37BD465DF816
:10117000047B704780B483B000AF78600B467B80FF
:101180007B687A885A830C37BD465DF8047B7047CC
:1011900080B485B000AF786013460A467A807B70D1
:1011A0000023FB600023BB607A787B8803F0070391
:1011B0009B0002FA03F3FB607B88DB089BB21A46B4
:1011C0007B88DB089BB219467B68083153F82110F5
:1011D0007B8803F007039B000F2000FA03F3DB4337
:1011E00019407B68083243F822107B88DB089BB2E9
:1011F0001A467B68083253F82220FB681343BB6011
:101200007B88DB089BB21A467B680832B96843F8D2
:1012100022101437BD465DF8047B704780B500AFDF
:10122000114B114A126842F001021A600E4B002263
:101230009A600D4A0C4B1B6823F0847323F48033AF
:101240001360094B094A5A60074B074A126822F497
:1012500080221A60044B0022DA6000F00BF8044B85
:101260004FF000629A6080BD0038024010300024C8
:1012700000ED00E080B483B000AF00237B6000236A
:101280003B60354B344A126842F480321A60324B6C
:101290001B6803F400333B607B6801337B603B6871
:1012A000002B03D17B68B3F5A06FF0D12A4B1B68EC
:1012B00003F40033002B02D001233B6001E0002344
:1012C0003B603B68012B42D1234B234A126C42F016
:1012D00080521A64214B214A126842F480421A60FB
:1012E0001D4B1D4A92689A601B4B1B4A926842F440
:1012F00000429A60184B184A926842F4A0529A60D1
:10130000154B174A5A60144B134A126842F0807208
:101310001A6000BF104B1B6803F00073002BF9D05C
:10132000104B40F205621A600B4B0B4A926822F098
:1013300003029A60084B084A926842F002029A60DF
:1013400000BF054B9B6803F00C03082BF9D10C3749
:10135000BD465DF8047B70470038024000700040D5
:1013600019544007003C024080B485B000AF78605B
:1013700039600023FB817B681B88FB81FB8903F4B8
:101380004153FB813B681A883B685B8813439AB2E0
:101390003B689B8813439AB23B68DB8813439AB23D
:1013A0003B681B8913439AB23B685B8913439AB22B
:1013B0003B689B8913439AB23B68DB8913439AB21B
:1013C000FB891343FB817B68FA891A807B689B8BBE
:1013D0009BB223F400639AB27B689A833B681A8AB3
:1013E0007B681A821437BD465DF8047B704700BFE6
:1013F00080B483B000AF78607B6800221A807B687D
:1014000000225A807B6800229A807B680022DA8062
:101410007B6800221A817B6800225A817B68002247
:101420009A817B680022DA817B6807221A820C3756
:10143000BD465DF8047B704780B483B000AF786030
:101440000B46FB70FB78002B08D07B681B889BB297
:1014500043F040039AB27B681A8007E07B681B88E0
:101460009BB223F040039AB27B681A800C37BD46CA
:101470005DF8047B704700BF80B485B000AF786032
:101480000B467B800023FB737B681B899AB27B88A9
:1014900013409BB2002B02D00123FB7301E0002319
:1014A000FB73FB7B18461437BD465DF8047B704721
:1014B000C2C2C2C2C2000000E7E7E7E7E7000000DF
:1014C00061626364616263646162636461626364F4
:1014D00061626364616263646162636461626364E4
:1014E000007A030A0000000000000000010203046B
:0414F00006070809DA
:0400000508000000EF
:00000001FF
