:020000040800F2
:100000000008002089010008E5010008E50100085A
:10001000E5010008E5010008E50100080000000016
:10002000000000000000000000000000E5010008E2
:10003000E501000800000000E5010008E5010008F6
:10004000E5010008E5010008E5010008E5010008F8
:10005000E5010008E5010008E5010008E5010008E8
:10006000E5010008E5010008E5010008E5010008D8
:10007000E5010008E5010008E5010008E5010008C8
:10008000E5010008E5010008E5010008E5010008B8
:10009000E5010008E5010008E5010008E5010008A8
:1000A000E5010008E5010008E5010008E501000898
:1000B000E5010008E5010008E5010008E501000888
:1000C000E5010008E5010008E5010008E501000878
:1000D000E5010008E5010008E5010008E501000868
:1000E000E5010008E5010008E5010008E501000858
:1000F000E5010008E5010008E5010008E501000848
:10010000E5010008E5010008E5010008E501000837
:10011000E5010008E5010008E5010008E501000827
:10012000E5010008E5010008E5010008E501000817
:10013000E5010008E5010008E5010008E501000807
:10014000E5010008E5010008E5010008E5010008F7
:10015000E5010008E5010008E5010008E5010008E7
:10016000E5010008E5010008E5010008E5010008D7
:10017000E5010008E5010008E5010008E5010008C7
:10018000E5010008E501000880B582B000AF104B22
:100190007B60104B3B6007E03B681A1D3A607A6851
:1001A000111D796012681A603A680B4B9A42F3D3BA
:1001B0000A480B494FF000028842B8BF40F8042BB0
:1001C000FFF6FAAF00F07AF80837BD4680BD00BFF1
:1001D000640700080000002000000020000000204C
:1001E0000000002080B400AFFEE700BF80B582B001
:1001F00000AF0820012100F085F84FF400533B6068
:1002000002233B710023BB7103237B710023FB712D
:100210003B460648194600F0B1F804480D21022279
:1002200000F03AF90837BD4680BD00BF000C02401F
:1002300080B483B000AF786000BF7B685A1E7A60DC
:10024000002BFAD10C37BD465DF8047B704700BF28
:1002500080B584B000AF0420012100F071F84FF4A4
:10026000C853BB804FF4FA73BB600023BB810023EB
:10027000FB800023BB733B1D0548194600F052F973
:100280000348012100F0B8F91037BD4680BD00BF1A
:100290000008004080B586B000AF6023BB8001231A
:1002A000FB8000233B823B1D0348194600F0C4F944
:1002B0001837BD4680BD00BF0008004080B500AFC4
:1002C000FFF794FFFFF7C4FFFFF7E4FF0B48962109
:1002D00000F03AFA0A48FFF7ABFF08484FF496716E
:1002E00000F032FA0648FFF7A3FF04484FF4FA7112
:1002F00000F02AFA0248FFF79BFFE7E700080040FA
:10030000A086010080B483B000AF78600B46FB701C
:10031000FB78002B06D0094B084A116B7A680A4318
:100320001A6306E0054B054A116B7A68D2430A400E
:100330001A630C37BD465DF8047B704700380240F5
:1003400080B483B000AF78600B46FB70FB78002B65
:1003500006D0094B084A116C7A680A431A6406E011
:10036000054B054A116C7A68D2430A401A640C376F
:10037000BD465DF8047B70470038024080B487B00A
:1003800000AF7860396000237B6100233B6100236C
:10039000FB6000237B6176E07B69012202FA03F3B4
:1003A0003B613B681A683B691340FB60FA683B6934
:1003B0009A4265D17B681A687B695B00032101FA68
:1003C00003F3DB431A407B681A607B681A683B685A
:1003D0001B7919467B695B0001FA03F31A437B68BA
:1003E0001A603B681B79012B03D03B681B79022BF9
:1003F0002ED17B689A687B695B00032101FA03F3C5
:10040000DB431A407B689A607B689A683B685B793B
:1004100019467B695B0001FA03F31A437B689A6013
:100420007B685A687B699BB2012101FA03F3DB43C5
:100430001A407B685A607B685A683B689B7919460A
:100440007B699BB201FA03F39BB21A437B685A6043
:100450007B68DA687B699BB25B00032101FA03F3D6
:10046000DB431A407B68DA607B68DA683B68DB79DB
:1004700019467B695B0001FA03F31A437B68DA6073
:100480007B6901337B617B690F2B85D91C37BD46A6
:100490005DF8047B704700BF80B485B000AF786022
:1004A00013460A467A807B700023FB600023BB6002
:1004B0007A787B8803F007039B0002FA03F3FB6062
:1004C0007B88DB089BB21A467B88DB089BB2194607
:1004D0007B68083153F821107B8803F007039B00E9
:1004E0000F2000FA03F3DB4319407B68083243F81E
:1004F00022107B88DB089BB21A467B68083253F8CF
:100500002220FB681343BB607B88DB089BB21A4642
:100510007B680832B96843F822101437BD465DF88D
:10052000047B704780B485B000AF786039600023E9
:10053000FB817B681B88FB817A68284B9A4213D029
:100540007A68274B9A420FD07B68B3F1804F0BD06B
:100550007A68244B9A4207D07A68234B9A4203D098
:100560007A68224B9A4208D1FB8923F07003FB8101
:100570003B685A88FB891343FB817A681C4B9A427B
:100580000CD07A681B4B9A4208D0FB8923F4407345
:10059000FB813B681A89FB891343FB817B68FA89DD
:1005A0001A803B685A687B68DA623B681A887B6805
:1005B0001A857A68094B9A4203D07A68084B9A42A6
:1005C00004D13B689B7A1A467B681A867B680122B5
:1005D0009A821437BD465DF8047B704700000140E5
:1005E000000401400004004000080040000C0040EE
:1005F000001000400014004080B483B000AF786069
:100600000B46FB70FB78002B08D07B681B889BB2E5
:1006100043F001039AB27B681A8007E07B681B886D
:100620009BB223F001039AB27B681A800C37BD4657
:100630005DF8047B704700BF80B485B000AF786080
:10064000396000237B810023FB810023BB817B6811
:100650001B8C9BB223F010039AB27B681A847B68D0
:100660001B8CFB817B689B88BB817B681B8B7B81A0
:100670007B8923F4E0437B817B8923F440737B8176
:100680003B681B881B029AB27B8913437B81FB89E1
:1006900023F02003FB813B689B891B019AB2FB89F5
:1006A0001343FB813B685B881B019AB2FB891343B0
:1006B000FB817A68224B9A4203D07A68214B9A4296
:1006C0002BD1FB8923F08003FB813B68DB891B0175
:1006D0009AB2FB891343FB81FB8923F04003FB8122
:1006E0003B689B881B019AB2FB891343FB81BB8942
:1006F00023F48063BB81BB8923F40063BB813B6827
:100700001B8A9B009AB2BB891343BB813B685B8AFF
:100710009B009AB2BB891343BB817B68BA899A80DC
:100720007B687A891A833B689A687B689A637B68DE
:10073000FA891A841437BD465DF8047B704700BF00
:10074000000001400004014080B483B000AF786035
:1007500039607B683A689A630C37BD465DF8047B64
:04076000704700BF1F
:0400000508000000EF
:00000001FF
