:020000040800F2
:100000004008002049040008A5040008A5040008D1
:10001000A5040008A5040008A504000800000000CD
:10002000000000000000000000000000A50400081F
:10003000A504000800000000A5040008A5040008AD
:10004000A5040008A5040008A5040008A5040008EC
:10005000A5040008A5040008A5040008A5040008DC
:10006000A5040008A5040008A5040008A5040008CC
:10007000A5040008A5040008A5040008A5040008BC
:10008000A5040008A5040008A5040008A5040008AC
:10009000A5040008A5040008A5040008A50400089C
:1000A000A5040008A5040008A5040008A50400088C
:1000B000A5040008A5040008A5040008A50400087C
:1000C000A5040008A5040008A5040008A50400086C
:1000D000A5040008A5040008A5040008A50400085C
:1000E000A5040008A5040008A5040008A50400084C
:1000F000A5040008A5040008A5040008A50400083C
:10010000A5040008A5040008A5040008A50400082B
:10011000A5040008A5040008A5040008A50400081B
:10012000A5040008A5040008A5040008A50400080B
:10013000A5040008A5040008A5040008A5040008FB
:10014000A5040008A5040008A5040008A5040008EB
:10015000A5040008A5040008A5040008A5040008DB
:10016000A5040008A5040008A5040008A5040008CB
:10017000A5040008A5040008A5040008A5040008BB
:10018000A5040008A504000890B484B000AF02469E
:100190000B46FA71BB710023FB60BB7903F00303CC
:1001A0009B000F2202FA03F3FB60154BBA79920809
:1001B000D2B21349B8798008C0B2023051F8200099
:1001C000F968C9430140023243F822100C4BBA7956
:1001D0009208D2B20A49B8798008C0B2023051F808
:1001E0002000FC79B97901F00301890004FA01F1DA
:1001F0000143023243F822101037BD4690BC7047CD
:100200000038014080B58AB000AF786039600023C3
:100210007B6200233B620023FB610023BB617B68A0
:100220001B8A9BB27B627B6A23F440537B623B68F0
:10023000DB887A6A13437B627B6A9AB27B681A8294
:100240007B689B899BB27B627B6A23F4B05323F06B
:100250000C037B623B689A883B681B8913439AB204
:100260003B685B8913439BB27A6A13437B627B6A68
:100270009AB27B689A817B689B8A9BB27B627B6A1D
:1002800023F440737B623B689B897A6A13437B62E9
:100290007B6A9AB27B689A8207F10803184600F0DD
:1002A00005F97A68314B9A4203D07A68304B9A420A
:1002B00002D17B693B6201E03B693B627B689B89C1
:1002C0009BB29BB21BB2002B0CDA3A6A13469B001E
:1002D00013449A001A443B681B685B00B2FBF3F3BB
:1002E000FB610BE03A6A13469B0013449A001A44E0
:1002F0003B681B689B00B2FBF3F3FB61FA691D4B83
:10030000A3FB02135B091B017B627B6A1B0964224E
:1003100002FB03F3FA69D31ABB617B689B899BB22A
:100320009BB21BB2002B0DDABB69DB0003F132027A
:10033000104BA3FB02135B0903F007037A6A134314
:100340007B620CE0BB691B0103F13202094BA3FB8A
:1003500002135B0903F00F037A6A13437B627B6A23
:100360009AB27B681A812837BD4680BD00100140D3
:10037000001401401F85EB5180B483B000AF78605A
:100380000B46FB70FB78002B08D07B689B899BB2E7
:1003900043F400539AB27B689A8107E07B689B899B
:1003A0009BB223F400539AB27B689A810C37BD4606
:1003B0005DF8047B704700BF80B487B000AF786001
:1003C00013460A467A807B7000233B610023FB6062
:1003D0000023BB6000237B617B687B617B88DBB291
:1003E0005B09DBB23B617B8803F01F03FB60FB68AA
:1003F000012202FA03F3BB603B69012B03D17B6945
:100400000C337B6109E03B69022B03D17B6910331C
:100410007B6102E07B6914337B617B78002B06D023
:100420007B697A691168BA680A431A6006E07B69D9
:100430007A691168BA68D2430A401A601C37BD460F
:100440005DF8047B704700BF80B582B000AF104BF1
:100450007B60104B3B6007E03B681A1D3A607A688E
:10046000111D796012681A603A680B4B9A42F3D3F7
:100470000A480B494FF000028842B8BF40F8042BED
:10048000FFF6FAAF01F0F6F90837BD4680BD00BFB0
:100490007C1900080000002010000020100000203F
:1004A0003C00002080B400AFFEE700BF80B489B0FC
:1004B00000AF78600023BB6100237B610023FB61F8
:1004C00002233B610023FB600223BB60484B9B6817
:1004D00003F00C03BB61BB69042B07D0082B09D0C8
:1004E000002B3FD17B68434A1A603FE07B68424A59
:1004F0001A603BE03E4B5B6803F480039B0DFB609E
:100500003B4B5B6803F03F03BB60FB68002B0DD0E7
:10051000394ABB68B2FBF3F2354B596847F6C073F2
:100520000B409B0903FB02F3FB610CE0314ABB6803
:10053000B2FBF3F22E4B596847F6C0730B409B0990
:1005400003FB02F3FB612A4B5B6803F440331B0C93
:1005500001335B003B61FA693B69B2FBF3F27B68F4
:100560001A6003E07B68234A1A6000BF204B9B6837
:1005700003F0F003BB61BB691B09BB611F4ABB6988
:1005800013441B78DBB27B617B681A687B69DA40B5
:100590007B685A60164B9B6803F4E053BB61BB69F0
:1005A0009B0ABB61154ABB6913441B78DBB27B61B4
:1005B0007B685A687B69DA407B689A600C4B9B6861
:1005C00003F46043BB61BB695B0BBB610B4ABB6956
:1005D00013441B78DBB27B617B685A687B69DA4025
:1005E0007B68DA602437BD465DF8047B704700BF46
:1005F000003802400024F40040787D010000002013
:1006000080B483B000AF78600B46FB70FB78002BA2
:1006100006D0094B084A116B7A680A431A6306E050
:10062000054B054A116B7A68D2430A401A630C37AE
:10063000BD465DF8047B70470038024080B483B04B
:1006400000AF78600B46FB70FB78002B06D0094B9F
:10065000084A116C7A680A431A6406E0054B054A99
:10066000116C7A68D2430A401A640C37BD465DF8B3
:10067000047B70470038024080B483B000AF7860DC
:100680000B46FB70FB78002B06D0094B084A516CD7
:100690007A680A435A6406E0054B054A516C7A6849
:1006A000D2430A405A640C37BD465DF8047B70475C
:1006B0000038024080B487B000AF78603960002312
:1006C0007B6100233B610023FB6000237B6176E0BC
:1006D0007B69012202FA03F33B613B681A683B69BC
:1006E0001340FB60FA683B699A4265D17B681A68DF
:1006F0007B695B00032101FA03F3DB431A407B684B
:100700001A607B681A683B681B7919467B695B0035
:1007100001FA03F31A437B681A603B681B79012BCB
:1007200003D03B681B79022B2ED17B689A687B69CA
:100730005B00032101FA03F3DB431A407B689A60F4
:100740007B689A683B685B7919467B695B0001FAB4
:1007500003F31A437B689A607B685A687B699BB293
:10076000012101FA03F3DB431A407B685A607B687E
:100770005A683B689B7919467B699BB201FA03F37F
:100780009BB21A437B685A607B68DA687B699BB2CC
:100790005B00032101FA03F3DB431A407B68DA6054
:1007A0007B68DA683B68DB7919467B695B0001FA94
:1007B00003F31A437B68DA607B6901337B617B69F1
:1007C0000F2B85D91C37BD465DF8047B704700BFF1
:1007D00080B485B000AF78600B467B800023FB734C
:1007E0007B681A697B881340002B02D00123FB73BE
:1007F00001E00023FB73FB7B18461437BD465DF810
:10080000047B704780B483B000AF78600B467B8078
:100810007B687A881A830C37BD465DF8047B704785
:1008200080B483B000AF78600B467B807B687A88A9
:100830005A830C37BD465DF8047B704780B485B0A1
:1008400000AF786013460A467A807B700023FB6015
:100850000023BB607A787B8803F007039B0002FAD1
:1008600003F3FB607B88DB089BB21A467B88DB08BE
:100870009BB219467B68083153F821107B8803F03E
:1008800007039B000F2000FA03F3DB4319407B684A
:10089000083243F822107B88DB089BB21A467B683B
:1008A000083253F82220FB681343BB607B88DB08C7
:1008B0009BB21A467B680832B96843F82210143795
:1008C000BD465DF8047B704780B485B000AF7860AA
:1008D0000023FB60324BFB607B689B79002B4DD083
:1008E0002F4B2F4A11687A681268D2430A401A6067
:1008F0002B4B2B4A51687A681268D2430A405A60DF
:100900007B681B79FA681344FB60FB68FA6811681E
:100910007A6812680A431A60214B214A91687A6802
:100920001268D2430A409A601D4B1D4AD1687A680A
:100930001268D2430A40DA607B685B79102B0ED1D3
:10094000174B174A91687A6812680A439A60144BE9
:10095000134AD1687A6812680A43DA601BE0104BC8
:10096000FB607B685B79FA681344FB60FB68FA689C
:1009700011687A6812680A431A600CE07B681B7978
:10098000FA681344FB60FB68FA6811687A681268B9
:10099000D2430A401A601437BD465DF8047B7047A5
:1009A000003C014080B485B000AF78600023FB7349
:1009B0000023BB730F237B737B68DB78002B37D05E
:1009C000254BDB68DB4303F4E0631B0AFB73FB7B13
:1009D000C3F10403BB737A7BFB7B42FA03F37B73A3
:1009E0007B685B781A46BB7B02FA03F3FB737B6878
:1009F0009A787B7B1340DAB2FB7B1343FB73FB7B60
:100A00001B01FB73154A7B681B781344FA7B83F840
:100A10000023124B7A6812785209D2B279680978A9
:100A200001F01F01012000FA01F143F822100EE04D
:100A30000A4B7A6812785209D2B27968097801F0C3
:100A40001F01012000FA01F1203243F8221014376F
:100A5000BD465DF8047B704700ED00E000E100E07A
:100A600080B485B000AF786039600023FB817B687B
:100A70001B88FB817A68284B9A4213D07A68274BEF
:100A80009A420FD07B68B3F1804F0BD07A68244B29
:100A90009A4207D07A68234B9A4203D07A68224B55
:100AA0009A4208D1FB8923F07003FB813B685A8886
:100AB000FB891343FB817A681C4B9A420CD07A68FD
:100AC0001B4B9A4208D0FB8923F44073FB813B689F
:100AD0001A89FB891343FB817B68FA891A803B687A
:100AE0005A687B68DA623B681A887B681A857A687C
:100AF000094B9A4203D07A68084B9A4204D13B686A
:100B00009B7A1A467B681A867B6801229A82143780
:100B1000BD465DF8047B70470000014000040140C1
:100B20000004004000080040000C0040001000409D
:100B30000014004080B483B000AF78600B46FB70B7
:100B4000FB78002B08D07B681B889BB243F08003A6
:100B50009AB27B681A8007E07B681B889BB223F0FF
:100B600080039AB27B681A800C37BD465DF8047B1F
:100B7000704700BF80B483B000AF78600B46FB7055
:100B8000FB78002B08D07B681B889BB243F00103E5
:100B90009AB27B681A8007E07B681B889BB223F0BF
:100BA00001039AB27B681A800C37BD465DF8047B5E
:100BB000704700BF80B485B000AF78603960002313
:100BC0007B810023FB810023BB817B681B8C9BB254
:100BD00023F001039AB27B681A847B681B8CFB812B
:100BE0007B689B88BB817B681B8B7B817B8923F027
:100BF00070037B817B8923F003037B813B681A8828
:100C00007B8913437B81FB8923F00203FB813B68D3
:100C10009A89FB891343FB813B685A88FB891343FC
:100C2000FB817A681E4B9A4203D07A681D4B9A4228
:100C300023D1FB8923F00803FB813B68DA89FB8918
:100C40001343FB81FB8923F00403FB813B689A88F3
:100C5000FB891343FB81BB8923F48073BB81BB8970
:100C600023F40073BB813B681A8ABB891343BB81A1
:100C70003B685A8ABB891343BB817B68BA899A80D7
:100C80007B687A891A833B689A687B685A637B68B9
:100C9000FA891A841437BD465DF8047B704700BF9B
:100CA000000001400004014080B485B000AF7860CE
:100CB000396000237B810023FB810023BB817B689B
:100CC0001B8C9BB223F010039AB27B681A847B685A
:100CD0001B8CFB817B689B88BB817B681B8B7B812A
:100CE0007B8923F4E0437B817B8923F440737B8100
:100CF0003B681B881B029AB27B8913437B81FB896B
:100D000023F02003FB813B689B891B019AB2FB897E
:100D10001343FB813B685B881B019AB2FB89134339
:100D2000FB817A68224B9A4203D07A68214B9A421F
:100D30002BD1FB8923F08003FB813B68DB891B01FE
:100D40009AB2FB891343FB81FB8923F04003FB81AB
:100D50003B689B881B019AB2FB891343FB81BB89CB
:100D600023F48063BB81BB8923F40063BB813B68B0
:100D70001B8A9B009AB2BB891343BB813B685B8A89
:100D80009B009AB2BB891343BB817B68BA899A8066
:100D90007B687A891A833B689A687B689A637B6868
:100DA000FA891A841437BD465DF8047B704700BF8A
:100DB000000001400004014080B485B000AF7860BD
:100DC000396000237B810023FB810023BB817B688A
:100DD0001B8C9BB223F480739AB27B681A847B6865
:100DE0001B8CFB817B689B88BB817B689B8B7B8199
:100DF0007B8923F070037B817B8923F003037B8154
:100E00003B681A887B8913437B81FB8923F4007339
:100E1000FB813B689B891B029AB2FB891343FB81D0
:100E20003B685B881B029AB2FB891343FB817A689B
:100E3000224B9A4203D07A68214B9A422BD1FB89EC
:100E400023F40063FB813B68DB891B029AB2FB89B8
:100E50001343FB81FB8923F48063FB813B689B8800
:100E60001B029AB2FB891343FB81BB8923F4805395
:100E7000BB81BB8923F40053BB813B681B8A1B01E8
:100E80009AB2BB891343BB813B685B8A1B019AB250
:100E9000BB891343BB817B68BA899A807B687A8956
:100EA0009A833B689A687B68DA637B68FA891A845C
:100EB0001437BD465DF8047B704700BF0000014059
:100EC0000004014080B485B000AF78603960002331
:100ED000BB8100237B810023FB817B681B8C9BB241
:100EE00023F480539AB27B681A847B681B8C7B81C5
:100EF0007B689B88FB817B689B8BBB81BB8923F4D0
:100F0000E043BB81BB8923F44073BB813B681B88F2
:100F10001B029AB2BB891343BB817B8923F4005324
:100F20007B813B689B891B039AB27B8913437B813E
:100F30003B685B881B039AB27B8913437B817A6889
:100F4000114B9A4203D07A68104B9A420AD1FB891E
:100F500023F48043FB813B681B8A9B019AB2FB8987
:100F60001343FB817B68FA899A807B68BA899A83EC
:100F70003B689A687B681A647B687A891A8414379C
:100F8000BD465DF8047B704700000140000401404D
:100F900080B485B000AF78600B467B800023FB8176
:100FA0007B681B8BFB81FB8923F00803FB81FA899B
:100FB0007B881343FB817B68FA891A831437BD460B
:100FC0005DF8047B704700BF80B485B000AF7860E7
:100FD0000B467B800023FB817B681B8BFB81FB899D
:100FE00023F40063FB817B881B029AB2FB891343C5
:100FF000FB817B68FA891A831437BD465DF8047B50
:10100000704700BF80B485B000AF78600B467B802E
:101010000023FB817B689B8BFB81FB8923F008030A
:10102000FB81FA897B881343FB817B68FA899A8369
:101030001437BD465DF8047B704700BF80B485B0AF
:1010400000AF78600B467B800023FB817B689B8B25
:10105000FB81FB8923F40063FB817B881B029AB22E
:10106000FB891343FB817B68FA899A831437BD4659
:101070005DF8047B704700BF80B483B000AF786038
:101080007B684FF4CA6202FB03F3002B00DA7F3364
:10109000DB11CC3318460C37BD465DF8047B704736
:1010A00080B582B000AF08200121FFF7A9FA0F2315
:1010B0003B6001233B710023BB7103237B71012340
:1010C000FB713B4603481946FFF7F4FA0837BD4663
:1010D00080BD00BF000C024090B583B000AF10206F
:1010E0000121FFF78DFA3C233B6000233B71002375
:1010F000BB7103237B710123FB713B4611481946E9
:10110000FFF7D8FA0F480421FFF762FB03465C00A3
:101110000C480821FFF75CFB034623445C000948A8
:101120001021FFF755FB034623445C0005482021AE
:10113000FFF74EFB0346E218034B1A600C37BD461F
:1011400090BD00BF001002403400002080B582B086
:1011500000AF04200121FFF753FA4FF400633B6016
:101160000023BB710023FB7102233B7103237B71BE
:1011700006480B210722FFF761FB3B46034819464F
:10118000FFF798FA0837BD4680BD00BF000802404F
:1011900080B586B000AF4FF480200121FFF74EFAF2
:1011A0004FF41643BB600023BB8104237B820023E2
:1011B000BB820023FB8100233B8207F108030E481A
:1011C0001946FFF71FF80C4840F225510122FFF79E
:1011D000F3F827233B7100237B710023BB710123AC
:1011E000FB713B1D1846FFF7DDFB03480121FFF7AC
:1011F000C3F81837BD4680BD0048004080B582B0B6
:1012000000AF10200121FFF7FBF903233B6001230E
:101210003B710023BB7103237B710123FB713B46B0
:1012200003481946FFF746FA0837BD4680BD00BFA0
:101230000010024080B582B000AF02200121FFF70C
:10124000DFF90B233B6001233B710023BB710323B8
:101250007B710123FB713B4603481946FFF72AFACD
:101260000837BD4680BD00BF0004024080B582B093
:1012700000AF10200121FFF7C3F947F683733B60ED
:1012800001233B710023BB7103237B710123FB719D
:101290003B4603481946FFF70DFA0837BD4680BDA7
:1012A0000010024080B582B000AF786039607B6882
:1012B000013B042B66D801A252F823F0D11200089A
:1012C000F3120008151300083B130008611300080F
:1012D0003B68012B04D12D480121FFF793FA07E069
:1012E0003B68002B04D129480121FFF799FA49E016
:1012F00048E03B68012B04D125488021FFF782FAA2
:1013000007E03B68002B04D121488021FFF788FAD1
:1013100038E037E03B68012B05D11D484FF40071E0
:10132000FFF770FA08E03B68002B05D118484FF42E
:101330000071FFF775FA25E024E03B68012B05D129
:1013400013484FF40061FFF75DFA08E03B68002B9B
:1013500005D10F484FF40061FFF762FA12E011E087
:101360003B68012B05D10A484FF40051FFF74AFAB8
:1013700007E03B68002B04D105484FF40051FFF70C
:101380004FFA00BF0837BD4680BD00BF00040240D1
:101390000010024080B582B000AF786039607B6891
:1013A000013B042B68D801A252F823F0C1130008B6
:1013B000E3130008091400082F140008551400084E
:1013C0003B68012B04D12E480221FFF71BFA07E0EE
:1013D0003B68002B04D12A480221FFF721FA4BE099
:1013E0004AE03B68012B05D126484FF48071FFF796
:1013F00009FA08E03B68002B05D122484FF48071C0
:10140000FFF70EFA38E037E03B68012B05D11D48A5
:101410004FF48061FFF7F6F908E03B68002B05D137
:1014200018484FF48061FFF7FBF925E024E03B68A2
:10143000012B05D113484FF48051FFF7E3F908E081
:101440003B68002B05D10F484FF48051FFF7E8F9B6
:1014500012E011E03B68012B05D10A484FF48041AE
:10146000FFF7D0F907E03B68002B04D105484FF4A3
:101470008041FFF7D5F900BF0837BD4680BD00BFEA
:10148000000402400010024080B58AB000AF042082
:101490000121FFF7D3F808200121FFF7B1F84FF43D
:1014A00070433B6002233B7103237B710023BB71BC
:1014B0000123FB713B4637481946FFF7FBF83548D7
:1014C0000C210222FFF7BAF932480D210222FFF760
:1014D000B5F930480E210222FFF7B0F92D480F214F
:1014E0000222FFF7ABF940F2FF733B620923BB8393
:1014F0000023BB840023FB8307F11C032648194605
:10150000FFF7AEFA60233B8101237B8100233B611F
:101510000023BB8207F108031F481946FFF74AFB67
:101520001D480821FFF734FD01237B8100233B6127
:1015300007F1080318481946FFF7B6FB16480821BB
:10154000FFF742FD01237B8100233B6107F1080384
:1015500011481946FFF730FC0F480821FFF752FDEC
:1015600001237B8100233B6107F108030A481946E8
:10157000FFF7A8FC08480821FFF760FD0648012195
:10158000FFF7D8FA04480121FFF7F4FA2837BD46DF
:1015900080BD00BF000C02400008004080B483B052
:1015A00000AF786039607B68013B032B1AD801A239
:1015B00052F823F0C5150008CD150008D515000810
:1015C000DD1500080A4B3A685A630BE0084B3A688D
:1015D0009A6307E0064B3A68DA6303E0044B3A6823
:1015E0001A6400BF0C37BD465DF8047B704700BF2E
:1015F0000008004080B58AB000AF01200121FFF74C
:101600001DF802200121FEF7FBFF4FF480633B60D1
:1016100002233B7103237B710023BB710123FB7108
:101620003B4623481946FFF745F821480A21012285
:10163000FFF704F940F2FF733B620923BB830023E9
:10164000BB840023FB8307F11C034FF08040194645
:10165000FFF706FA60233B810023BB8207F10803F2
:101660004FF080401946FFF7A5FA4FF0804008215F
:10167000FFF78EFC01237B8100233B6107F1080308
:101680004FF080401946FFF797FB4FF0804008214C
:10169000FFF7B8FC4FF080400121FFF74BFA4FF005
:1016A00080400121FFF766FA2837BD4680BD00BFA4
:1016B0000004024080B596B000AF4FF48040012195
:1016C000FEF7DAFF04200121FEF79AFF0220052130
:1016D000FEF75AFD02200621FEF756FD02200721E3
:1016E000FEF752FD02200821FEF74EFD02200921DF
:1016F000FEF74AFD002387F8543020233B6503237F
:1017000087F85530022387F85730002387F8563082
:1017100007F1500356481946FEF7CCFF002387F81F
:101720004C304023BB64032387F84D30022387F8F5
:101730004F30002387F84E3007F148034C481946D4
:10174000FEF7B8FF002387F8443080233B6403236F
:1017500087F84530022387F84730002387F8463062
:1017600007F1400342481946FEF7A4FF002387F81B
:101770003C304FF48073BB63032387F83D30022372
:1017800087F83F30002387F83E3007F138033848A8
:101790001946FEF78FFF002387F834304FF480732B
:1017A0003B63032387F83530022387F83730002363
:1017B00087F8363007F130032D481946FEF77AFFD7
:1017C0002023BB62012387F82E30002387F82C30BA
:1017D000082387F82D3007F128031846FFF774F81F
:1017E00040233B62012387F82630002387F824300A
:1017F000082387F8253007F120031846FFF764F81F
:101800008023BB610123BB7700233B7708237B77D1
:1018100007F118031846FFF757F84FF480733B6140
:101820000123BB7500233B7508237B7507F110036B
:101830001846FFF749F84FF40073BB600123BB73F0
:1018400000233B7308237B7307F108031846FFF757
:101850003BF817233B710123FB7100237B710023AD
:10186000BB713B1D1846FFF79DF85837BD4680BD3C
:101870000008024080B500AFFFF712FCFFF72CFC18
:10188000FFF764FCFFF784FCFFF7D4FCFFF7EEFCE6
:10189000FFF7B4FCFFF7F8FDFFF7ACFEFFF70AFF18
:1018A00034480221FEF7AEFF334B32221A60324B2E
:1018B0001B681846FFF7E0FB02462F4B1A60012019
:1018C0000021FFF7EFFC01200121FFF763FD2A4B08
:1018D0001B6801201946FFF761FE274B32225A6030
:1018E000254B5B681846FFF7C7FB0246224B5A6040
:1018F00002200021FFF7D6FC02200121FFF74AFD5C
:101900001D4B5B6802201946FFF748FE1A4B322236
:101910009A60194B9B681846FFF7AEFB0246164BC0
:101920009A6003200021FFF7BDFC03200121FFF78F
:1019300031FD114B9B6803201946FFF72FFE0E4B1C
:101940003222DA600C4BDB681846FFF795FB024643
:10195000094BDA6004200021FFF7A4FC04200121D8
:10196000FFF718FD044BDB6804201946FFF716FE4D
:0C1970009AE700BF0010024018000020A1
:10197C000000000001020304010203040607080929
:0400000508000000EF
:00000001FF
