:020000040800F2
:10000000680800200502000871020008D7170008E0
:10001000710200087102000871020008000000006F
:100020000000000000000000000000007102000855
:10003000710200080000000071020008610700085A
:1000400071020008710200087102000871020008C4
:1000500071020008710200087102000871020008B4
:1000600071020008710200087102000871020008A4
:100070007102000871020008710200087102000894
:100080007102000871020008710200087102000884
:100090007102000871020008710200087102000874
:1000A0007102000871020008710200087102000864
:1000B0007102000871020008710200087102000854
:1000C0007102000871020008710200087102000844
:1000D0007102000871020008710200087102000834
:1000E0007102000871020008710200087102000824
:1000F0007102000871020008710200087102000814
:100100007102000871020008710200087102000803
:1001100071020008710200087102000871020008F3
:1001200071020008710200087102000871020008E3
:1001300071020008710200087102000871020008D3
:1001400071020008710200087102000871020008C3
:1001500071020008710200087102000871020008B3
:1001600071020008710200087102000871020008A3
:100170007102000871020008710200087102000893
:10018000710200087102000890B484B000AF02460A
:100190000B46FA71BB710023FB60BB7903F00303CC
:1001A0009B000F2202FA03F3FB60154BBA79920809
:1001B000D2B21349B8798008C0B2023051F8200099
:1001C000F968C9430140023243F822100C4BBA7956
:1001D0009208D2B20A49B8798008C0B2023051F808
:1001E0002000FC79B97901F00301890004FA01F1DA
:1001F0000143023243F822101037BD4690BC7047CD
:100200000038014080B582B000AF134B7B60134BC8
:100210003B6007E03B681A1D3A607A68111D7960FF
:1002200012681A603A680E4B9A42F3D30D480E4991
:100230004FF000028842B8BF40F8042BFFF6FAAF37
:10024000DFF82800016841F47001016001F026F92F
:100250000837BD4680BD00BFE82000080000002030
:100260002C0000202C0000206400002088ED00E01D
:1002700080B400AFFEE700BF80B582B000AF0820B9
:10028000012101F039F901233B710023BB710023E7
:10029000FB7103237B7180233B603B460A48194670
:1002A00001F084F94FF480733B603B4606481946E1
:1002B00001F07CF9044B4FF480725A83024B802288
:1002C0001A830837BD4680BD000C024080B582B05D
:1002D00000AF02460B46FA71BB71FFF7CDFF3B48FA
:1002E000012100F055FABB79202B01D92023BB71E5
:1002F000374BFA795A70364BBA791A70344B03225D
:100300009A70334B0022DA7000F058F9FB7905201F
:10031000194600F0DBF82E4B1B781120194600F02F
:10032000D5F82B4B1B781220194600F0CFF8284B3C
:100330001B781320194600F0C9F8254B1B781420B0
:10034000194600F0C3F8224B1B781520194600F01F
:10035000BDF81F4B1B781620194600F0B7F81C4B50
:10036000DA781B4B9B781046194600F0B9F900204B
:10037000082100F0ABF801203F2100F0A7F802208F
:100380003F2100F0A3F804204F2100F09FF81C202B
:10039000002100F09BF80F4B80225A830B48E1218B
:1003A00000F020FA0B4B80221A830A4B80225A83DA
:1003B0000648E22100F016FA064B80221A8300F06C
:1003C000D1F8012318460837BD4680BD003C0040E7
:1003D0005C000020000C024080B582B000AF786065
:1003E000074B4FF480725A830B207968052200F086
:1003F00091F8034B4FF480721A830837BD4680BDD5
:10040000000C024080B582B000AF78600A207968A5
:10041000052200F07FF810207968052200F07AF8B4
:100420000837BD4680BD00BF80B584B000AF13461D
:100430000246FA710A46BA717B71FB79184600F0E0
:1004400023F80346FB737B79002B09D0BB7901228B
:1004500002FA03F3DAB2FB7B1343DBB2FB730AE06D
:10046000BB79012202FA03F3DBB2DB43DAB2FB7B96
:100470001340DBB2FB73FA79FB7B1046194600F0A0
:1004800025F81037BD4680BD80B584B000AF034667
:10049000FB710C4B80225A83FB7903F01F03DBB204
:1004A0000948194600F09EF90748FF2100F09AF923
:1004B0000346FB73034B80221A83FB7B18461037DD
:1004C000BD4680BD000C0240003C004080B582B0BB
:1004D00000AF02460B46FA71BB710C4B80225A8367
:1004E000FB7903F01F03DBB243F02003DBB20848C3
:1004F000194600F077F9BB790548194600F072F902
:10050000024B80221A830837BD4680BD000C024092
:10051000003C004080B582B000AF3960134602460F
:10052000FA71BB710D4B80225A83FB7903F01F03D4
:10053000DBB243F02003DBB20948194600F052F960
:10054000BB799BB2064839681A4600F075F9034B2F
:1005500080221A830837BD4680BD00BF000C0240D0
:10056000003C004080B500AF124B80225A831248F5
:10057000E22100F037F90F4B80221A830720042173
:100580000122FFF751FF072005210122FFF74CFF51
:10059000072006210122FFF747FF064B4FF4807228
:1005A0005A8300200B21FFF791FF024B4FF480721A
:1005B0001A8380BD000C0240003C004080B582B030
:1005C00000AF00200821FFF781FF01203F21FFF746
:1005D0007DFF02200321FFF779FF03200321FFF7AE
:1005E00075FF04200321FFF771FF05200221FFF7AB
:1005F0006DFF06200E21FFF769FF07200E21FFF790
:1006000065FF08200021FFF761FF09200021FFF7A7
:100610005DFFE7233B70E7237B70E723BB70E72395
:10062000FB70E7233B713B460A2019460522FFF782
:1006300071FFC2233B70C2237B70C223BB70C223F5
:10064000FB70C2233B713B460B2019460522FFF786
:1006500061FF0C20C321FFF739FF0D20C421FFF7F4
:1006600035FF0E20C521FFF731FF0F20C621FFF710
:100670002DFFE7233B70E7237B70E723BB70E72365
:10068000FB70E7233B713B46102019460522FFF71C
:1006900041FF11200021FFF719FF12200021FFF771
:1006A00015FF13200021FFF711FF14200021FFF791
:1006B0000DFF15200021FFF709FF16200021FFF78D
:1006C00005FF17201121FFF701FF1C200021FFF774
:1006D000FDFE1D200021FFF7F9FE0837BD4680BD55
:1006E00080B584B000AF02460B46FA71BB7100239F
:1006F000FB731A4BFA79DA70184BBA799A70FB7956
:10070000002B04D1FB7B43F00803FB7306E0FB796D
:10071000022B03D1FB7B43F02003FB73BB79032B3C
:1007200004D1FB7B43F00603FB730EE0BB79022B85
:1007300004D1FB7B43F00403FB7306E0BB79012B80
:1007400003D1FB7B43F00203FB73FB7B06201946BE
:10075000FFF7BCFE1037BD4680BD00BF5C00002027
:1007600080B400AF084B1B685A1C074B1A60074B3C
:100770001B68002B04D0054B1B685A1E034B1A60E4
:10078000BD465DF8047B7047300000202C0000203F
:1007900080B582B000AF78600B46FB707A680E4B74
:1007A0009A4204D1FB78184600F062F810E07A68AB
:1007B0000A4B9A4204D1FB78184600F0D7F807E0BC
:1007C0007A68074B9A4203D1FB78184600F07CF90F
:1007D0000837BD4680BD00BF0030014000380040F2
:1007E000003C004080B582B000AF78600B46FB70E3
:1007F000FB789AB27B689A8100BF7868022101F089
:100800007FF80346002BF8D000BF7868012101F083
:1008100077F80346002BF8D000BF7868802101F0FC
:100820006FF80346002BF8D17B689B899BB2DBB243
:1008300018460837BD4680BD80B586B000AFF86069
:10084000B9601346FB800023FB820AE0FB8ABA688A
:1008500013441B78F8681946FFF7C4FFFB8A01337D
:10086000FB82FA8AFB889A42F0D31837BD4680BDD6
:1008700080B58AB000AF0346FB71002387F82630AD
:10088000002387F82730032387F82530022387F8D1
:100890002430FB79002B1BD10120012100F02CFE1C
:1008A000E0233B6207F120032D48194600F07EFE4D
:1008B0002B480521052200F03DFF2948062105228D
:1008C00000F038FF26480721052200F033FF1DE025
:1008D000FB79012B1AD10220012100F00DFE3823F3
:1008E0003B6207F120031F48194600F05FFE1D48D8
:1008F0000321052200F01EFF1A480421052200F002
:1009000019FF18480521052200F014FF4FF480500C
:10091000012100F02DFE07F10C03184600F0ACFF9A
:1009200020233B8300233B820023BB8100237B8366
:100930004FF48273FB8100237B820023BB824FF440
:100940000073FB8207F10C030748194600F050FFC3
:100950000548012100F0B4FF2837BD4680BD00BF27
:1009600000000240000402400030014080B58AB01F
:1009700000AF0346FB71002387F82630012387F878
:100980002730032387F82530022387F82430FB79AA
:10099000002B28D10220012100F0AEFD042001210E
:1009A00000F0AAFD0C233B6207F1200342481946E0
:1009B00000F0FCFD4FF480633B6207F120033F48E9
:1009C000194600F0F3FD3C480221052200F0B2FE7A
:1009D00039480321052200F0ADFE38480A210522DE
:1009E00000F0A8FE3EE0FB79012B1CD10220012182
:1009F00000F082FD4FF460433B6207F120032F4873
:100A0000194600F0D3FD2D480D21052200F092FE7D
:100A10002A480E21052200F08DFE28480F210522CC
:100A200000F088FE1EE0FB79022B1BD14FF4807092
:100A3000012100F061FD0D233B6207F120031F48F7
:100A4000194600F0B3FD1E480021052200F072FE99
:100A50001B480221052200F06DFE194803210522E2
:100A600000F068FE4FF48040012100F063FD07F1C3
:100A70000C03184600F000FF20233B8300233B8239
:100A80000023BB8100237B834FF48273FB8100230F
:100A90007B820023BB824FF40073FB8207F10C03BF
:100AA0000848194600F0A4FE0648012100F008FF9E
:100AB0002837BD4680BD00BF000802400004024048
:100AC000002002400038004080B58AB000AF0346E5
:100AD000FB71002387F82630002387F82730032393
:100AE00087F82530022387F82430FB79002B1BD1AF
:100AF0000220012100F000FD38233B6207F12003B2
:100B00002D48194600F052FD2B480321062200F023
:100B100011FE29480421062200F00CFE264805217A
:100B2000062200F007FE1EE0FB79012B1BD10420FA
:100B3000012100F0E1FC4FF4E0533B6207F1200398
:100B40001E48194600F032FD1C480A21062200F01A
:100B5000F1FD1A480B21062200F0ECFD17480C218C
:100B6000062200F0E7FD4FF40040012100F0E2FC16
:100B700007F10C03184600F07FFE20233B8300237F
:100B80003B820023BB8100237B834FF48273FB8174
:100B900000237B820023BB824FF40073FB8207F1AA
:100BA0000C030748194600F023FE0548012100F018
:100BB00087FE2837BD4680BD000402400008024081
:100BC000003C004080B483B000AF78607B684FF495
:100BD000CA6202FB03F3002B00DA7F33DB11CC3354
:100BE00018460C37BD465DF8047B704780B582B06F
:100BF00000AF0820012100F07FFC0F233B600123A0
:100C00003B710023BB7103237B710123FB713B46C6
:100C10000348194600F0CAFC0837BD4680BD00BF36
:100C2000000C024090B583B000AF1020012100F00D
:100C300063FC3C233B6000233B710023BB71032317
:100C40007B710123FB713B461148194600F0AEFC55
:100C50000F48042100F038FD03465C000C480821D1
:100C600000F032FD034623445C000948102100F0E7
:100C70002BFD034623445C000548202100F024FDA1
:100C80000346E218034B1A600C37BD4690BD00BF07
:100C9000001002406000002080B582B000AF042048
:100CA000012100F029FC00233B710023BB714FF4AC
:100CB00000533B600123FB7101237B713B460348DA
:100CC000194600F073FC0837BD4680BD000802409D
:100CD00080B582B000AF28233B7100237B710023D5
:100CE000BB710123FB713B1D184600F093FE0837D2
:100CF000BD4680BD80B582B000AF4FF48040012179
:100D000000F036FC02200D21FFF73EFA4FF40053AD
:100D10003B6000233B710C237B710123BB713B467D
:100D2000184600F009FE0837BD4680BD80B582B088
:100D300000AF1020012100F0DFFB03233B60012303
:100D40003B710023BB7103237B710123FB713B4685
:100D50000348194600F02AFC0837BD4680BD00BF95
:100D60000010024080B582B000AF0220012100F0E7
:100D7000C3FB0B233B6001233B710023BB710323A7
:100D80007B710123FB713B460348194600F00EFCC2
:100D90000837BD4680BD00BF0004024080B582B068
:100DA00000AF1020012100F0A7FB47F683733B60E2
:100DB00001233B710023BB7103237B710123FB7172
:100DC0003B460348194600F0F1FB0837BD4680BD9D
:100DD0000010024080B582B000AF786039607B6857
:100DE000013B042B66D801A252F823F0010E000843
:100DF000230E0008450E00086B0E0008910E000837
:100E00003B68012B04D12D48012100F077FC07E05D
:100E10003B68002B04D12948012100F07DFC49E00A
:100E200048E03B68012B04D12548802100F066FC96
:100E300007E03B68002B04D12148802100F06CFCC6
:100E400038E037E03B68012B05D11D484FF40071B5
:100E500000F054FC08E03B68002B05D118484FF423
:100E6000007100F059FC25E024E03B68012B05D11E
:100E700013484FF4006100F041FC08E03B68002B90
:100E800005D10F484FF4006100F046FC12E011E07C
:100E90003B68012B05D10A484FF4005100F02EFCAD
:100EA00007E03B68002B04D105484FF4005100F0E7
:100EB00033FC00BF0837BD4680BD00BF00040240C0
:100EC0000010024080B582B000AF786039607B6866
:100ED000013B042B68D801A252F823F0F10E000860
:100EE000130F0008390F00085F0F0008850F000876
:100EF0003B68012B04D12E48022100F0FFFB07E0E4
:100F00003B68002B04D12A48022100F005FC4BE08D
:100F10004AE03B68012B05D126484FF4807100F070
:100F2000EDFB08E03B68002B05D122484FF48071AF
:100F300000F0F2FB38E037E03B68012B05D11D489B
:100F40004FF4806100F0DAFB08E03B68002B05D12C
:100F500018484FF4806100F0DFFB25E024E03B6897
:100F6000012B05D113484FF4805100F0C7FB08E076
:100F70003B68002B05D10F484FF4805100F0CCFBAB
:100F800012E011E03B68012B05D10A484FF4804183
:100F900000F0B4FB07E03B68002B04D105484FF498
:100FA000804100F0B9FB00BF0837BD4680BD00BFDF
:100FB000000402400010024080B58AB000AF042057
:100FC000012100F0B7FA0820012100F095FA4FF452
:100FD00070433B6002233B7103237B710023BB7191
:100FE0000123FB713B463748194600F0DFFA3548CC
:100FF0000C21022200F09EFB32480D21022200F05B
:1010000099FB30480E21022200F094FB2D480F215D
:10101000022200F08FFB40F2FF733B620923BB8387
:101020000023BB840023FB8307F11C0326481946D9
:1010300000F04EFD60233B8101237B8100233B6157
:101040000023BB8207F108031F48194600F0EAFDA0
:101050001D48082100F0D4FF01237B8100233B6160
:1010600007F108031848194600F056FE16480821F3
:1010700000F0E2FF01237B8100233B6107F10803BD
:101080001148194600F0D0FE0F48082100F0F2FF89
:1010900001237B8100233B6107F108030A481946BD
:1010A00000F048FF0848082101F000F80648012137
:1010B00000F078FD0448012100F094FD2837BD467A
:1010C00080BD00BF000C02400008004080B483B027
:1010D00000AF786039607B68013B032B1AD801A20E
:1010E00052F823F0F5100008FD1000080511000863
:1010F0000D1100080A4B3A685A630BE0084B3A6836
:101100009A6307E0064B3A68DA6303E0044B3A68F7
:101110001A6400BF0C37BD465DF8047B704700BF02
:101120000008004080B58AB000AF0120012100F026
:1011300001FA0220012100F0DFF94FF480633B60E7
:1011400002233B7103237B710023BB710123FB71DD
:101150003B462348194600F029FA21480A2101227A
:1011600000F0E8FA40F2FF733B620923BB830023DF
:10117000BB840023FB8307F11C034FF0804019461A
:1011800000F0A6FC60233B810023BB8207F108032B
:101190004FF08040194600F045FD4FF08040082197
:1011A00000F02EFF01237B8100233B6107F1080340
:1011B0004FF08040194600F037FE4FF08040082184
:1011C00000F058FF4FF08040012100F0EBFC4FF0A1
:1011D0008040012100F006FD2837BD4680BD00BFDC
:1011E0000004024080B483B000AF78604FF08043C9
:1011F0007A68DA630C37BD465DF8047B704700BF40
:1012000080B596B000AF4FF48040012100F0B0F9F6
:101210000420012100F070F902200521FEF7B4FF3F
:1012200002200621FEF7B0FF02200721FEF7ACFFE7
:1012300002200821FEF7A8FF02200921FEF7A4FFE3
:10124000002387F8543020233B65032387F855306B
:10125000022387F85730002387F8563007F15003F0
:101260005648194600F0A2F9002387F84C30402375
:10127000BB64032387F84D30022387F84F300023E7
:1012800087F84E3007F148034C48194600F08EF9B4
:10129000002387F8443080233B64032387F84530DC
:1012A000022387F84730002387F8463007F14003D0
:1012B0004248194600F07AF9002387F83C304FF491
:1012C0008073BB63032387F83D30022387F83F30E8
:1012D000002387F83E3007F138033848194600F0FC
:1012E00065F9002387F834304FF480733B630323A0
:1012F00087F83530022387F83730002387F83630F7
:1013000007F130032D48194600F050F92023BB6245
:10131000012387F82E30002387F82C30082387F824
:101320002D3007F12803184600F006FB40233B62EE
:10133000012387F82630002387F82430082387F814
:10134000253007F12003184600F0F6FA8023BB6130
:101350000123BB7700233B7708237B7707F1180332
:10136000184600F0E9FA4FF480733B610123BB7526
:1013700000233B7508237B7507F11003184600F026
:10138000DBFA4FF40073BB600123BB7300233B7394
:1013900008237B7307F10803184600F0CDFA1723E2
:1013A0003B710123FB7100237B710023BB713B1D4B
:1013B000184600F02FFB5837BD4680BD000802409C
:1013C00080B582B000AF00237B60334B1B681846AA
:1013D000FFF7F8FB0246304B1A6001200021FFF7AF
:1013E000F9FC01200121FFF76DFD01204FF49671FA
:1013F000FFF76CFE284B5B681846FFF7E3FB0246DD
:10140000254B5A6002200021FFF7E4FC0220012155
:10141000FFF758FD02204FF49671FFF757FE1E4B61
:101420009B681846FFF7CEFB02461B4B9A600320D1
:101430000021FFF7CFFC03200121FFF743FD03202C
:101440004FF49671FFF742FE134BDB681846FFF727
:10145000B9FB0246104BDA6004200021FFF7BAFC0A
:1014600004200121FFF72EFD04204FF49671FFF7B1
:101470002DFE094B5A6913469B0013441846FFF78B
:10148000B1FE05200021FFF71DFD05200121FFF71A
:10149000A1FC0837BD4680BD3C00002080B500AFF0
:1014A000FFF7A4FBFFF7BEFBFFF75CFCFFF776FC42
:1014B000FFF73CFCFFF780FDFFF734FEFFF7A0FECF
:1014C000FFF7EAFBFFF716FCFFF702FC05201A21E5
:1014D000FEF7FCFE02200321FFF702F90448FEF7A5
:1014E0007BFF0448FEF78EFFFFF76AFFFEE700BFB1
:1014F000000000200800002080B483B000AF7860B6
:101500000B46FB70FB78002B06D0094B084A116B89
:101510007A680A431A6306E0054B054A116B7A683C
:10152000D2430A401A630C37BD465DF8047B70470E
:101530000038024080B483B000AF78600B46FB7087
:10154000FB78002B06D0094B084A116C7A680A43D5
:101550001A6406E0054B054A116C7A68D2430A40CA
:101560001A640C37BD465DF8047B704700380240B2
:1015700080B483B000AF78600B46FB70FB78002B23
:1015800006D0094B084A516C7A680A435A6406E04F
:10159000054B054A516C7A68D2430A405A640C37AD
:1015A000BD465DF8047B70470038024080B487B0C8
:1015B00000AF7860396000237B6100233B6100232A
:1015C000FB6000237B6176E07B69012202FA03F372
:1015D0003B613B681A683B691340FB60FA683B69F2
:1015E0009A4265D17B681A687B695B00032101FA26
:1015F00003F3DB431A407B681A607B681A683B6818
:101600001B7919467B695B0001FA03F31A437B6877
:101610001A603B681B79012B03D03B681B79022BB6
:101620002ED17B689A687B695B00032101FA03F382
:10163000DB431A407B689A607B689A683B685B79F9
:1016400019467B695B0001FA03F31A437B689A60D1
:101650007B685A687B699BB2012101FA03F3DB4383
:101660001A407B685A607B685A683B689B791946C8
:101670007B699BB201FA03F39BB21A437B685A6001
:101680007B68DA687B699BB25B00032101FA03F394
:10169000DB431A407B68DA607B68DA683B68DB7999
:1016A00019467B695B0001FA03F31A437B68DA6031
:1016B0007B6901337B617B690F2B85D91C37BD4664
:1016C0005DF8047B704700BF80B485B000AF7860E0
:1016D0000B467B800023FB737B681A697B88134071
:1016E000002B02D00123FB7301E00023FB73FB7B83
:1016F00018461437BD465DF8047B704780B483B04C
:1017000000AF78600B467B807B687A881A830C3741
:10171000BD465DF8047B704780B483B000AF78604D
:101720000B467B807B687A885A830C37BD465DF810
:10173000047B704780B485B000AF786013460A46DA
:101740007A807B700023FB600023BB607A787B8803
:1017500003F007039B0002FA03F3FB607B88DB08BE
:101760009BB21A467B88DB089BB219467B6808311E
:1017700053F821107B8803F007039B000F2000FA29
:1017800003F3DB4319407B68083243F822107B885F
:10179000DB089BB21A467B68083253F82220FB68AC
:1017A0001343BB607B88DB089BB21A467B68083218
:1017B000B96843F822101437BD465DF8047B7047C2
:1017C000ABBE00F002B800207047002A00F0018094
:1017D00010600120704706980188044A914240F049
:1017E0000380043006907047FEE70000ABBE0000A7
:1017F00080B485B000AF786039600023FB817B68DE
:101800001B88FB81FB8903F44153FB813B681A88E9
:101810003B685B8813439AB23B689B8813439AB238
:101820003B68DB8813439AB23B681B8913439AB227
:101830003B685B8913439AB23B689B8913439AB216
:101840003B68DB8913439AB2FB891343FB817B68B6
:10185000FA891A807B689B8B9BB223F400639AB24F
:101860007B689A833B681A8A7B681A821437BD4664
:101870005DF8047B704700BF80B483B000AF786030
:101880007B6800221A807B6800225A807B680022D5
:101890009A807B680022DA807B6800221A817B684C
:1018A00000225A817B6800229A817B680022DA81BB
:1018B0007B6807221A820C37BD465DF8047B7047AF
:1018C00080B483B000AF78600B46FB70FB78002BD0
:1018D00008D07B681B889BB243F040039AB27B68B8
:1018E0001A8007E07B681B889BB223F040039AB202
:1018F0007B681A800C37BD465DF8047B704700BFDB
:1019000080B485B000AF78600B467B800023FB730A
:101910007B681B899AB27B8813409BB2002B02D054
:101920000123FB7301E00023FB73FB7B1846143794
:10193000BD465DF8047B704780B485B000AF786029
:101940000023FB60324BFB607B689B79002B4DD002
:101950002F4B2F4A11687A681268D2430A401A60E6
:101960002B4B2B4A51687A681268D2430A405A605E
:101970007B681B79FA681344FB60FB68FA6811689E
:101980007A6812680A431A60214B214A91687A6882
:101990001268D2430A409A601D4B1D4AD1687A688A
:1019A0001268D2430A40DA607B685B79102B0ED153
:1019B000174B174A91687A6812680A439A60144B69
:1019C000134AD1687A6812680A43DA601BE0104B48
:1019D000FB607B685B79FA681344FB60FB68FA681C
:1019E00011687A6812680A431A600CE07B681B79F8
:1019F000FA681344FB60FB68FA6811687A68126839
:101A0000D2430A401A601437BD465DF8047B704724
:101A1000003C014080B485B000AF78600023FB73C8
:101A20000023BB730F237B737B68DB78002B37D0DD
:101A3000254BDB68DB4303F4E0631B0AFB73FB7B92
:101A4000C3F10403BB737A7BFB7B42FA03F37B7322
:101A50007B685B781A46BB7B02FA03F3FB737B68F7
:101A60009A787B7B1340DAB2FB7B1343FB73FB7BDF
:101A70001B01FB73154A7B681B781344FA7B83F8C0
:101A80000023124B7A6812785209D2B27968097829
:101A900001F01F01012000FA01F143F822100EE0CD
:101AA0000A4B7A6812785209D2B27968097801F043
:101AB0001F01012000FA01F1203243F822101437EF
:101AC000BD465DF8047B704700ED00E000E100E0FA
:101AD00080B485B000AF786039600023FB817B68FB
:101AE0001B88FB817A68284B9A4213D07A68274B6F
:101AF0009A420FD07B68B3F1804F0BD07A68244BA9
:101B00009A4207D07A68234B9A4203D07A68224BD4
:101B10009A4208D1FB8923F07003FB813B685A8805
:101B2000FB891343FB817A681C4B9A420CD07A687C
:101B30001B4B9A4208D0FB8923F44073FB813B681E
:101B40001A89FB891343FB817B68FA891A803B68F9
:101B50005A687B68DA623B681A887B681A857A68FB
:101B6000094B9A4203D07A68084B9A4204D13B68E9
:101B70009B7A1A467B681A867B6801229A82143700
:101B8000BD465DF8047B7047000001400004014041
:101B90000004004000080040000C0040001000401D
:101BA0000014004080B483B000AF78600B46FB7037
:101BB000FB78002B08D07B681B889BB243F0800326
:101BC0009AB27B681A8007E07B681B889BB223F07F
:101BD00080039AB27B681A800C37BD465DF8047B9F
:101BE000704700BF80B483B000AF78600B46FB70D5
:101BF000FB78002B08D07B681B889BB243F0010365
:101C00009AB27B681A8007E07B681B889BB223F03E
:101C100001039AB27B681A800C37BD465DF8047BDD
:101C2000704700BF80B485B000AF78603960002392
:101C30007B810023FB810023BB817B681B8C9BB2D3
:101C400023F001039AB27B681A847B681B8CFB81AA
:101C50007B689B88BB817B681B8B7B817B8923F0A6
:101C600070037B817B8923F003037B813B681A88A7
:101C70007B8913437B81FB8923F00203FB813B6853
:101C80009A89FB891343FB813B685A88FB8913437C
:101C9000FB817A681E4B9A4203D07A681D4B9A42A8
:101CA00023D1FB8923F00803FB813B68DA89FB8998
:101CB0001343FB81FB8923F00403FB813B689A8873
:101CC000FB891343FB81BB8923F48073BB81BB89F0
:101CD00023F40073BB813B681A8ABB891343BB8121
:101CE0003B685A8ABB891343BB817B68BA899A8057
:101CF0007B687A891A833B689A687B685A637B6839
:101D0000FA891A841437BD465DF8047B704700BF1A
:101D1000000001400004014080B485B000AF78604D
:101D2000396000237B810023FB810023BB817B681A
:101D30001B8C9BB223F010039AB27B681A847B68D9
:101D40001B8CFB817B689B88BB817B681B8B7B81A9
:101D50007B8923F4E0437B817B8923F440737B817F
:101D60003B681B881B029AB27B8913437B81FB89EA
:101D700023F02003FB813B689B891B019AB2FB89FE
:101D80001343FB813B685B881B019AB2FB891343B9
:101D9000FB817A68224B9A4203D07A68214B9A429F
:101DA0002BD1FB8923F08003FB813B68DB891B017E
:101DB0009AB2FB891343FB81FB8923F04003FB812B
:101DC0003B689B881B019AB2FB891343FB81BB894B
:101DD00023F48063BB81BB8923F40063BB813B6830
:101DE0001B8A9B009AB2BB891343BB813B685B8A09
:101DF0009B009AB2BB891343BB817B68BA899A80E6
:101E00007B687A891A833B689A687B689A637B68E7
:101E1000FA891A841437BD465DF8047B704700BF09
:101E2000000001400004014080B485B000AF78603C
:101E3000396000237B810023FB810023BB817B6809
:101E40001B8C9BB223F480739AB27B681A847B68E4
:101E50001B8CFB817B689B88BB817B689B8B7B8118
:101E60007B8923F070037B817B8923F003037B81D3
:101E70003B681A887B8913437B81FB8923F40073B9
:101E8000FB813B689B891B029AB2FB891343FB8150
:101E90003B685B881B029AB2FB891343FB817A681B
:101EA000224B9A4203D07A68214B9A422BD1FB896C
:101EB00023F40063FB813B68DB891B029AB2FB8938
:101EC0001343FB81FB8923F48063FB813B689B8880
:101ED0001B029AB2FB891343FB81BB8923F4805315
:101EE000BB81BB8923F40053BB813B681B8A1B0168
:101EF0009AB2BB891343BB813B685B8A1B019AB2D0
:101F0000BB891343BB817B68BA899A807B687A89D5
:101F10009A833B689A687B68DA637B68FA891A84DB
:101F20001437BD465DF8047B704700BF00000140D8
:101F30000004014080B485B000AF786039600023B0
:101F4000BB8100237B810023FB817B681B8C9BB2C0
:101F500023F480539AB27B681A847B681B8C7B8144
:101F60007B689B88FB817B689B8BBB81BB8923F44F
:101F7000E043BB81BB8923F44073BB813B681B8872
:101F80001B029AB2BB891343BB817B8923F40053A4
:101F90007B813B689B891B039AB27B8913437B81BE
:101FA0003B685B881B039AB27B8913437B817A6809
:101FB000114B9A4203D07A68104B9A420AD1FB899E
:101FC00023F48043FB813B681B8A9B019AB2FB8907
:101FD0001343FB817B68FA899A807B68BA899A836C
:101FE0003B689A687B681A647B687A891A8414371C
:101FF000BD465DF8047B70470000014000040140CD
:1020000080B485B000AF78600B467B800023FB81F5
:102010007B681B8BFB81FB8923F00803FB81FA891A
:102020007B881343FB817B68FA891A831437BD468A
:102030005DF8047B704700BF80B485B000AF786066
:102040000B467B800023FB817B681B8BFB81FB891C
:1020500023F40063FB817B881B029AB2FB89134344
:10206000FB817B68FA891A831437BD465DF8047BCF
:10207000704700BF80B485B000AF78600B467B80AE
:102080000023FB817B689B8BFB81FB8923F008038A
:10209000FB81FA897B881343FB817B68FA899A83E9
:1020A0001437BD465DF8047B704700BF80B485B02F
:1020B00000AF78600B467B800023FB817B689B8BA5
:1020C000FB81FB8923F40063FB817B881B029AB2AE
:1020D000FB891343FB817B68FA899A831437BD46D9
:0820E0005DF8047B704700BFAE
:1020E800C2C2C2C2C2000000E7E7E7E7E70000009B
:1020F8000101000403003264326400326432640077
:0C21080032643264003264326400000073
:0400000508000000EF
:00000001FF
